{
  "contractName": "DeSwitch",
  "abi": [
    {
      "inputs": [],
      "payable": false,
      "stateMutability": "nonpayable",
      "type": "constructor"
    },
    {
      "anonymous": false,
      "inputs": [
        {
          "indexed": false,
          "internalType": "uint256",
          "name": "gameId",
          "type": "uint256"
        },
        {
          "indexed": false,
          "internalType": "uint256",
          "name": "registerId",
          "type": "uint256"
        },
        {
          "indexed": false,
          "internalType": "address",
          "name": "gameRenter",
          "type": "address"
        },
        {
          "indexed": false,
          "internalType": "address",
          "name": "gameOwnerAddress",
          "type": "address"
        }
      ],
      "name": "LogForGameReceivedByOwner",
      "type": "event"
    },
    {
      "anonymous": false,
      "inputs": [
        {
          "indexed": false,
          "internalType": "uint256",
          "name": "gameId",
          "type": "uint256"
        },
        {
          "indexed": false,
          "internalType": "uint256",
          "name": "registerId",
          "type": "uint256"
        },
        {
          "indexed": false,
          "internalType": "address",
          "name": "gameRenter",
          "type": "address"
        },
        {
          "indexed": false,
          "internalType": "address",
          "name": "gameOwnerAddress",
          "type": "address"
        }
      ],
      "name": "LogForGameReceivedByRenter",
      "type": "event"
    },
    {
      "anonymous": false,
      "inputs": [
        {
          "indexed": false,
          "internalType": "uint256",
          "name": "gameId",
          "type": "uint256"
        },
        {
          "indexed": false,
          "internalType": "uint256",
          "name": "registerId",
          "type": "uint256"
        },
        {
          "indexed": false,
          "internalType": "address",
          "name": "gameOwnerAddress",
          "type": "address"
        },
        {
          "indexed": false,
          "internalType": "uint256",
          "name": "rentalRate",
          "type": "uint256"
        },
        {
          "indexed": false,
          "internalType": "uint256",
          "name": "depositRequired",
          "type": "uint256"
        }
      ],
      "name": "LogForGameRegistered",
      "type": "event"
    },
    {
      "anonymous": false,
      "inputs": [
        {
          "indexed": false,
          "internalType": "uint256",
          "name": "gameId",
          "type": "uint256"
        },
        {
          "indexed": false,
          "internalType": "uint256",
          "name": "registerId",
          "type": "uint256"
        },
        {
          "indexed": false,
          "internalType": "address",
          "name": "gameRenter",
          "type": "address"
        },
        {
          "indexed": false,
          "internalType": "address",
          "name": "gameOwnerAddress",
          "type": "address"
        }
      ],
      "name": "LogForGameRentalRequested",
      "type": "event"
    },
    {
      "anonymous": false,
      "inputs": [
        {
          "indexed": false,
          "internalType": "uint256",
          "name": "gameId",
          "type": "uint256"
        },
        {
          "indexed": false,
          "internalType": "uint256",
          "name": "registerId",
          "type": "uint256"
        },
        {
          "indexed": false,
          "internalType": "address",
          "name": "gameRenter",
          "type": "address"
        },
        {
          "indexed": false,
          "internalType": "address",
          "name": "gameOwnerAddress",
          "type": "address"
        }
      ],
      "name": "LogForGameShippedToOwner",
      "type": "event"
    },
    {
      "anonymous": false,
      "inputs": [
        {
          "indexed": false,
          "internalType": "uint256",
          "name": "gameId",
          "type": "uint256"
        },
        {
          "indexed": false,
          "internalType": "uint256",
          "name": "registerId",
          "type": "uint256"
        },
        {
          "indexed": false,
          "internalType": "address",
          "name": "gameRenter",
          "type": "address"
        },
        {
          "indexed": false,
          "internalType": "address",
          "name": "gameOwnerAddress",
          "type": "address"
        }
      ],
      "name": "LogForGameShippedToRenter",
      "type": "event"
    },
    {
      "constant": true,
      "inputs": [
        {
          "internalType": "address",
          "name": "",
          "type": "address"
        }
      ],
      "name": "games",
      "outputs": [
        {
          "internalType": "uint256",
          "name": "gameid",
          "type": "uint256"
        },
        {
          "internalType": "uint256",
          "name": "gregisterId",
          "type": "uint256"
        },
        {
          "internalType": "uint256",
          "name": "rentalRate",
          "type": "uint256"
        },
        {
          "internalType": "uint256",
          "name": "depositRequired",
          "type": "uint256"
        },
        {
          "internalType": "address payable",
          "name": "gameOwner",
          "type": "address"
        },
        {
          "internalType": "enum DeSwitch.gameState",
          "name": "state",
          "type": "uint8"
        },
        {
          "internalType": "uint256",
          "name": "timeRentalStart",
          "type": "uint256"
        },
        {
          "internalType": "address payable",
          "name": "gameRenter",
          "type": "address"
        }
      ],
      "payable": false,
      "stateMutability": "view",
      "type": "function"
    },
    {
      "constant": true,
      "inputs": [
        {
          "internalType": "uint256",
          "name": "",
          "type": "uint256"
        }
      ],
      "name": "registerIdList",
      "outputs": [
        {
          "internalType": "address",
          "name": "",
          "type": "address"
        }
      ],
      "payable": false,
      "stateMutability": "view",
      "type": "function"
    },
    {
      "constant": false,
      "inputs": [
        {
          "internalType": "uint256",
          "name": "_gameId",
          "type": "uint256"
        },
        {
          "internalType": "uint256",
          "name": "_rentalRate",
          "type": "uint256"
        },
        {
          "internalType": "uint256",
          "name": "_depositRequired",
          "type": "uint256"
        }
      ],
      "name": "registerGame",
      "outputs": [
        {
          "internalType": "uint256",
          "name": "",
          "type": "uint256"
        },
        {
          "internalType": "uint256",
          "name": "",
          "type": "uint256"
        }
      ],
      "payable": false,
      "stateMutability": "nonpayable",
      "type": "function"
    },
    {
      "constant": true,
      "inputs": [
        {
          "internalType": "uint256",
          "name": "_registerId",
          "type": "uint256"
        }
      ],
      "name": "queryGameStatus",
      "outputs": [
        {
          "internalType": "string",
          "name": "",
          "type": "string"
        }
      ],
      "payable": false,
      "stateMutability": "view",
      "type": "function"
    },
    {
      "constant": false,
      "inputs": [
        {
          "internalType": "uint256",
          "name": "_trackingId",
          "type": "uint256"
        }
      ],
      "name": "rentGame",
      "outputs": [
        {
          "internalType": "string",
          "name": "",
          "type": "string"
        }
      ],
      "payable": true,
      "stateMutability": "payable",
      "type": "function"
    },
    {
      "constant": false,
      "inputs": [
        {
          "internalType": "uint256",
          "name": "_trackingId",
          "type": "uint256"
        }
      ],
      "name": "shipGame",
      "outputs": [
        {
          "internalType": "string",
          "name": "",
          "type": "string"
        }
      ],
      "payable": false,
      "stateMutability": "nonpayable",
      "type": "function"
    },
    {
      "constant": false,
      "inputs": [
        {
          "internalType": "uint256",
          "name": "_trackingId",
          "type": "uint256"
        }
      ],
      "name": "receiveGameRenter",
      "outputs": [
        {
          "internalType": "string",
          "name": "",
          "type": "string"
        }
      ],
      "payable": false,
      "stateMutability": "nonpayable",
      "type": "function"
    },
    {
      "constant": false,
      "inputs": [
        {
          "internalType": "uint256",
          "name": "_trackingId",
          "type": "uint256"
        }
      ],
      "name": "returnGame",
      "outputs": [
        {
          "internalType": "string",
          "name": "",
          "type": "string"
        }
      ],
      "payable": false,
      "stateMutability": "nonpayable",
      "type": "function"
    },
    {
      "constant": false,
      "inputs": [
        {
          "internalType": "uint256",
          "name": "_trackingId",
          "type": "uint256"
        }
      ],
      "name": "receiveGameOwner",
      "outputs": [
        {
          "internalType": "string",
          "name": "",
          "type": "string"
        }
      ],
      "payable": false,
      "stateMutability": "nonpayable",
      "type": "function"
    }
  ],
  "bytecode": "0x6080604052600060025534801561001557600080fd5b50612853806100256000396000f3fe6080604052600436106100865760003560e01c80636f0b97a7116100595780636f0b97a71461018057806379131a19146101bd578063b97b0f2614610201578063f07878581461023e578063f31309721461027b57610086565b80632146d8931461008b5780633a91dff5146100c95780633d1b2101146101065780633e531e0d14610143575b600080fd5b34801561009757600080fd5b506100b260048036036100ad91908101906123c4565b6102ab565b6040516100c09291906124d4565b60405180910390f35b3480156100d557600080fd5b506100f060048036036100eb919081019061239b565b610508565b6040516100fd91906124b2565b60405180910390f35b34801561011257600080fd5b5061012d6004803603610128919081019061239b565b610981565b60405161013a9190612497565b60405180910390f35b34801561014f57600080fd5b5061016a6004803603610165919081019061239b565b6109b4565b60405161017791906124b2565b60405180910390f35b34801561018c57600080fd5b506101a760048036036101a2919081019061239b565b610ffe565b6040516101b491906124b2565b60405180910390f35b3480156101c957600080fd5b506101e460048036036101df9190810190612372565b611477565b6040516101f8989796959493929190612595565b60405180910390f35b34801561020d57600080fd5b506102286004803603610223919081019061239b565b61150c565b60405161023591906124b2565b60405180910390f35b34801561024a57600080fd5b506102656004803603610260919081019061239b565b611985565b60405161027291906124b2565b60405180910390f35b6102956004803603610290919081019061239b565b611dfe565b6040516102a291906124b2565b60405180910390f35b600080600160026000828254019250508190555060405180610100016040528086815260200160025481526020018581526020018481526020013373ffffffffffffffffffffffffffffffffffffffff1681526020016001600681111561030e57fe5b815260200160008152602001600073ffffffffffffffffffffffffffffffffffffffff168152506000803373ffffffffffffffffffffffffffffffffffffffff1673ffffffffffffffffffffffffffffffffffffffff1681526020019081526020016000206000820151816000015560208201518160010155604082015181600201556060820151816003015560808201518160040160006101000a81548173ffffffffffffffffffffffffffffffffffffffff021916908373ffffffffffffffffffffffffffffffffffffffff16021790555060a08201518160040160146101000a81548160ff0219169083600681111561040657fe5b021790555060c0820151816005015560e08201518160060160006101000a81548173ffffffffffffffffffffffffffffffffffffffff021916908373ffffffffffffffffffffffffffffffffffffffff1602179055509050503360016000600254815260200190815260200160002060006101000a81548173ffffffffffffffffffffffffffffffffffffffff021916908373ffffffffffffffffffffffffffffffffffffffff1602179055507f1514ac551452196cfee486346bb313635c81b22c7cc00f5959aabc3d4b9c3a27856002543387876040516104ec959493929190612542565b60405180910390a1600160025481915091509150935093915050565b6060813373ffffffffffffffffffffffffffffffffffffffff166000806001600085815260200190815260200160002060009054906101000a900473ffffffffffffffffffffffffffffffffffffffff1673ffffffffffffffffffffffffffffffffffffffff1673ffffffffffffffffffffffffffffffffffffffff16815260200190815260200160002060060160009054906101000a900473ffffffffffffffffffffffffffffffffffffffff1673ffffffffffffffffffffffffffffffffffffffff16146105d757600080fd5b82600360068111156105e557fe5b6000806001600085815260200190815260200160002060009054906101000a900473ffffffffffffffffffffffffffffffffffffffff1673ffffffffffffffffffffffffffffffffffffffff1673ffffffffffffffffffffffffffffffffffffffff16815260200190815260200160002060040160149054906101000a900460ff16600681111561067257fe5b1461067c57600080fd5b60046000806001600088815260200190815260200160002060009054906101000a900473ffffffffffffffffffffffffffffffffffffffff1673ffffffffffffffffffffffffffffffffffffffff1673ffffffffffffffffffffffffffffffffffffffff16815260200190815260200160002060040160146101000a81548160ff0219169083600681111561070d57fe5b02179055507f8ab866b3478134948c30a0cddaeb95948ec8751c892b6c71b154e255cdd5cec06000806001600088815260200190815260200160002060009054906101000a900473ffffffffffffffffffffffffffffffffffffffff1673ffffffffffffffffffffffffffffffffffffffff1673ffffffffffffffffffffffffffffffffffffffff168152602001908152602001600020600001546000806001600089815260200190815260200160002060009054906101000a900473ffffffffffffffffffffffffffffffffffffffff1673ffffffffffffffffffffffffffffffffffffffff1673ffffffffffffffffffffffffffffffffffffffff16815260200190815260200160002060010154600080600160008a815260200190815260200160002060009054906101000a900473ffffffffffffffffffffffffffffffffffffffff1673ffffffffffffffffffffffffffffffffffffffff1673ffffffffffffffffffffffffffffffffffffffff16815260200190815260200160002060060160009054906101000a900473ffffffffffffffffffffffffffffffffffffffff16600080600160008b815260200190815260200160002060009054906101000a900473ffffffffffffffffffffffffffffffffffffffff1673ffffffffffffffffffffffffffffffffffffffff1673ffffffffffffffffffffffffffffffffffffffff16815260200190815260200160002060040160009054906101000a900473ffffffffffffffffffffffffffffffffffffffff1660405161095794939291906124fd565b60405180910390a16040518060600160405280602681526020016127c86026913992505050919050565b60016020528060005260406000206000915054906101000a900473ffffffffffffffffffffffffffffffffffffffff1681565b6060600060068111156109c357fe5b6000806001600086815260200190815260200160002060009054906101000a900473ffffffffffffffffffffffffffffffffffffffff1673ffffffffffffffffffffffffffffffffffffffff1673ffffffffffffffffffffffffffffffffffffffff16815260200190815260200160002060040160149054906101000a900460ff166006811115610a5057fe5b1415610a93576040518060400160405280600781526020017f496e76616c6964000000000000000000000000000000000000000000000000008152509050610ff9565b60016006811115610aa057fe5b6000806001600086815260200190815260200160002060009054906101000a900473ffffffffffffffffffffffffffffffffffffffff1673ffffffffffffffffffffffffffffffffffffffff1673ffffffffffffffffffffffffffffffffffffffff16815260200190815260200160002060040160149054906101000a900460ff166006811115610b2d57fe5b1415610b70576040518060400160405280600981526020017f417661696c61626c6500000000000000000000000000000000000000000000008152509050610ff9565b60026006811115610b7d57fe5b6000806001600086815260200190815260200160002060009054906101000a900473ffffffffffffffffffffffffffffffffffffffff1673ffffffffffffffffffffffffffffffffffffffff1673ffffffffffffffffffffffffffffffffffffffff16815260200190815260200160002060040160149054906101000a900460ff166006811115610c0a57fe5b1415610c4d576040518060400160405280600881526020017f52657365727665640000000000000000000000000000000000000000000000008152509050610ff9565b60036006811115610c5a57fe5b6000806001600086815260200190815260200160002060009054906101000a900473ffffffffffffffffffffffffffffffffffffffff1673ffffffffffffffffffffffffffffffffffffffff1673ffffffffffffffffffffffffffffffffffffffff16815260200190815260200160002060040160149054906101000a900460ff166006811115610ce757fe5b1415610d2a576040518060400160405280600f81526020017f53686970706564546f52656e74657200000000000000000000000000000000008152509050610ff9565b60046006811115610d3757fe5b6000806001600086815260200190815260200160002060009054906101000a900473ffffffffffffffffffffffffffffffffffffffff1673ffffffffffffffffffffffffffffffffffffffff1673ffffffffffffffffffffffffffffffffffffffff16815260200190815260200160002060040160149054906101000a900460ff166006811115610dc457fe5b1415610e07576040518060400160405280600681526020017f52656e74656400000000000000000000000000000000000000000000000000008152509050610ff9565b60056006811115610e1457fe5b6000806001600086815260200190815260200160002060009054906101000a900473ffffffffffffffffffffffffffffffffffffffff1673ffffffffffffffffffffffffffffffffffffffff1673ffffffffffffffffffffffffffffffffffffffff16815260200190815260200160002060040160149054906101000a900460ff166006811115610ea157fe5b1415610ee4576040518060400160405280600e81526020017f53686970706564546f4f776e65720000000000000000000000000000000000008152509050610ff9565b600680811115610ef057fe5b6000806001600086815260200190815260200160002060009054906101000a900473ffffffffffffffffffffffffffffffffffffffff1673ffffffffffffffffffffffffffffffffffffffff1673ffffffffffffffffffffffffffffffffffffffff16815260200190815260200160002060040160149054906101000a900460ff166006811115610f7d57fe5b1415610fc0576040518060400160405280600f81526020017f52656e74616c436f6d706c6574656400000000000000000000000000000000008152509050610ff9565b6040518060400160405280600781526020017f496e76616c69640000000000000000000000000000000000000000000000000081525090505b919050565b6060813373ffffffffffffffffffffffffffffffffffffffff166000806001600085815260200190815260200160002060009054906101000a900473ffffffffffffffffffffffffffffffffffffffff1673ffffffffffffffffffffffffffffffffffffffff1673ffffffffffffffffffffffffffffffffffffffff16815260200190815260200160002060040160009054906101000a900473ffffffffffffffffffffffffffffffffffffffff1673ffffffffffffffffffffffffffffffffffffffff16146110cd57600080fd5b82600260068111156110db57fe5b6000806001600085815260200190815260200160002060009054906101000a900473ffffffffffffffffffffffffffffffffffffffff1673ffffffffffffffffffffffffffffffffffffffff1673ffffffffffffffffffffffffffffffffffffffff16815260200190815260200160002060040160149054906101000a900460ff16600681111561116857fe5b1461117257600080fd5b60036000806001600088815260200190815260200160002060009054906101000a900473ffffffffffffffffffffffffffffffffffffffff1673ffffffffffffffffffffffffffffffffffffffff1673ffffffffffffffffffffffffffffffffffffffff16815260200190815260200160002060040160146101000a81548160ff0219169083600681111561120357fe5b02179055507fb7335d34db340366ad91abf4d197c60a7d7bc92e71c0daaa7cd400a1254cad326000806001600088815260200190815260200160002060009054906101000a900473ffffffffffffffffffffffffffffffffffffffff1673ffffffffffffffffffffffffffffffffffffffff1673ffffffffffffffffffffffffffffffffffffffff168152602001908152602001600020600001546000806001600089815260200190815260200160002060009054906101000a900473ffffffffffffffffffffffffffffffffffffffff1673ffffffffffffffffffffffffffffffffffffffff1673ffffffffffffffffffffffffffffffffffffffff16815260200190815260200160002060010154600080600160008a815260200190815260200160002060009054906101000a900473ffffffffffffffffffffffffffffffffffffffff1673ffffffffffffffffffffffffffffffffffffffff1673ffffffffffffffffffffffffffffffffffffffff16815260200190815260200160002060060160009054906101000a900473ffffffffffffffffffffffffffffffffffffffff16600080600160008b815260200190815260200160002060009054906101000a900473ffffffffffffffffffffffffffffffffffffffff1673ffffffffffffffffffffffffffffffffffffffff1673ffffffffffffffffffffffffffffffffffffffff16815260200190815260200160002060040160009054906101000a900473ffffffffffffffffffffffffffffffffffffffff1660405161144d94939291906124fd565b60405180910390a16040518060600160405280602381526020016127ee6023913992505050919050565b60006020528060005260406000206000915090508060000154908060010154908060020154908060030154908060040160009054906101000a900473ffffffffffffffffffffffffffffffffffffffff16908060040160149054906101000a900460ff16908060050154908060060160009054906101000a900473ffffffffffffffffffffffffffffffffffffffff16905088565b6060813373ffffffffffffffffffffffffffffffffffffffff166000806001600085815260200190815260200160002060009054906101000a900473ffffffffffffffffffffffffffffffffffffffff1673ffffffffffffffffffffffffffffffffffffffff1673ffffffffffffffffffffffffffffffffffffffff16815260200190815260200160002060040160009054906101000a900473ffffffffffffffffffffffffffffffffffffffff1673ffffffffffffffffffffffffffffffffffffffff16146115db57600080fd5b82600560068111156115e957fe5b6000806001600085815260200190815260200160002060009054906101000a900473ffffffffffffffffffffffffffffffffffffffff1673ffffffffffffffffffffffffffffffffffffffff1673ffffffffffffffffffffffffffffffffffffffff16815260200190815260200160002060040160149054906101000a900460ff16600681111561167657fe5b1461168057600080fd5b60066000806001600088815260200190815260200160002060009054906101000a900473ffffffffffffffffffffffffffffffffffffffff1673ffffffffffffffffffffffffffffffffffffffff1673ffffffffffffffffffffffffffffffffffffffff16815260200190815260200160002060040160146101000a81548160ff0219169083600681111561171157fe5b02179055507fcb58afe26b749825f76600180a359c75d8f4edffc4eaf319c0663ddc92707c2c6000806001600088815260200190815260200160002060009054906101000a900473ffffffffffffffffffffffffffffffffffffffff1673ffffffffffffffffffffffffffffffffffffffff1673ffffffffffffffffffffffffffffffffffffffff168152602001908152602001600020600001546000806001600089815260200190815260200160002060009054906101000a900473ffffffffffffffffffffffffffffffffffffffff1673ffffffffffffffffffffffffffffffffffffffff1673ffffffffffffffffffffffffffffffffffffffff16815260200190815260200160002060010154600080600160008a815260200190815260200160002060009054906101000a900473ffffffffffffffffffffffffffffffffffffffff1673ffffffffffffffffffffffffffffffffffffffff1673ffffffffffffffffffffffffffffffffffffffff16815260200190815260200160002060060160009054906101000a900473ffffffffffffffffffffffffffffffffffffffff16600080600160008b815260200190815260200160002060009054906101000a900473ffffffffffffffffffffffffffffffffffffffff1673ffffffffffffffffffffffffffffffffffffffff1673ffffffffffffffffffffffffffffffffffffffff16815260200190815260200160002060040160009054906101000a900473ffffffffffffffffffffffffffffffffffffffff1660405161195b94939291906124fd565b60405180910390a16040518060600160405280603d815260200161278b603d913992505050919050565b6060813373ffffffffffffffffffffffffffffffffffffffff166000806001600085815260200190815260200160002060009054906101000a900473ffffffffffffffffffffffffffffffffffffffff1673ffffffffffffffffffffffffffffffffffffffff1673ffffffffffffffffffffffffffffffffffffffff16815260200190815260200160002060060160009054906101000a900473ffffffffffffffffffffffffffffffffffffffff1673ffffffffffffffffffffffffffffffffffffffff1614611a5457600080fd5b8260046006811115611a6257fe5b6000806001600085815260200190815260200160002060009054906101000a900473ffffffffffffffffffffffffffffffffffffffff1673ffffffffffffffffffffffffffffffffffffffff1673ffffffffffffffffffffffffffffffffffffffff16815260200190815260200160002060040160149054906101000a900460ff166006811115611aef57fe5b14611af957600080fd5b60056000806001600088815260200190815260200160002060009054906101000a900473ffffffffffffffffffffffffffffffffffffffff1673ffffffffffffffffffffffffffffffffffffffff1673ffffffffffffffffffffffffffffffffffffffff16815260200190815260200160002060040160146101000a81548160ff02191690836006811115611b8a57fe5b02179055507f21077aa5509028db270d4a455a256c98b45637712e8bfd87367bae928139d6a86000806001600088815260200190815260200160002060009054906101000a900473ffffffffffffffffffffffffffffffffffffffff1673ffffffffffffffffffffffffffffffffffffffff1673ffffffffffffffffffffffffffffffffffffffff168152602001908152602001600020600001546000806001600089815260200190815260200160002060009054906101000a900473ffffffffffffffffffffffffffffffffffffffff1673ffffffffffffffffffffffffffffffffffffffff1673ffffffffffffffffffffffffffffffffffffffff16815260200190815260200160002060010154600080600160008a815260200190815260200160002060009054906101000a900473ffffffffffffffffffffffffffffffffffffffff1673ffffffffffffffffffffffffffffffffffffffff1673ffffffffffffffffffffffffffffffffffffffff16815260200190815260200160002060060160009054906101000a900473ffffffffffffffffffffffffffffffffffffffff16600080600160008b815260200190815260200160002060009054906101000a900473ffffffffffffffffffffffffffffffffffffffff1673ffffffffffffffffffffffffffffffffffffffff1673ffffffffffffffffffffffffffffffffffffffff16815260200190815260200160002060040160009054906101000a900473ffffffffffffffffffffffffffffffffffffffff16604051611dd494939291906124fd565b60405180910390a16040518060600160405280603381526020016127586033913992505050919050565b6060813373ffffffffffffffffffffffffffffffffffffffff166000806001600085815260200190815260200160002060009054906101000a900473ffffffffffffffffffffffffffffffffffffffff1673ffffffffffffffffffffffffffffffffffffffff1673ffffffffffffffffffffffffffffffffffffffff16815260200190815260200160002060040160009054906101000a900473ffffffffffffffffffffffffffffffffffffffff1673ffffffffffffffffffffffffffffffffffffffff161415611ece57600080fd5b8260016006811115611edc57fe5b6000806001600085815260200190815260200160002060009054906101000a900473ffffffffffffffffffffffffffffffffffffffff1673ffffffffffffffffffffffffffffffffffffffff1673ffffffffffffffffffffffffffffffffffffffff16815260200190815260200160002060040160149054906101000a900460ff166006811115611f6957fe5b14611f7357600080fd5b60026000806001600088815260200190815260200160002060009054906101000a900473ffffffffffffffffffffffffffffffffffffffff1673ffffffffffffffffffffffffffffffffffffffff1673ffffffffffffffffffffffffffffffffffffffff16815260200190815260200160002060040160146101000a81548160ff0219169083600681111561200457fe5b0217905550336000806001600088815260200190815260200160002060009054906101000a900473ffffffffffffffffffffffffffffffffffffffff1673ffffffffffffffffffffffffffffffffffffffff1673ffffffffffffffffffffffffffffffffffffffff16815260200190815260200160002060060160006101000a81548173ffffffffffffffffffffffffffffffffffffffff021916908373ffffffffffffffffffffffffffffffffffffffff1602179055507f5f5e84ee3f1fe881bcade10467f28456711c7cd4c7aca7e5ebde1bb8d0f1ffca6000806001600088815260200190815260200160002060009054906101000a900473ffffffffffffffffffffffffffffffffffffffff1673ffffffffffffffffffffffffffffffffffffffff1673ffffffffffffffffffffffffffffffffffffffff168152602001908152602001600020600001546000806001600089815260200190815260200160002060009054906101000a900473ffffffffffffffffffffffffffffffffffffffff1673ffffffffffffffffffffffffffffffffffffffff1673ffffffffffffffffffffffffffffffffffffffff16815260200190815260200160002060010154600080600160008a815260200190815260200160002060009054906101000a900473ffffffffffffffffffffffffffffffffffffffff1673ffffffffffffffffffffffffffffffffffffffff1673ffffffffffffffffffffffffffffffffffffffff16815260200190815260200160002060060160009054906101000a900473ffffffffffffffffffffffffffffffffffffffff16600080600160008b815260200190815260200160002060009054906101000a900473ffffffffffffffffffffffffffffffffffffffff1673ffffffffffffffffffffffffffffffffffffffff1673ffffffffffffffffffffffffffffffffffffffff16815260200190815260200160002060040160009054906101000a900473ffffffffffffffffffffffffffffffffffffffff1660405161230194939291906124fd565b60405180910390a16040518060400160405280601381526020017f7375636365737366756c6c792072656e7465640000000000000000000000000081525092505050919050565b60008135905061235781612729565b92915050565b60008135905061236c81612740565b92915050565b60006020828403121561238457600080fd5b600061239284828501612348565b91505092915050565b6000602082840312156123ad57600080fd5b60006123bb8482850161235d565b91505092915050565b6000806000606084860312156123d957600080fd5b60006123e78682870161235d565b93505060206123f88682870161235d565b92505060406124098682870161235d565b9150509250925092565b61241c81612690565b82525050565b61242b81612641565b82525050565b61243a8161262f565b82525050565b612449816126a2565b82525050565b600061245a82612613565b612464818561261e565b93506124748185602086016126d8565b61247d8161270b565b840191505092915050565b61249181612686565b82525050565b60006020820190506124ac6000830184612431565b92915050565b600060208201905081810360008301526124cc818461244f565b905092915050565b60006040820190506124e96000830185612488565b6124f66020830184612488565b9392505050565b60006080820190506125126000830187612488565b61251f6020830186612488565b61252c6040830185612413565b6125396060830184612413565b95945050505050565b600060a0820190506125576000830188612488565b6125646020830187612488565b6125716040830186612413565b61257e6060830185612488565b61258b6080830184612488565b9695505050505050565b6000610100820190506125ab600083018b612488565b6125b8602083018a612488565b6125c56040830189612488565b6125d26060830188612488565b6125df6080830187612422565b6125ec60a0830186612440565b6125f960c0830185612488565b61260660e0830184612422565b9998505050505050505050565b600081519050919050565b600082825260208201905092915050565b600061263a82612666565b9050919050565b600061264c82612666565b9050919050565b60008190506126618261271c565b919050565b600073ffffffffffffffffffffffffffffffffffffffff82169050919050565b6000819050919050565b600061269b826126b4565b9050919050565b60006126ad82612653565b9050919050565b60006126bf826126c6565b9050919050565b60006126d182612666565b9050919050565b60005b838110156126f65780820151818401526020810190506126db565b83811115612705576000848401525b50505050565b6000601f19601f8301169050919050565b6007811061272657fe5b50565b6127328161262f565b811461273d57600080fd5b50565b61274981612686565b811461275457600080fd5b5056fe7375636365737366756c6c792073686970706564207468652072656e7465642067616d65206261636b20746f206f776e657221546865206f776e6572207375636365737366756c6c79207265636569766564207468652067616d652e2052656e74616c20697320636f6d706c6574652e7375636365737366756c6c79207265636569766564207468652072656e7465642067616d65217375636365737366756c6c7920736869707065642072657365727665642067616d6521a365627a7a72315820408f982797b972a7fc8d85cb8fee63b7fc0fa9c902c8ca447a14ef92d19bc4c46c6578706572696d656e74616cf564736f6c63430005100040",
  "source": "// SPDX-License-Identifier: MIT\npragma solidity >=0.4.22 <0.9.0;\npragma experimental ABIEncoderV2;\n\n\n\ncontract DeSwitch {\n  event LogForGameRegistered(uint gameId, uint registerId, address gameOwnerAddress, uint rentalRate, uint depositRequired);\n  event LogForGameRentalRequested(uint gameId, uint registerId, address gameRenter, address gameOwnerAddress);\n  event LogForGameShippedToRenter(uint gameId, uint registerId, address gameRenter, address gameOwnerAddress);\n  event LogForGameReceivedByRenter(uint gameId, uint registerId, address gameRenter, address gameOwnerAddress);\n  event LogForGameShippedToOwner(uint gameId, uint registerId, address gameRenter, address gameOwnerAddress);\n  event LogForGameReceivedByOwner(uint gameId, uint registerId, address gameRenter, address gameOwnerAddress);\n  enum gameState {\n    Invalid,\n    Available,\n    Reserved,\n    ShippedToRenter,\n    Rented,\n    ShippedToOwner,\n    RentalCompleted\n  }\n\n  struct Game{\n    uint gameid;\n    uint gregisterId;\n    uint rentalRate;\n    uint depositRequired;\n    address payable gameOwner;\n    gameState state;\n    uint timeRentalStart;\n    address payable gameRenter;\n  }\n\n  \n  mapping (address => Game) public games;\n  mapping (uint => address) public registerIdList;\n\n  // mapping (uint => Game) public games;\n  uint registerId = 0 ;\n\n  \n    constructor() public {\n  }\n  \n  modifier notGameOwner(uint _trackingId) {\n    require(games[registerIdList[_trackingId]].gameOwner != msg.sender);\n    // require(games[registerIdList[_trackingId]].gameOwner != msg.sender);\n    _;\n  }\n\n  modifier isGameOwner(uint _trackingId) {\n    require(games[registerIdList[_trackingId]].gameOwner == msg.sender);\n    _;\n  }\n\n  modifier isGameRenter(uint _trackingId) {\n    require(games[registerIdList[_trackingId]].gameRenter == msg.sender);\n    _;\n  }\n\n  modifier isAvailableGame(uint _trackingId){\n    require(games[registerIdList[_trackingId]].state == gameState.Available);\n    _;\n  }\n\n  modifier isShippedToRenterGame(uint _trackingId){\n    require(games[registerIdList[_trackingId]].state == gameState.ShippedToRenter);\n    _;\n  }\n  \n  modifier isReservedGame(uint _trackingId){\n    require(games[registerIdList[_trackingId]].state == gameState.Reserved);\n    _;\n  }\n\n  modifier isRentedGame(uint _trackingId){\n    require(games[registerIdList[_trackingId]].state == gameState.Rented);\n    _;\n  }\n\n  modifier isShippedToOwnerGame(uint _trackingId){\n    require(games[registerIdList[_trackingId]].state == gameState.ShippedToOwner);\n    _;\n  }\n\n  function registerGame(uint _gameId, uint _rentalRate, uint _depositRequired) public returns(uint, uint){\n    //should be a public function as anyone should be able to put their game for sale/rental\n    //Users register games they own (Ex. Switch Games) as \"Available\"\n    //GameID refers to gameId from http://nswdb.com/ to avoid confusion between different game titles\n    //Require checks for validity of values submitted for required arguments\n    //Set gameState as \"Available\"\n    //Set gameOwner as msg.sender\n    //Set gameBuyer and gameRenter will be empty and get updated once a buyer triggers the rentGame function\n    //returns true/false if registeration was successful and a trackingId tagged to the registered game\n    //Increase the registerId counter by 1 so that the next game gets registered with the next registerId.\n    //Consider hashing/randomizing instead of incremental values, can consider sha256(msg.sender+registerID)\n    registerId += 1;\n    //Create a Game struct with the provided values and add it to the address -> game mapping\n    games[msg.sender] = Game({\n      gameid : _gameId,\n      gregisterId : registerId,\n      rentalRate : _rentalRate,\n      depositRequired : _depositRequired,\n      gameOwner : msg.sender,\n      state : gameState.Available,\n      timeRentalStart : 0,\n      gameRenter : address(0)\n    });\n\n    //add to the mapping registerId -> Owner Address\n    registerIdList[registerId] = msg.sender;\n\n    //Emits appropriate event to log the chagnes \n    emit LogForGameRegistered(_gameId, registerId, msg.sender, _rentalRate, _depositRequired);\n    return (1, registerId);\n  }\n\n  function queryGameStatus(uint _registerId) public view returns(string memory){\n    // function queryGameStatus(uint _registerId) public view returns(gameState){\n    // Game[] memory gameList = new Game[](registerId);\n    // for (uint i = 0; i < registerId; i++){\n      \n    //   gameList[i] = games[registerIdList[0]];\n    // }\n    // return gameList;\n\n\n    // Available,\n    // Shipped,\n    // Rented,\n    // Sold\n     // Loop through possible options\n    if (games[registerIdList[_registerId]].state == gameState.Invalid) return \"Invalid\";\n    if (games[registerIdList[_registerId]].state == gameState.Available) return \"Available\";\n    if (games[registerIdList[_registerId]].state == gameState.Reserved) return \"Reserved\";\n    if (games[registerIdList[_registerId]].state == gameState.ShippedToRenter) return \"ShippedToRenter\";\n    if (games[registerIdList[_registerId]].state == gameState.Rented) return \"Rented\";\n    if (games[registerIdList[_registerId]].state == gameState.ShippedToOwner) return \"ShippedToOwner\";\n    if (games[registerIdList[_registerId]].state == gameState.RentalCompleted) return \"RentalCompleted\";\n    // else return \"Invalid\";\n    return \"Invalid\";\n\n    // Invalid,\n    // Available,\n    // Reserved,\n    // ShippedToRenter,\n    // Rented,\n    // ShippedToOwner,\n    // RentalCompleted\n  }\n\n  function rentGame(uint _trackingId) public payable notGameOwner(_trackingId) isAvailableGame(_trackingId) returns(string memory) {\n    //should be \"payable\" as this requires ether to be transffered to the contract\n    //should be \"public\" as anyone should be able to rent the game \n    //Verify the state of trackingId to be \"Available\" using a modifier\n    //return true or false if the rentGame attempt was successful\n    //check if msg.value == games[trackingId].rentalRate\n    //at the end of this function the state of the Game should be set to \"TransactionInProgress\"\n    \n    games[registerIdList[_trackingId]].state = gameState.Reserved;\n    games[registerIdList[_trackingId]].gameRenter = msg.sender;\n    // games[registerIdList[_trackignId]]\n\n    //Emit event\n    // event LogForGameRentalRequested(uint gameId, uint registerId, address gameRenter, address gameOwnerAddress);\n    emit LogForGameRentalRequested(games[registerIdList[_trackingId]].gameid, games[registerIdList[_trackingId]].gregisterId, games[registerIdList[_trackingId]].gameRenter, games[registerIdList[_trackingId]].gameOwner);\n    return \"successfully rented\";\n  }\n\n  // function buyGame(uint trackingId) public payable returns(bool){\n  //   //should be \"payable\" as this requires ether to be transffered to the contract\n  //   //should be \"public\" as anyone should be able to buy the game \n  //   //Verify the state of trackingId to be either \"Available\" using a modifier\n  //   //return true or false if the rentGame attempt was successful\n  //   //check if msg.value == games[trackingId].sellRate\n  //   //at the end of this function the state of the Game should be set to \"TransactionInProgress\"\n  // }\n\n  function shipGame(uint _trackingId) public isGameOwner(_trackingId) isReservedGame(_trackingId) returns(string memory){\n    //To be called by the gameOwner to account for state update to \"Shipped\"\n    //Only the gameOwner with same account address as games[trackingId].gameOnwer can execute this function\n    //Require the games[trackingId].state to be \"AvailableForRent\" or \"AvailableForBuy\"\n    games[registerIdList[_trackingId]].state = gameState.ShippedToRenter;\n    emit LogForGameShippedToRenter(games[registerIdList[_trackingId]].gameid, games[registerIdList[_trackingId]].gregisterId, games[registerIdList[_trackingId]].gameRenter, games[registerIdList[_trackingId]].gameOwner);\n    return \"successfully shipped reserved game!\";\n\n  } \n\n  function receiveGameRenter(uint _trackingId) public isGameRenter(_trackingId) isShippedToRenterGame(_trackingId) returns(string memory){\n    //To be called by the gameBuyer or gameRenter to account for state change to \"Rented\" or \"Sold\"\n    //This function triggers payment to the gameOwner address if the transaction completed was \"buy\" instead of \"rent\"\n    //This function makes the time to be loggged as the start of rental as timeRentalStart\n    games[registerIdList[_trackingId]].state = gameState.Rented;\n    emit LogForGameReceivedByRenter(games[registerIdList[_trackingId]].gameid, games[registerIdList[_trackingId]].gregisterId, games[registerIdList[_trackingId]].gameRenter, games[registerIdList[_trackingId]].gameOwner);\n    return \"successfully received the rented game!\";\n  }\n\n  function returnGame(uint _trackingId) public isGameRenter(_trackingId) isRentedGame(_trackingId) returns(string memory){\n    //To be called buy the owner once the game has returned in good condition.\n    //This function returns the deposit (Totaldeposit - rental fee) from the smart Contract to the renter\n    //To trigger payment function to the gameOwner for the rental fee\n    games[registerIdList[_trackingId]].state = gameState.ShippedToOwner;\n    emit LogForGameShippedToOwner(games[registerIdList[_trackingId]].gameid, games[registerIdList[_trackingId]].gregisterId, games[registerIdList[_trackingId]].gameRenter, games[registerIdList[_trackingId]].gameOwner);\n    return \"successfully shipped the rented game back to owner!\";\n  }\n\n  function receiveGameOwner(uint _trackingId) public isGameOwner(_trackingId) isShippedToOwnerGame(_trackingId) returns(string memory){\n    //To be called by the gameOwner to account for state change when the game is returned by the renter.\n    //This function triggers payment to the gameOwner address if the transaction completed was \"buy\" instead of \"rent\"\n    //This function makes the time to be loggged as the start of rental as timeRentalStart\n    games[registerIdList[_trackingId]].state = gameState.RentalCompleted;\n    emit LogForGameReceivedByOwner(games[registerIdList[_trackingId]].gameid, games[registerIdList[_trackingId]].gregisterId, games[registerIdList[_trackingId]].gameRenter, games[registerIdList[_trackingId]].gameOwner);\n    return \"The owner successfully received the game. Rental is complete.\";\n  }\n\n}\n",
  "sourcePath": "/home/dabin/consensys/blockchain-developer-bootcamp-final-project/contracts/DeSwitch.sol",
  "compiler": {
    "name": "solc",
    "version": "0.5.16+commit.9c3226ce.Emscripten.clang"
  },
  "schemaVersion": "3.4.3",
  "updatedAt": "2021-11-09T21:00:16.023Z",
  "devdoc": {
    "methods": {}
  },
  "userdoc": {
    "methods": {}
  }
}