{
  "contractName": "DeSwitch",
  "abi": [
    {
      "inputs": [],
      "payable": false,
      "stateMutability": "nonpayable",
      "type": "constructor"
    },
    {
      "anonymous": false,
      "inputs": [
        {
          "indexed": false,
          "internalType": "address",
          "name": "ownerAddress",
          "type": "address"
        },
        {
          "indexed": false,
          "internalType": "uint256",
          "name": "increaseValue",
          "type": "uint256"
        },
        {
          "indexed": false,
          "internalType": "uint256",
          "name": "newBalance",
          "type": "uint256"
        }
      ],
      "name": "LogForConfirmedBalanceIncrease",
      "type": "event"
    },
    {
      "anonymous": false,
      "inputs": [
        {
          "indexed": false,
          "internalType": "uint256",
          "name": "gameId",
          "type": "uint256"
        },
        {
          "indexed": false,
          "internalType": "uint256",
          "name": "registerId",
          "type": "uint256"
        },
        {
          "indexed": false,
          "internalType": "address",
          "name": "gameRenter",
          "type": "address"
        },
        {
          "indexed": false,
          "internalType": "address",
          "name": "gameOwnerAddress",
          "type": "address"
        }
      ],
      "name": "LogForGameReceivedByOwner",
      "type": "event"
    },
    {
      "anonymous": false,
      "inputs": [
        {
          "indexed": false,
          "internalType": "uint256",
          "name": "gameId",
          "type": "uint256"
        },
        {
          "indexed": false,
          "internalType": "uint256",
          "name": "registerId",
          "type": "uint256"
        },
        {
          "indexed": false,
          "internalType": "address",
          "name": "gameRenter",
          "type": "address"
        },
        {
          "indexed": false,
          "internalType": "address",
          "name": "gameOwnerAddress",
          "type": "address"
        }
      ],
      "name": "LogForGameReceivedByRenter",
      "type": "event"
    },
    {
      "anonymous": false,
      "inputs": [
        {
          "indexed": false,
          "internalType": "uint256",
          "name": "gameId",
          "type": "uint256"
        },
        {
          "indexed": false,
          "internalType": "uint256",
          "name": "registerId",
          "type": "uint256"
        },
        {
          "indexed": false,
          "internalType": "address",
          "name": "gameOwnerAddress",
          "type": "address"
        },
        {
          "indexed": false,
          "internalType": "uint256",
          "name": "rentalRate",
          "type": "uint256"
        },
        {
          "indexed": false,
          "internalType": "uint256",
          "name": "depositRequired",
          "type": "uint256"
        }
      ],
      "name": "LogForGameRegistered",
      "type": "event"
    },
    {
      "anonymous": false,
      "inputs": [
        {
          "indexed": false,
          "internalType": "uint256",
          "name": "gameId",
          "type": "uint256"
        },
        {
          "indexed": false,
          "internalType": "uint256",
          "name": "registerId",
          "type": "uint256"
        },
        {
          "indexed": false,
          "internalType": "address",
          "name": "gameRenter",
          "type": "address"
        },
        {
          "indexed": false,
          "internalType": "address",
          "name": "gameOwnerAddress",
          "type": "address"
        }
      ],
      "name": "LogForGameRentalRequested",
      "type": "event"
    },
    {
      "anonymous": false,
      "inputs": [
        {
          "indexed": false,
          "internalType": "uint256",
          "name": "gameId",
          "type": "uint256"
        },
        {
          "indexed": false,
          "internalType": "uint256",
          "name": "registerId",
          "type": "uint256"
        },
        {
          "indexed": false,
          "internalType": "address",
          "name": "gameRenter",
          "type": "address"
        },
        {
          "indexed": false,
          "internalType": "address",
          "name": "gameOwnerAddress",
          "type": "address"
        }
      ],
      "name": "LogForGameShippedToOwner",
      "type": "event"
    },
    {
      "anonymous": false,
      "inputs": [
        {
          "indexed": false,
          "internalType": "uint256",
          "name": "gameId",
          "type": "uint256"
        },
        {
          "indexed": false,
          "internalType": "uint256",
          "name": "registerId",
          "type": "uint256"
        },
        {
          "indexed": false,
          "internalType": "address",
          "name": "gameRenter",
          "type": "address"
        },
        {
          "indexed": false,
          "internalType": "address",
          "name": "gameOwnerAddress",
          "type": "address"
        }
      ],
      "name": "LogForGameShippedToRenter",
      "type": "event"
    },
    {
      "anonymous": false,
      "inputs": [
        {
          "indexed": false,
          "internalType": "address",
          "name": "ownerAddress",
          "type": "address"
        },
        {
          "indexed": false,
          "internalType": "uint256",
          "name": "increaseValue",
          "type": "uint256"
        },
        {
          "indexed": false,
          "internalType": "uint256",
          "name": "newBalance",
          "type": "uint256"
        }
      ],
      "name": "LogForPendingBalanceIncrease",
      "type": "event"
    },
    {
      "constant": true,
      "inputs": [
        {
          "internalType": "address",
          "name": "",
          "type": "address"
        }
      ],
      "name": "confirmedBalances",
      "outputs": [
        {
          "internalType": "uint256",
          "name": "",
          "type": "uint256"
        }
      ],
      "payable": false,
      "stateMutability": "view",
      "type": "function"
    },
    {
      "constant": true,
      "inputs": [
        {
          "internalType": "uint256",
          "name": "",
          "type": "uint256"
        }
      ],
      "name": "games",
      "outputs": [
        {
          "internalType": "uint256",
          "name": "gameid",
          "type": "uint256"
        },
        {
          "internalType": "uint256",
          "name": "gregisterId",
          "type": "uint256"
        },
        {
          "internalType": "uint256",
          "name": "rentalRate",
          "type": "uint256"
        },
        {
          "internalType": "uint256",
          "name": "depositRequired",
          "type": "uint256"
        },
        {
          "internalType": "address payable",
          "name": "gameOwner",
          "type": "address"
        },
        {
          "internalType": "enum DeSwitch.gameState",
          "name": "state",
          "type": "uint8"
        },
        {
          "internalType": "uint256",
          "name": "timeRentalStart",
          "type": "uint256"
        },
        {
          "internalType": "address payable",
          "name": "gameRenter",
          "type": "address"
        }
      ],
      "payable": false,
      "stateMutability": "view",
      "type": "function"
    },
    {
      "constant": true,
      "inputs": [
        {
          "internalType": "address",
          "name": "",
          "type": "address"
        }
      ],
      "name": "pendingBalances",
      "outputs": [
        {
          "internalType": "uint256",
          "name": "",
          "type": "uint256"
        }
      ],
      "payable": false,
      "stateMutability": "view",
      "type": "function"
    },
    {
      "constant": true,
      "inputs": [],
      "name": "queryGameCount",
      "outputs": [
        {
          "internalType": "uint256",
          "name": "",
          "type": "uint256"
        }
      ],
      "payable": false,
      "stateMutability": "view",
      "type": "function"
    },
    {
      "constant": false,
      "inputs": [
        {
          "internalType": "uint256",
          "name": "_gameId",
          "type": "uint256"
        },
        {
          "internalType": "uint256",
          "name": "_rentalRate",
          "type": "uint256"
        },
        {
          "internalType": "uint256",
          "name": "_depositRequired",
          "type": "uint256"
        }
      ],
      "name": "registerGame",
      "outputs": [
        {
          "internalType": "uint256",
          "name": "",
          "type": "uint256"
        },
        {
          "internalType": "uint256",
          "name": "",
          "type": "uint256"
        }
      ],
      "payable": false,
      "stateMutability": "nonpayable",
      "type": "function"
    },
    {
      "constant": true,
      "inputs": [
        {
          "internalType": "uint256",
          "name": "_trackingId",
          "type": "uint256"
        }
      ],
      "name": "queryGameStatusbyTI",
      "outputs": [
        {
          "internalType": "string",
          "name": "",
          "type": "string"
        }
      ],
      "payable": false,
      "stateMutability": "view",
      "type": "function"
    },
    {
      "constant": true,
      "inputs": [
        {
          "internalType": "address",
          "name": "_address",
          "type": "address"
        }
      ],
      "name": "queryBalance",
      "outputs": [
        {
          "internalType": "uint256",
          "name": "",
          "type": "uint256"
        },
        {
          "internalType": "uint256",
          "name": "",
          "type": "uint256"
        }
      ],
      "payable": false,
      "stateMutability": "view",
      "type": "function"
    },
    {
      "constant": true,
      "inputs": [
        {
          "internalType": "uint256",
          "name": "_trackingId",
          "type": "uint256"
        }
      ],
      "name": "queryGamePricebyTI",
      "outputs": [
        {
          "internalType": "uint256",
          "name": "",
          "type": "uint256"
        },
        {
          "internalType": "uint256",
          "name": "",
          "type": "uint256"
        }
      ],
      "payable": false,
      "stateMutability": "view",
      "type": "function"
    },
    {
      "constant": false,
      "inputs": [
        {
          "internalType": "uint256",
          "name": "_trackingId",
          "type": "uint256"
        }
      ],
      "name": "rentGame",
      "outputs": [
        {
          "internalType": "string",
          "name": "",
          "type": "string"
        }
      ],
      "payable": true,
      "stateMutability": "payable",
      "type": "function"
    },
    {
      "constant": false,
      "inputs": [
        {
          "internalType": "uint256",
          "name": "_trackingId",
          "type": "uint256"
        }
      ],
      "name": "shipGame",
      "outputs": [
        {
          "internalType": "string",
          "name": "",
          "type": "string"
        }
      ],
      "payable": false,
      "stateMutability": "nonpayable",
      "type": "function"
    },
    {
      "constant": false,
      "inputs": [
        {
          "internalType": "uint256",
          "name": "_trackingId",
          "type": "uint256"
        }
      ],
      "name": "receiveGameRenter",
      "outputs": [
        {
          "internalType": "string",
          "name": "",
          "type": "string"
        }
      ],
      "payable": false,
      "stateMutability": "nonpayable",
      "type": "function"
    },
    {
      "constant": false,
      "inputs": [
        {
          "internalType": "uint256",
          "name": "_trackingId",
          "type": "uint256"
        }
      ],
      "name": "returnGame",
      "outputs": [
        {
          "internalType": "string",
          "name": "",
          "type": "string"
        }
      ],
      "payable": false,
      "stateMutability": "nonpayable",
      "type": "function"
    },
    {
      "constant": false,
      "inputs": [
        {
          "internalType": "uint256",
          "name": "_trackingId",
          "type": "uint256"
        }
      ],
      "name": "receiveGameOwner",
      "outputs": [
        {
          "internalType": "string",
          "name": "",
          "type": "string"
        }
      ],
      "payable": false,
      "stateMutability": "nonpayable",
      "type": "function"
    }
  ],
  "bytecode": "0x6080604052600060035534801561001557600080fd5b50612159806100256000396000f3fe6080604052600436106100c25760003560e01c8063428f68221161007f578063b97b0f2611610059578063b97b0f26146102e4578063ecdae41b14610321578063f07878581461035e578063f31309721461039b576100c2565b8063428f68221461022d57806369742aa81461026a5780636f0b97a7146102a7576100c2565b8063117a5b90146100c757806314efee001461010b5780632146d893146101365780632d191d851461017457806337f42841146101b25780633a91dff5146101f0575b600080fd5b3480156100d357600080fd5b506100ee60048036036100e99190810190611823565b6103cb565b604051610102989796959493929190611e9b565b60405180910390f35b34801561011757600080fd5b50610120610460565b60405161012d9190611dbf565b60405180910390f35b34801561014257600080fd5b5061015d6004803603610158919081019061184c565b61046a565b60405161016b929190611dda565b60405180910390f35b34801561018057600080fd5b5061019b60048036036101969190810190611823565b610645565b6040516101a9929190611dda565b60405180910390f35b3480156101be57600080fd5b506101d960048036036101d491908101906117fa565b61067d565b6040516101e7929190611dda565b60405180910390f35b3480156101fc57600080fd5b5061021760048036036102129190810190611823565b61073a565b6040516102249190611c9d565b60405180910390f35b34801561023957600080fd5b50610254600480360361024f9190810190611823565b610986565b6040516102619190611c9d565b60405180910390f35b34801561027657600080fd5b50610291600480360361028c91908101906117fa565b610d37565b60405161029e9190611dbf565b60405180910390f35b3480156102b357600080fd5b506102ce60048036036102c99190810190611823565b610d4f565b6040516102db9190611c9d565b60405180910390f35b3480156102f057600080fd5b5061030b60048036036103069190810190611823565b610f9b565b6040516103189190611c9d565b60405180910390f35b34801561032d57600080fd5b50610348600480360361034391908101906117fa565b6111e7565b6040516103559190611dbf565b60405180910390f35b34801561036a57600080fd5b5061038560048036036103809190810190611823565b6111ff565b6040516103929190611c9d565b60405180910390f35b6103b560048036036103b09190810190611823565b61144b565b6040516103c29190611c9d565b60405180910390f35b60006020528060005260406000206000915090508060000154908060010154908060020154908060030154908060040160009054906101000a900473ffffffffffffffffffffffffffffffffffffffff16908060040160149054906101000a900460ff16908060050154908060060160009054906101000a900473ffffffffffffffffffffffffffffffffffffffff16905088565b6000600354905090565b600080600160036000828254019250508190555060405180610100016040528086815260200160035481526020018581526020018481526020013373ffffffffffffffffffffffffffffffffffffffff168152602001600160068111156104cd57fe5b815260200160008152602001600073ffffffffffffffffffffffffffffffffffffffff1681525060008060035481526020019081526020016000206000820151816000015560208201518160010155604082015181600201556060820151816003015560808201518160040160006101000a81548173ffffffffffffffffffffffffffffffffffffffff021916908373ffffffffffffffffffffffffffffffffffffffff16021790555060a08201518160040160146101000a81548160ff0219169083600681111561059b57fe5b021790555060c0820151816005015560e08201518160060160006101000a81548173ffffffffffffffffffffffffffffffffffffffff021916908373ffffffffffffffffffffffffffffffffffffffff1602179055509050507f1514ac551452196cfee486346bb313635c81b22c7cc00f5959aabc3d4b9c3a278560035433878760405161062d959493929190611e48565b60405180910390a18460035491509150935093915050565b600080600080848152602001908152602001600020600201546000808581526020019081526020016000206003015491509150915091565b6000806000600160008573ffffffffffffffffffffffffffffffffffffffff1673ffffffffffffffffffffffffffffffffffffffff168152602001908152602001600020541415801561071057506000600260008573ffffffffffffffffffffffffffffffffffffffff1673ffffffffffffffffffffffffffffffffffffffff1681526020019081526020016000205414155b156107275760018081915080905091509150610735565b600080819150809050915091505b915091565b6060813373ffffffffffffffffffffffffffffffffffffffff1660008083815260200190815260200160002060060160009054906101000a900473ffffffffffffffffffffffffffffffffffffffff1673ffffffffffffffffffffffffffffffffffffffff16146107e0576040517f08c379a00000000000000000000000000000000000000000000000000000000081526004016107d790611d7f565b60405180910390fd5b82600360068111156107ee57fe5b60008083815260200190815260200160002060040160149054906101000a900460ff16600681111561081c57fe5b1461085c576040517f08c379a000000000000000000000000000000000000000000000000000000000815260040161085390611d3f565b60405180910390fd5b600460008086815260200190815260200160002060040160146101000a81548160ff0219169083600681111561088e57fe5b02179055507f8ab866b3478134948c30a0cddaeb95948ec8751c892b6c71b154e255cdd5cec0600080868152602001908152602001600020600001546000808781526020019081526020016000206001015460008088815260200190815260200160002060060160009054906101000a900473ffffffffffffffffffffffffffffffffffffffff1660008089815260200190815260200160002060040160009054906101000a900473ffffffffffffffffffffffffffffffffffffffff1660405161095c9493929190611e03565b60405180910390a16040518060600160405280602681526020016120ce6026913992505050919050565b60606000600681111561099557fe5b60008084815260200190815260200160002060040160149054906101000a900460ff1660068111156109c357fe5b1415610a06576040518060400160405280600781526020017f496e76616c6964000000000000000000000000000000000000000000000000008152509050610d32565b60016006811115610a1357fe5b60008084815260200190815260200160002060040160149054906101000a900460ff166006811115610a4157fe5b1415610a84576040518060400160405280600981526020017f417661696c61626c6500000000000000000000000000000000000000000000008152509050610d32565b60026006811115610a9157fe5b60008084815260200190815260200160002060040160149054906101000a900460ff166006811115610abf57fe5b1415610b02576040518060400160405280600881526020017f52657365727665640000000000000000000000000000000000000000000000008152509050610d32565b60036006811115610b0f57fe5b60008084815260200190815260200160002060040160149054906101000a900460ff166006811115610b3d57fe5b1415610b80576040518060400160405280600f81526020017f53686970706564546f52656e74657200000000000000000000000000000000008152509050610d32565b60046006811115610b8d57fe5b60008084815260200190815260200160002060040160149054906101000a900460ff166006811115610bbb57fe5b1415610bfe576040518060400160405280600681526020017f52656e74656400000000000000000000000000000000000000000000000000008152509050610d32565b60056006811115610c0b57fe5b60008084815260200190815260200160002060040160149054906101000a900460ff166006811115610c3957fe5b1415610c7c576040518060400160405280600e81526020017f53686970706564546f4f776e65720000000000000000000000000000000000008152509050610d32565b600680811115610c8857fe5b60008084815260200190815260200160002060040160149054906101000a900460ff166006811115610cb657fe5b1415610cf9576040518060400160405280600f81526020017f52656e74616c436f6d706c6574656400000000000000000000000000000000008152509050610d32565b6040518060400160405280600781526020017f496e76616c69640000000000000000000000000000000000000000000000000081525090505b919050565b60026020528060005260406000206000915090505481565b6060813373ffffffffffffffffffffffffffffffffffffffff1660008083815260200190815260200160002060040160009054906101000a900473ffffffffffffffffffffffffffffffffffffffff1673ffffffffffffffffffffffffffffffffffffffff1614610df5576040517f08c379a0000000000000000000000000000000000000000000000000000000008152600401610dec90611d5f565b60405180910390fd5b8260026006811115610e0357fe5b60008083815260200190815260200160002060040160149054906101000a900460ff166006811115610e3157fe5b14610e71576040517f08c379a0000000000000000000000000000000000000000000000000000000008152600401610e6890611d1f565b60405180910390fd5b600360008086815260200190815260200160002060040160146101000a81548160ff02191690836006811115610ea357fe5b02179055507fb7335d34db340366ad91abf4d197c60a7d7bc92e71c0daaa7cd400a1254cad32600080868152602001908152602001600020600001546000808781526020019081526020016000206001015460008088815260200190815260200160002060060160009054906101000a900473ffffffffffffffffffffffffffffffffffffffff1660008089815260200190815260200160002060040160009054906101000a900473ffffffffffffffffffffffffffffffffffffffff16604051610f719493929190611e03565b60405180910390a16040518060600160405280602381526020016120f46023913992505050919050565b6060813373ffffffffffffffffffffffffffffffffffffffff1660008083815260200190815260200160002060040160009054906101000a900473ffffffffffffffffffffffffffffffffffffffff1673ffffffffffffffffffffffffffffffffffffffff1614611041576040517f08c379a000000000000000000000000000000000000000000000000000000000815260040161103890611d5f565b60405180910390fd5b826005600681111561104f57fe5b60008083815260200190815260200160002060040160149054906101000a900460ff16600681111561107d57fe5b146110bd576040517f08c379a00000000000000000000000000000000000000000000000000000000081526004016110b490611cdf565b60405180910390fd5b600660008086815260200190815260200160002060040160146101000a81548160ff021916908360068111156110ef57fe5b02179055507fcb58afe26b749825f76600180a359c75d8f4edffc4eaf319c0663ddc92707c2c600080868152602001908152602001600020600001546000808781526020019081526020016000206001015460008088815260200190815260200160002060060160009054906101000a900473ffffffffffffffffffffffffffffffffffffffff1660008089815260200190815260200160002060040160009054906101000a900473ffffffffffffffffffffffffffffffffffffffff166040516111bd9493929190611e03565b60405180910390a16040518060600160405280603d8152602001612091603d913992505050919050565b60016020528060005260406000206000915090505481565b6060813373ffffffffffffffffffffffffffffffffffffffff1660008083815260200190815260200160002060060160009054906101000a900473ffffffffffffffffffffffffffffffffffffffff1673ffffffffffffffffffffffffffffffffffffffff16146112a5576040517f08c379a000000000000000000000000000000000000000000000000000000000815260040161129c90611d7f565b60405180910390fd5b82600460068111156112b357fe5b60008083815260200190815260200160002060040160149054906101000a900460ff1660068111156112e157fe5b14611321576040517f08c379a000000000000000000000000000000000000000000000000000000000815260040161131890611cff565b60405180910390fd5b600560008086815260200190815260200160002060040160146101000a81548160ff0219169083600681111561135357fe5b02179055507f21077aa5509028db270d4a455a256c98b45637712e8bfd87367bae928139d6a8600080868152602001908152602001600020600001546000808781526020019081526020016000206001015460008088815260200190815260200160002060060160009054906101000a900473ffffffffffffffffffffffffffffffffffffffff1660008089815260200190815260200160002060040160009054906101000a900473ffffffffffffffffffffffffffffffffffffffff166040516114219493929190611e03565b60405180910390a160405180606001604052806033815260200161205e6033913992505050919050565b6060813373ffffffffffffffffffffffffffffffffffffffff1660008083815260200190815260200160002060040160009054906101000a900473ffffffffffffffffffffffffffffffffffffffff1673ffffffffffffffffffffffffffffffffffffffff1614156114f2576040517f08c379a00000000000000000000000000000000000000000000000000000000081526004016114e990611d9f565b60405180910390fd5b826001600681111561150057fe5b60008083815260200190815260200160002060040160149054906101000a900460ff16600681111561152e57fe5b1461156e576040517f08c379a000000000000000000000000000000000000000000000000000000000815260040161156590611cbf565b60405180910390fd5b600260008086815260200190815260200160002060040160146101000a81548160ff021916908360068111156115a057fe5b02179055503360008086815260200190815260200160002060060160006101000a81548173ffffffffffffffffffffffffffffffffffffffff021916908373ffffffffffffffffffffffffffffffffffffffff1602179055507f5f5e84ee3f1fe881bcade10467f28456711c7cd4c7aca7e5ebde1bb8d0f1ffca600080868152602001908152602001600020600001546000808781526020019081526020016000206001015460008088815260200190815260200160002060060160009054906101000a900473ffffffffffffffffffffffffffffffffffffffff1660008089815260200190815260200160002060040160009054906101000a900473ffffffffffffffffffffffffffffffffffffffff166040516116c29493929190611e03565b60405180910390a134600160003373ffffffffffffffffffffffffffffffffffffffff1673ffffffffffffffffffffffffffffffffffffffff168152602001908152602001600020600082825401925050819055507ffdc108b575d08570a36bf94bdbd25a35cacfb91b4d8dd560b17aaa99b4884f613334600160003373ffffffffffffffffffffffffffffffffffffffff1673ffffffffffffffffffffffffffffffffffffffff1681526020019081526020016000205460405161178993929190611c66565b60405180910390a16040518060400160405280601381526020017f7375636365737366756c6c792072656e7465640000000000000000000000000081525092505050919050565b6000813590506117df8161202f565b92915050565b6000813590506117f481612046565b92915050565b60006020828403121561180c57600080fd5b600061181a848285016117d0565b91505092915050565b60006020828403121561183557600080fd5b6000611843848285016117e5565b91505092915050565b60008060006060848603121561186157600080fd5b600061186f868287016117e5565b9350506020611880868287016117e5565b9250506040611891868287016117e5565b9150509250925092565b6118a481611f96565b82525050565b6118b381611f47565b82525050565b6118c281611fa8565b82525050565b60006118d382611f19565b6118dd8185611f24565b93506118ed818560208601611fde565b6118f681612011565b840191505092915050565b600061190e603e83611f24565b91507f5468697320616374696f6e2063616e206f6e6c7920626520646f6e6520746f2060008301527f612067616d6520776974682027417661696c61626c65272073746174757300006020830152604082019050919050565b6000611974603f83611f24565b91507f5468697320616374696f6e2063616e206f6e6c7920626520646f6e6520746f2060008301527f67616d6520696e202753686970706564546f4f776e65722720737461747573006020830152604082019050919050565b60006119da603983611f24565b91507f5468697320616374696f6e2063616e206f6e6c7920626520646f6e6520746f2060008301527f612067616d6520696e202752656e7465642720737461747573000000000000006020830152604082019050919050565b6000611a40603b83611f24565b91507f5468697320616374696f6e2063616e206f6e6c7920626520646f6e6520746f2060008301527f612067616d6520696e20275265736572766564272073746174757300000000006020830152604082019050919050565b6000611aa6604283611f24565b91507f5468697320616374696f6e2063616e206f6e6c7920626520646f6e6520746f2060008301527f612067616d6520696e202753686970706564546f52656e74657227207374617460208301527f75730000000000000000000000000000000000000000000000000000000000006040830152606082019050919050565b6000611b32602883611f24565b91507f4f6e6c792067616d65206f776e6572732063616e20706572666f726d2074686960008301527f7320616374696f6e0000000000000000000000000000000000000000000000006020830152604082019050919050565b6000611b98602983611f24565b91507f4f6e6c792067616d652072656e746572732063616e20706572666f726d20746860008301527f697320616374696f6e00000000000000000000000000000000000000000000006020830152604082019050919050565b6000611bfe602783611f24565b91507f4f6e6c79206e6f6e2d6f776e6572732063616e20706572666f726d207468697360008301527f20616374696f6e000000000000000000000000000000000000000000000000006020830152604082019050919050565b611c6081611f8c565b82525050565b6000606082019050611c7b600083018661189b565b611c886020830185611c57565b611c956040830184611c57565b949350505050565b60006020820190508181036000830152611cb781846118c8565b905092915050565b60006020820190508181036000830152611cd881611901565b9050919050565b60006020820190508181036000830152611cf881611967565b9050919050565b60006020820190508181036000830152611d18816119cd565b9050919050565b60006020820190508181036000830152611d3881611a33565b9050919050565b60006020820190508181036000830152611d5881611a99565b9050919050565b60006020820190508181036000830152611d7881611b25565b9050919050565b60006020820190508181036000830152611d9881611b8b565b9050919050565b60006020820190508181036000830152611db881611bf1565b9050919050565b6000602082019050611dd46000830184611c57565b92915050565b6000604082019050611def6000830185611c57565b611dfc6020830184611c57565b9392505050565b6000608082019050611e186000830187611c57565b611e256020830186611c57565b611e32604083018561189b565b611e3f606083018461189b565b95945050505050565b600060a082019050611e5d6000830188611c57565b611e6a6020830187611c57565b611e77604083018661189b565b611e846060830185611c57565b611e916080830184611c57565b9695505050505050565b600061010082019050611eb1600083018b611c57565b611ebe602083018a611c57565b611ecb6040830189611c57565b611ed86060830188611c57565b611ee560808301876118aa565b611ef260a08301866118b9565b611eff60c0830185611c57565b611f0c60e08301846118aa565b9998505050505050505050565b600081519050919050565b600082825260208201905092915050565b6000611f4082611f6c565b9050919050565b6000611f5282611f6c565b9050919050565b6000819050611f6782612022565b919050565b600073ffffffffffffffffffffffffffffffffffffffff82169050919050565b6000819050919050565b6000611fa182611fba565b9050919050565b6000611fb382611f59565b9050919050565b6000611fc582611fcc565b9050919050565b6000611fd782611f6c565b9050919050565b60005b83811015611ffc578082015181840152602081019050611fe1565b8381111561200b576000848401525b50505050565b6000601f19601f8301169050919050565b6007811061202c57fe5b50565b61203881611f35565b811461204357600080fd5b50565b61204f81611f8c565b811461205a57600080fd5b5056fe7375636365737366756c6c792073686970706564207468652072656e7465642067616d65206261636b20746f206f776e657221546865206f776e6572207375636365737366756c6c79207265636569766564207468652067616d652e2052656e74616c20697320636f6d706c6574652e7375636365737366756c6c79207265636569766564207468652072656e7465642067616d65217375636365737366756c6c7920736869707065642072657365727665642067616d6521a365627a7a72315820142b0263ff6ed4eb5802dc25fca0d992f1d35821e0bdf978c1f8c6500f556d706c6578706572696d656e74616cf564736f6c63430005100040",
  "source": "// SPDX-License-Identifier: MIT\npragma solidity >=0.4.22 <0.9.0;\npragma experimental ABIEncoderV2;\n\n\n// import \"@chainlink/contracts/src/v0.8/interfaces/AggregatorV3Interface.sol\";\n\n/// @title Decentralized Switch Game Rental Platform\n/// @author Dabin Lee\n/// @notice You can use this contract to register and rent Nintendo Switch games where deposit is held by the smart contract\ncontract DeSwitch {\n\n//   AggregatorV3Interface internal priceFeed;\n\n//   constructor() {\n//     priceFeed = AggregatorV3Interface(0x9326BFA02ADD2366b30bacB125260Af641031331);\n// }\n\n  event LogForGameRegistered(uint gameId, uint registerId, address gameOwnerAddress, uint rentalRate, uint depositRequired);\n  event LogForGameRentalRequested(uint gameId, uint registerId, address gameRenter, address gameOwnerAddress);\n  event LogForGameShippedToRenter(uint gameId, uint registerId, address gameRenter, address gameOwnerAddress);\n  event LogForGameReceivedByRenter(uint gameId, uint registerId, address gameRenter, address gameOwnerAddress);\n  event LogForGameShippedToOwner(uint gameId, uint registerId, address gameRenter, address gameOwnerAddress);\n  event LogForGameReceivedByOwner(uint gameId, uint registerId, address gameRenter, address gameOwnerAddress);\n  event LogForPendingBalanceIncrease(address ownerAddress, uint increaseValue, uint newBalance);\n  event LogForConfirmedBalanceIncrease(address ownerAddress, uint increaseValue, uint newBalance);\n  enum gameState {\n    Invalid,\n    Available,\n    Reserved,\n    ShippedToRenter,\n    Rented,\n    ShippedToOwner,\n    RentalCompleted\n  }\n\n  struct Game{\n    /// @param gameid is unique game ID assiged by Nintendo upon release of a game Title\n    /// @param gregisterId is a unique reference number assigned during game registration\n    /// @param rentalRate is rental rate in wei, charged per day\n    /// @param depositRequired is the deposit required in wei, to be used to offset rental charges upon successful completion of rental\n    /// @param gameOwner is the payable wallet address of the game owner where the rental charges will be transferred to\n    /// @param state is an enum gameState which describes the state of a unqiue game such as \"Available\" or \"Rented\"\n    /// @param timeRentalStart is a uint value which logs down when the rental was started to calculate the rental charges upon completion of rental\n    /// @param gameRenter is the payable wallet address of the game renter where the deposit minus rental charges will be transferred to\n    uint gameid;\n    uint gregisterId;\n    uint rentalRate;\n    uint depositRequired;\n    address payable gameOwner;\n    gameState state;\n    uint timeRentalStart;\n    address payable gameRenter;\n  }\n\n  \n  mapping (uint => Game) public games;\n  // mapping (uint => address) public registerIdList;\n  mapping (address => uint) public pendingBalances;\n  mapping (address => uint) public confirmedBalances;\n\n  // mapping (uint => Game) public games;\n\n  /// @param registerId is a reference counter which starts at 0 and gets added everytime there is a successful registeration of game for rental\n  uint registerId = 0 ;\n\n  \n  constructor() public {\n  }\n  \n  \n  /// @notice notGameOwner modifier requires the function to be by a person other than the game owner. (Example - to prevent game owner from renting his/her own game by mistake)\n  modifier notGameOwner(uint _trackingId) {\n    require(games[_trackingId].gameOwner != msg.sender, \"Only non-owners can perform this action\");\n    _;\n  }\n\n  /// @notice isGameOwner modifier validates if the function is being called by the game owner. (Example - calling functions such as \"shipGame\")\n  modifier isGameOwner(uint _trackingId) {\n    require(games[_trackingId].gameOwner == msg.sender, \"Only game owners can perform this action\");\n    _;\n  }\n\n  /// @notice isGameRenter modifier validates if the function is being called by the game renter. (Example - calling functions such as \"gameReceived\")\n  modifier isGameRenter(uint _trackingId) {\n    require(games[_trackingId].gameRenter == msg.sender, \"Only game renters can perform this action\");\n    _;\n  }\n\n  /// @notice isAvailableGame modifier validates if the game with tracking ID of _trackingId has state set to \"Available\"\n  modifier isAvailableGame(uint _trackingId){\n    require(games[_trackingId].state == gameState.Available, \"This action can only be done to a game with 'Available' status\");\n    _;\n  }\n\n  /// @notice isShippedToRenterGame modifier validates if the game with tracking ID of _trackingId has state set to \"shippedToRenter\"\n  modifier isShippedToRenterGame(uint _trackingId){\n    require(games[_trackingId].state == gameState.ShippedToRenter, \"This action can only be done to a game in 'ShippedToRenter' status\");\n    _;\n  }\n  \n  /// @notice isReservedGame modifier validates if the game with the tracking ID of _trackingId has state set to \"Reserved\"\n  modifier isReservedGame(uint _trackingId){\n    require(games[_trackingId].state == gameState.Reserved, \"This action can only be done to a game in 'Reserved' status\");\n    _;\n  }\n\n  /// @notice isRentedGame modifer validates if the game with the tracking ID of _trackignId has state set to \"Rented\"\n  modifier isRentedGame(uint _trackingId){\n    require(games[_trackingId].state == gameState.Rented,\"This action can only be done to a game in 'Rented' status\");\n    _;\n  }\n\n  /// @notice isShippedToOwnerGame modifer validates if the game with the tracking ID of _trackingId has state set to \"ShippedToOwner\"\n  modifier isShippedToOwnerGame(uint _trackingId){\n    require(games[_trackingId].state == gameState.ShippedToOwner, \"This action can only be done to game in 'ShippedToOwner' status\");\n    _;\n  }\n\n  /// @notice queryGameCount is a publi view function which returns current value of registerId, which equals the # of registered games in the smart contract\n  function queryGameCount() public view returns(uint){\n    return (registerId);\n  }\n\n  /// @notice registerGame\n  /// @param _gameId takes in the game registration ID according to http://nswdb.com/\n  /// @param _rentalRate takes in the rental charges per day in wei\n  /// @param _depositRequired takes in the deposit charge for the whole game in wei\n  function registerGame(uint _gameId, uint _rentalRate, uint _depositRequired) public returns(uint, uint){\n    //should be a public function as anyone should be able to put their game for sale/rental\n    //Users register games they own (Ex. Switch Games) as \"Available\"\n    //GameID refers to gameId from http://nswdb.com/ to avoid confusion between different game titles\n    //Require checks for validity of values submitted for required arguments\n    //Set gameState as \"Available\"\n    //Set gameOwner as msg.sender\n    //Set gameBuyer and gameRenter will be empty and get updated once a buyer triggers the rentGame function\n    //returns true/false if registeration was successful and a trackingId tagged to the registered game\n    //Increase the registerId counter by 1 so that the next game gets registered with the next registerId.\n    //Consider hashing/randomizing instead of incremental values, can consider sha256(msg.sender+registerID)\n    registerId += 1;\n    //Create a Game struct with the provided values and add it to the address -> game mapping\n    games[registerId] = Game({\n      gameid : _gameId,\n      gregisterId : registerId,\n      rentalRate : _rentalRate,\n      depositRequired : _depositRequired,\n      gameOwner : msg.sender,\n      state : gameState.Available,\n      timeRentalStart : 0,\n      gameRenter : address(0)\n    });\n\n    //add to the mapping registerId -> Owner Address\n    // registerIdList[registerId] = msg.sender;\n\n    //Emits appropriate event to log the chagnes \n    emit LogForGameRegistered(_gameId, registerId, msg.sender, _rentalRate, _depositRequired);\n    return (_gameId, registerId);\n  }\n\n  function queryGameStatusbyTI(uint _trackingId) public view returns(string memory){\n    if (games[_trackingId].state == gameState.Invalid) return \"Invalid\";\n    if (games[_trackingId].state == gameState.Available) return \"Available\";\n    if (games[_trackingId].state == gameState.Reserved) return \"Reserved\";\n    if (games[_trackingId].state == gameState.ShippedToRenter) return \"ShippedToRenter\";\n    if (games[_trackingId].state == gameState.Rented) return \"Rented\";\n    if (games[_trackingId].state == gameState.ShippedToOwner) return \"ShippedToOwner\";\n    if (games[_trackingId].state == gameState.RentalCompleted) return \"RentalCompleted\";\n    return \"Invalid\";\n  }\n\n  function queryBalance(address _address) public view returns(uint, uint){\n    // require(msg.sender == _address);\n    if (pendingBalances[_address] != 0 && confirmedBalances[_address] != 0){\n      // return (pendingBalances[_address], confirmedBalances[_address]);\n      return (1,1);\n    }else{\n      return (0,0);\n    }\n  }\n\n  function queryGamePricebyTI(uint _trackingId) public view returns(uint, uint){\n    //check if the game ID is valid\n    return (games[_trackingId].rentalRate, games[_trackingId].depositRequired);\n  }\n\n  function rentGame(uint _trackingId) public payable notGameOwner(_trackingId) isAvailableGame(_trackingId) returns(string memory) {\n    //should be \"payable\" as this requires ether to be transffered to the contract\n    //should be \"public\" as anyone should be able to rent the game \n    //Verify the state of trackingId to be \"Available\" using a modifier\n    //return true or false if the rentGame attempt was successful\n    //check if msg.value == games[trackingId].rentalRate\n    //at the end of this function the state of the Game should be set to \"TransactionInProgress\"\n    \n    games[_trackingId].state = gameState.Reserved;\n    games[_trackingId].gameRenter = msg.sender;\n    // games[registerIdList[_trackignId]]\n\n    //Emit event\n    // event LogForGameRentalRequested(uint gameId, uint registerId, address gameRenter, address gameOwnerAddress);\n    emit LogForGameRentalRequested(games[_trackingId].gameid, games[_trackingId].gregisterId, games[_trackingId].gameRenter, games[_trackingId].gameOwner);\n    \n    pendingBalances[msg.sender] += msg.value;\n    emit LogForPendingBalanceIncrease(msg.sender, msg.value, pendingBalances[msg.sender]);\n    return \"successfully rented\";\n  }\n\n\n\n  function shipGame(uint _trackingId) public isGameOwner(_trackingId) isReservedGame(_trackingId) returns(string memory){\n    //To be called by the gameOwner to account for state update to \"Shipped\"\n    //Only the gameOwner with same account address as games[trackingId].gameOnwer can execute this function\n    //Require the games[trackingId].state to be \"AvailableForRent\" or \"AvailableForBuy\"\n    games[_trackingId].state = gameState.ShippedToRenter;\n    emit LogForGameShippedToRenter(games[_trackingId].gameid, games[_trackingId].gregisterId, games[_trackingId].gameRenter, games[_trackingId].gameOwner);\n    return \"successfully shipped reserved game!\";\n\n  } \n\n  function receiveGameRenter(uint _trackingId) public isGameRenter(_trackingId) isShippedToRenterGame(_trackingId) returns(string memory){\n    //To be called by the gameBuyer or gameRenter to account for state change to \"Rented\" or \"Sold\"\n    //This function triggers payment to the gameOwner address if the transaction completed was \"buy\" instead of \"rent\"\n    //This function makes the time to be loggged as the start of rental as timeRentalStart\n    games[_trackingId].state = gameState.Rented;\n    emit LogForGameReceivedByRenter(games[_trackingId].gameid, games[_trackingId].gregisterId, games[_trackingId].gameRenter, games[_trackingId].gameOwner);\n    return \"successfully received the rented game!\";\n  }\n\n  function returnGame(uint _trackingId) public isGameRenter(_trackingId) isRentedGame(_trackingId) returns(string memory){\n    //To be called buy the owner once the game has returned in good condition.\n    //This function returns the deposit (Totaldeposit - rental fee) from the smart Contract to the renter\n    //To trigger payment function to the gameOwner for the rental fee\n    games[_trackingId].state = gameState.ShippedToOwner;\n    emit LogForGameShippedToOwner(games[_trackingId].gameid, games[_trackingId].gregisterId, games[_trackingId].gameRenter, games[_trackingId].gameOwner);\n    return \"successfully shipped the rented game back to owner!\";\n  }\n\n  function receiveGameOwner(uint _trackingId) public isGameOwner(_trackingId) isShippedToOwnerGame(_trackingId) returns(string memory){\n    //To be called by the gameOwner to account for state change when the game is returned by the renter.\n    //This function triggers payment to the gameOwner address if the transaction completed was \"buy\" instead of \"rent\"\n    //This function makes the time to be loggged as the start of rental as timeRentalStart\n    games[_trackingId].state = gameState.RentalCompleted;\n    emit LogForGameReceivedByOwner(games[_trackingId].gameid, games[_trackingId].gregisterId, games[_trackingId].gameRenter, games[_trackingId].gameOwner);\n    return \"The owner successfully received the game. Rental is complete.\";\n  }\n\n  \n\n}\n",
  "sourcePath": "/home/dabin/consensys/blockchain-developer-bootcamp-final-project/contracts/DeSwitch.sol",
  "compiler": {
    "name": "solc",
    "version": "0.5.16+commit.9c3226ce.Emscripten.clang"
  },
  "schemaVersion": "3.4.3",
  "updatedAt": "2021-11-22T16:36:34.846Z",
  "devdoc": {
    "author": "Dabin Lee",
    "methods": {
      "registerGame(uint256,uint256,uint256)": {
        "params": {
          "_depositRequired": "takes in the deposit charge for the whole game in wei",
          "_gameId": "takes in the game registration ID according to http://nswdb.com/",
          "_rentalRate": "takes in the rental charges per day in wei"
        }
      }
    },
    "title": "Decentralized Switch Game Rental Platform"
  },
  "userdoc": {
    "methods": {
      "queryGameCount()": {
        "notice": "queryGameCount is a publi view function which returns current value of registerId, which equals the # of registered games in the smart contract"
      },
      "registerGame(uint256,uint256,uint256)": {
        "notice": "registerGame"
      }
    },
    "notice": "You can use this contract to register and rent Nintendo Switch games where deposit is held by the smart contract"
  }
}