{
  "contractName": "DeSwitch",
  "abi": [
    {
      "inputs": [],
      "payable": false,
      "stateMutability": "nonpayable",
      "type": "constructor"
    },
    {
      "anonymous": false,
      "inputs": [
        {
          "indexed": false,
          "internalType": "uint256",
          "name": "gameId",
          "type": "uint256"
        },
        {
          "indexed": false,
          "internalType": "address",
          "name": "gameRenter",
          "type": "address"
        },
        {
          "indexed": false,
          "internalType": "address",
          "name": "gameOwnerAddress",
          "type": "address"
        },
        {
          "indexed": false,
          "internalType": "uint256",
          "name": "rentalRate",
          "type": "uint256"
        },
        {
          "indexed": false,
          "internalType": "uint256",
          "name": "depositRequired",
          "type": "uint256"
        }
      ],
      "name": "LogFOrGameRentalTxnCompleted",
      "type": "event"
    },
    {
      "anonymous": false,
      "inputs": [
        {
          "indexed": false,
          "internalType": "uint256",
          "name": "gameId",
          "type": "uint256"
        },
        {
          "indexed": false,
          "internalType": "address",
          "name": "gameOwnerAddress",
          "type": "address"
        }
      ],
      "name": "LogForGameRegistered",
      "type": "event"
    },
    {
      "anonymous": false,
      "inputs": [
        {
          "indexed": false,
          "internalType": "uint256",
          "name": "gameId",
          "type": "uint256"
        },
        {
          "indexed": false,
          "internalType": "address",
          "name": "gameRenter",
          "type": "address"
        },
        {
          "indexed": false,
          "internalType": "address",
          "name": "gameOwnerAddress",
          "type": "address"
        }
      ],
      "name": "LogForGameRentalRequested",
      "type": "event"
    },
    {
      "constant": true,
      "inputs": [
        {
          "internalType": "uint256",
          "name": "",
          "type": "uint256"
        }
      ],
      "name": "games",
      "outputs": [
        {
          "internalType": "uint256",
          "name": "gameid",
          "type": "uint256"
        },
        {
          "internalType": "uint256",
          "name": "trackingId",
          "type": "uint256"
        },
        {
          "internalType": "uint256",
          "name": "rentalRate",
          "type": "uint256"
        },
        {
          "internalType": "uint256",
          "name": "sellRate",
          "type": "uint256"
        },
        {
          "internalType": "uint256",
          "name": "timeRentalStart",
          "type": "uint256"
        },
        {
          "internalType": "address payable",
          "name": "gameOwner",
          "type": "address"
        },
        {
          "internalType": "address payable",
          "name": "gamebuyer",
          "type": "address"
        },
        {
          "internalType": "address payable",
          "name": "gameRenter",
          "type": "address"
        },
        {
          "internalType": "enum DeSwitch.gameState",
          "name": "state",
          "type": "uint8"
        }
      ],
      "payable": false,
      "stateMutability": "view",
      "type": "function"
    },
    {
      "constant": false,
      "inputs": [
        {
          "internalType": "uint256",
          "name": "gameId",
          "type": "uint256"
        },
        {
          "internalType": "uint256",
          "name": "rentalRate",
          "type": "uint256"
        },
        {
          "internalType": "uint256",
          "name": "depositRequired",
          "type": "uint256"
        },
        {
          "internalType": "enum DeSwitch.gameState",
          "name": "buyOption",
          "type": "uint8"
        },
        {
          "internalType": "uint256",
          "name": "postalCode",
          "type": "uint256"
        }
      ],
      "name": "registerGame",
      "outputs": [
        {
          "internalType": "bool",
          "name": "",
          "type": "bool"
        },
        {
          "internalType": "uint256",
          "name": "",
          "type": "uint256"
        }
      ],
      "payable": false,
      "stateMutability": "nonpayable",
      "type": "function"
    },
    {
      "constant": false,
      "inputs": [
        {
          "internalType": "uint256",
          "name": "trackingId",
          "type": "uint256"
        }
      ],
      "name": "rentGame",
      "outputs": [
        {
          "internalType": "bool",
          "name": "",
          "type": "bool"
        }
      ],
      "payable": true,
      "stateMutability": "payable",
      "type": "function"
    },
    {
      "constant": false,
      "inputs": [
        {
          "internalType": "uint256",
          "name": "trackingId",
          "type": "uint256"
        }
      ],
      "name": "buyGame",
      "outputs": [
        {
          "internalType": "bool",
          "name": "",
          "type": "bool"
        }
      ],
      "payable": true,
      "stateMutability": "payable",
      "type": "function"
    },
    {
      "constant": false,
      "inputs": [
        {
          "internalType": "uint256",
          "name": "trackingId",
          "type": "uint256"
        }
      ],
      "name": "shipGame",
      "outputs": [
        {
          "internalType": "bool",
          "name": "",
          "type": "bool"
        }
      ],
      "payable": false,
      "stateMutability": "nonpayable",
      "type": "function"
    },
    {
      "constant": false,
      "inputs": [
        {
          "internalType": "uint256",
          "name": "trackingId",
          "type": "uint256"
        }
      ],
      "name": "receiveGame",
      "outputs": [
        {
          "internalType": "bool",
          "name": "",
          "type": "bool"
        }
      ],
      "payable": false,
      "stateMutability": "nonpayable",
      "type": "function"
    },
    {
      "constant": false,
      "inputs": [
        {
          "internalType": "uint256",
          "name": "trackingId",
          "type": "uint256"
        }
      ],
      "name": "returnGame",
      "outputs": [
        {
          "internalType": "bool",
          "name": "",
          "type": "bool"
        }
      ],
      "payable": false,
      "stateMutability": "nonpayable",
      "type": "function"
    }
  ],
  "bytecode": "0x608060405234801561001057600080fd5b506104b8806100206000396000f3fe6080604052600436106100705760003560e01c8063854b45f01161004e578063854b45f014610234578063f0787858146102b9578063f31309721461030c578063f77605171461035257610070565b8063117a5b9014610075578063513820ca1461018e5780636f0b97a7146101e1575b600080fd5b34801561008157600080fd5b506100ae6004803603602081101561009857600080fd5b8101908080359060200190929190505050610398565b604051808a81526020018981526020018881526020018781526020018681526020018573ffffffffffffffffffffffffffffffffffffffff1673ffffffffffffffffffffffffffffffffffffffff1681526020018473ffffffffffffffffffffffffffffffffffffffff1673ffffffffffffffffffffffffffffffffffffffff1681526020018373ffffffffffffffffffffffffffffffffffffffff1673ffffffffffffffffffffffffffffffffffffffff16815260200182600381111561017257fe5b60ff168152602001995050505050505050505060405180910390f35b34801561019a57600080fd5b506101c7600480360360208110156101b157600080fd5b8101908080359060200190929190505050610453565b604051808215151515815260200191505060405180910390f35b3480156101ed57600080fd5b5061021a6004803603602081101561020457600080fd5b810190808035906020019092919050505061045a565b604051808215151515815260200191505060405180910390f35b34801561024057600080fd5b50610298600480360360a081101561025757600080fd5b81019080803590602001909291908035906020019092919080359060200190929190803560ff16906020019092919080359060200190929190505050610461565b60405180831515151581526020018281526020019250505060405180910390f35b3480156102c557600080fd5b506102f2600480360360208110156102dc57600080fd5b810190808035906020019092919050505061046e565b604051808215151515815260200191505060405180910390f35b6103386004803603602081101561032257600080fd5b8101908080359060200190929190505050610475565b604051808215151515815260200191505060405180910390f35b61037e6004803603602081101561036857600080fd5b810190808035906020019092919050505061047c565b604051808215151515815260200191505060405180910390f35b60016020528060005260406000206000915090508060000154908060010154908060020154908060030154908060040154908060050160009054906101000a900473ffffffffffffffffffffffffffffffffffffffff16908060060160009054906101000a900473ffffffffffffffffffffffffffffffffffffffff16908060070160009054906101000a900473ffffffffffffffffffffffffffffffffffffffff16908060070160149054906101000a900460ff16905089565b6000919050565b6000919050565b6000809550959350505050565b6000919050565b6000919050565b600091905056fea265627a7a7231582072f90dce89c8239d33bd2b81315a899915d76ea05c5a1b4385f118d497bbc04f64736f6c63430005100032",
  "source": "// SPDX-License-Identifier: MIT\npragma solidity >=0.4.22 <0.9.0;\n\n\n\ncontract DeSwitch {\n  event LogForGameRegistered(uint gameId, address gameOwnerAddress);\n  event LogForGameRentalRequested(uint gameId, address gameRenter, address gameOwnerAddress);\n  event LogFOrGameRentalTxnCompleted(uint gameId, address gameRenter, address gameOwnerAddress, uint rentalRate, uint depositRequired);\n  enum gameState {\n    Available,\n    Shipped,\n    Rented,\n    Sold\n  }\n  struct Game{\n    uint gameid;\n    uint trackingId;\n    uint rentalRate;\n    uint sellRate;\n    uint timeRentalStart;\n    address payable gameOwner;\n    address payable gamebuyer;\n    address payable gameRenter;\n    gameState state;\n  }\n\n  uint trackingId;\n  mapping (uint => Game) public games;\n\n  \n    constructor() public {\n  }\n\n  function registerGame(uint gameId, uint rentalRate, uint depositRequired, gameState buyOption, uint postalCode) public returns(bool, uint){\n    //should be a public function as anyone should be able to put their game for sale/rental\n    //Users register games they own (Ex. Switch Games) as \"Available\"\n    //GameID refers to gameId from http://nswdb.com/ to avoid confusion between different game titles\n    //Require checks for validity of values submitted for required arguments\n    //Set gameState as \"Available\"\n    //Set gameOwner as msg.sender\n    //Set gameBuyer and gameRenter will be empty and get updated once a buyer/owner triggers the rentGame/buyGame function\n    //returns true/false if registeration was successful and a trackingId tagged to the registered game\n    //Emits appropriate event to log the chagnes \n    //Create a random trackingId \n  }\n\n  function rentGame(uint trackingId) public payable returns(bool) {\n    //should be \"payable\" as this requires ether to be transffered to the contract\n    //should be \"public\" as anyone should be able to rent the game \n    //Verify the state of trackingId to be \"Available\" using a modifier\n    //return true or false if the rentGame attempt was successful\n    //check if msg.value == games[trackingId].rentalRate\n    //at the end of this function the state of the Game should be set to \"TransactionInProgress\"\n  }\n\n  function buyGame(uint trackingId) public payable returns(bool){\n    //should be \"payable\" as this requires ether to be transffered to the contract\n    //should be \"public\" as anyone should be able to buy the game \n    //Verify the state of trackingId to be either \"Available\" using a modifier\n    //return true or false if the rentGame attempt was successful\n    //check if msg.value == games[trackingId].sellRate\n    //at the end of this function the state of the Game should be set to \"TransactionInProgress\"\n  }\n\n  function shipGame(uint trackingId) public returns(bool){\n    //To be called by the gameOwner to account for state update to \"Shipped\"\n    //Only the gameOwner with same account address as games[trackingId].gameOnwer can execute this function\n    //Require the games[trackingId].state to be \"AvailableForRent\" or \"AvailableForBuy\"\n  } \n\n  function receiveGame(uint trackingId) public returns(bool){\n    //To be called by the gameBuyer or gameRenter to account for state change to \"Rented\" or \"Sold\"\n    //This function triggers payment to the gameOwner address if the transaction completed was \"buy\" instead of \"rent\"\n    //This function makes the time to be loggged as the start of rental as timeRentalStart\n\n  }\n\n  function returnGame(uint trackingId) public returns(bool){\n    //To be called buy the owner once the game has returned in good condition.\n    //This function returns the deposit (Totaldeposit - rental fee) from the smart Contract to the renter\n    //To trigger payment function to the gameOwner for the rental fee\n  }\n\n}\n",
  "sourcePath": "C:\\Users\\dabin\\Consensys\\blockchain-developer-bootcamp-final-project-main\\contracts\\DeSwitch.sol",
  "compiler": {
    "name": "solc",
    "version": "0.5.16+commit.9c3226ce.Emscripten.clang"
  },
  "schemaVersion": "3.4.3",
  "updatedAt": "2021-10-31T13:11:44.892Z",
  "networkType": "ethereum",
  "devdoc": {
    "methods": {}
  },
  "userdoc": {
    "methods": {}
  }
}