{
  "contractName": "DeSwitch",
  "abi": [
    {
      "inputs": [],
      "stateMutability": "nonpayable",
      "type": "constructor"
    },
    {
      "anonymous": false,
      "inputs": [
        {
          "indexed": false,
          "internalType": "address",
          "name": "ownerAddress",
          "type": "address"
        },
        {
          "indexed": false,
          "internalType": "uint256",
          "name": "increaseValue",
          "type": "uint256"
        },
        {
          "indexed": false,
          "internalType": "uint256",
          "name": "newBalance",
          "type": "uint256"
        }
      ],
      "name": "LogForConfirmedBalanceIncrease",
      "type": "event"
    },
    {
      "anonymous": false,
      "inputs": [
        {
          "indexed": false,
          "internalType": "uint256",
          "name": "gameId",
          "type": "uint256"
        },
        {
          "indexed": false,
          "internalType": "uint256",
          "name": "registerId",
          "type": "uint256"
        },
        {
          "indexed": false,
          "internalType": "address",
          "name": "gameRenter",
          "type": "address"
        },
        {
          "indexed": false,
          "internalType": "address",
          "name": "gameOwnerAddress",
          "type": "address"
        }
      ],
      "name": "LogForGameReceivedByOwner",
      "type": "event"
    },
    {
      "anonymous": false,
      "inputs": [
        {
          "indexed": false,
          "internalType": "uint256",
          "name": "gameId",
          "type": "uint256"
        },
        {
          "indexed": false,
          "internalType": "uint256",
          "name": "registerId",
          "type": "uint256"
        },
        {
          "indexed": false,
          "internalType": "address",
          "name": "gameRenter",
          "type": "address"
        },
        {
          "indexed": false,
          "internalType": "address",
          "name": "gameOwnerAddress",
          "type": "address"
        }
      ],
      "name": "LogForGameReceivedByRenter",
      "type": "event"
    },
    {
      "anonymous": false,
      "inputs": [
        {
          "indexed": false,
          "internalType": "uint256",
          "name": "gameId",
          "type": "uint256"
        },
        {
          "indexed": false,
          "internalType": "uint256",
          "name": "registerId",
          "type": "uint256"
        },
        {
          "indexed": false,
          "internalType": "address",
          "name": "gameOwnerAddress",
          "type": "address"
        },
        {
          "indexed": false,
          "internalType": "uint256",
          "name": "rentalRate",
          "type": "uint256"
        },
        {
          "indexed": false,
          "internalType": "uint256",
          "name": "depositRequired",
          "type": "uint256"
        }
      ],
      "name": "LogForGameRegistered",
      "type": "event"
    },
    {
      "anonymous": false,
      "inputs": [
        {
          "indexed": false,
          "internalType": "uint256",
          "name": "gameId",
          "type": "uint256"
        },
        {
          "indexed": false,
          "internalType": "uint256",
          "name": "registerId",
          "type": "uint256"
        },
        {
          "indexed": false,
          "internalType": "address",
          "name": "gameRenter",
          "type": "address"
        },
        {
          "indexed": false,
          "internalType": "address",
          "name": "gameOwnerAddress",
          "type": "address"
        }
      ],
      "name": "LogForGameRentalRequested",
      "type": "event"
    },
    {
      "anonymous": false,
      "inputs": [
        {
          "indexed": false,
          "internalType": "uint256",
          "name": "gameId",
          "type": "uint256"
        },
        {
          "indexed": false,
          "internalType": "uint256",
          "name": "registerId",
          "type": "uint256"
        },
        {
          "indexed": false,
          "internalType": "address",
          "name": "gameRenter",
          "type": "address"
        },
        {
          "indexed": false,
          "internalType": "address",
          "name": "gameOwnerAddress",
          "type": "address"
        }
      ],
      "name": "LogForGameShippedToOwner",
      "type": "event"
    },
    {
      "anonymous": false,
      "inputs": [
        {
          "indexed": false,
          "internalType": "uint256",
          "name": "gameId",
          "type": "uint256"
        },
        {
          "indexed": false,
          "internalType": "uint256",
          "name": "registerId",
          "type": "uint256"
        },
        {
          "indexed": false,
          "internalType": "address",
          "name": "gameRenter",
          "type": "address"
        },
        {
          "indexed": false,
          "internalType": "address",
          "name": "gameOwnerAddress",
          "type": "address"
        }
      ],
      "name": "LogForGameShippedToRenter",
      "type": "event"
    },
    {
      "anonymous": false,
      "inputs": [
        {
          "indexed": false,
          "internalType": "address",
          "name": "ownerAddress",
          "type": "address"
        },
        {
          "indexed": false,
          "internalType": "uint256",
          "name": "increaseValue",
          "type": "uint256"
        },
        {
          "indexed": false,
          "internalType": "uint256",
          "name": "newBalance",
          "type": "uint256"
        }
      ],
      "name": "LogForPendingBalanceIncrease",
      "type": "event"
    },
    {
      "anonymous": false,
      "inputs": [
        {
          "indexed": true,
          "internalType": "address",
          "name": "previousOwner",
          "type": "address"
        },
        {
          "indexed": true,
          "internalType": "address",
          "name": "newOwner",
          "type": "address"
        }
      ],
      "name": "OwnershipTransferred",
      "type": "event"
    },
    {
      "inputs": [
        {
          "internalType": "address",
          "name": "",
          "type": "address"
        }
      ],
      "name": "confirmedBalances",
      "outputs": [
        {
          "internalType": "uint256",
          "name": "",
          "type": "uint256"
        }
      ],
      "stateMutability": "view",
      "type": "function",
      "constant": true
    },
    {
      "inputs": [
        {
          "internalType": "uint256",
          "name": "",
          "type": "uint256"
        }
      ],
      "name": "games",
      "outputs": [
        {
          "internalType": "uint256",
          "name": "gameid",
          "type": "uint256"
        },
        {
          "internalType": "uint256",
          "name": "gregisterId",
          "type": "uint256"
        },
        {
          "internalType": "uint256",
          "name": "rentalRate",
          "type": "uint256"
        },
        {
          "internalType": "uint256",
          "name": "depositRequired",
          "type": "uint256"
        },
        {
          "internalType": "address payable",
          "name": "gameOwner",
          "type": "address"
        },
        {
          "internalType": "enum DeSwitch.gameState",
          "name": "state",
          "type": "uint8"
        },
        {
          "internalType": "uint256",
          "name": "timeRentalStart",
          "type": "uint256"
        },
        {
          "internalType": "uint256",
          "name": "timeRentalEnd",
          "type": "uint256"
        },
        {
          "internalType": "address payable",
          "name": "gameRenter",
          "type": "address"
        }
      ],
      "stateMutability": "view",
      "type": "function",
      "constant": true
    },
    {
      "inputs": [],
      "name": "owner",
      "outputs": [
        {
          "internalType": "address",
          "name": "",
          "type": "address"
        }
      ],
      "stateMutability": "view",
      "type": "function",
      "constant": true
    },
    {
      "inputs": [
        {
          "internalType": "address",
          "name": "",
          "type": "address"
        }
      ],
      "name": "pendingBalances",
      "outputs": [
        {
          "internalType": "uint256",
          "name": "",
          "type": "uint256"
        }
      ],
      "stateMutability": "view",
      "type": "function",
      "constant": true
    },
    {
      "inputs": [],
      "name": "renounceOwnership",
      "outputs": [],
      "stateMutability": "nonpayable",
      "type": "function"
    },
    {
      "inputs": [
        {
          "internalType": "address",
          "name": "newOwner",
          "type": "address"
        }
      ],
      "name": "transferOwnership",
      "outputs": [],
      "stateMutability": "nonpayable",
      "type": "function"
    },
    {
      "inputs": [],
      "name": "queryGameCount",
      "outputs": [
        {
          "internalType": "uint256",
          "name": "",
          "type": "uint256"
        }
      ],
      "stateMutability": "view",
      "type": "function",
      "constant": true
    },
    {
      "inputs": [],
      "name": "getTimeStamp",
      "outputs": [
        {
          "internalType": "uint256",
          "name": "",
          "type": "uint256"
        }
      ],
      "stateMutability": "view",
      "type": "function",
      "constant": true
    },
    {
      "inputs": [
        {
          "internalType": "uint256",
          "name": "_gameId",
          "type": "uint256"
        },
        {
          "internalType": "uint256",
          "name": "_rentalRate",
          "type": "uint256"
        },
        {
          "internalType": "uint256",
          "name": "_depositRequired",
          "type": "uint256"
        }
      ],
      "name": "registerGame",
      "outputs": [
        {
          "internalType": "uint256",
          "name": "",
          "type": "uint256"
        },
        {
          "internalType": "uint256",
          "name": "",
          "type": "uint256"
        }
      ],
      "stateMutability": "nonpayable",
      "type": "function"
    },
    {
      "inputs": [
        {
          "internalType": "uint256",
          "name": "_trackingId",
          "type": "uint256"
        }
      ],
      "name": "queryGameStatusbyTI",
      "outputs": [
        {
          "internalType": "string",
          "name": "",
          "type": "string"
        }
      ],
      "stateMutability": "view",
      "type": "function",
      "constant": true
    },
    {
      "inputs": [
        {
          "internalType": "address",
          "name": "_address",
          "type": "address"
        }
      ],
      "name": "queryBalance",
      "outputs": [
        {
          "internalType": "uint256",
          "name": "",
          "type": "uint256"
        },
        {
          "internalType": "uint256",
          "name": "",
          "type": "uint256"
        }
      ],
      "stateMutability": "view",
      "type": "function",
      "constant": true
    },
    {
      "inputs": [],
      "name": "withdrawConfirmedBalance",
      "outputs": [
        {
          "internalType": "uint256",
          "name": "",
          "type": "uint256"
        },
        {
          "internalType": "uint256",
          "name": "",
          "type": "uint256"
        }
      ],
      "stateMutability": "payable",
      "type": "function",
      "payable": true
    },
    {
      "inputs": [
        {
          "internalType": "uint256",
          "name": "_trackingId",
          "type": "uint256"
        }
      ],
      "name": "queryGamePricebyTI",
      "outputs": [
        {
          "internalType": "uint256",
          "name": "",
          "type": "uint256"
        },
        {
          "internalType": "uint256",
          "name": "",
          "type": "uint256"
        }
      ],
      "stateMutability": "view",
      "type": "function",
      "constant": true
    },
    {
      "inputs": [
        {
          "internalType": "uint256",
          "name": "_trackingId",
          "type": "uint256"
        }
      ],
      "name": "rentGame",
      "outputs": [
        {
          "internalType": "string",
          "name": "",
          "type": "string"
        }
      ],
      "stateMutability": "payable",
      "type": "function",
      "payable": true
    },
    {
      "inputs": [
        {
          "internalType": "uint256",
          "name": "_trackingId",
          "type": "uint256"
        }
      ],
      "name": "shipGame",
      "outputs": [
        {
          "internalType": "string",
          "name": "",
          "type": "string"
        }
      ],
      "stateMutability": "nonpayable",
      "type": "function"
    },
    {
      "inputs": [
        {
          "internalType": "uint256",
          "name": "_trackingId",
          "type": "uint256"
        }
      ],
      "name": "receiveGameRenter",
      "outputs": [
        {
          "internalType": "string",
          "name": "",
          "type": "string"
        }
      ],
      "stateMutability": "nonpayable",
      "type": "function"
    },
    {
      "inputs": [
        {
          "internalType": "uint256",
          "name": "_trackingId",
          "type": "uint256"
        }
      ],
      "name": "returnGame",
      "outputs": [
        {
          "internalType": "string",
          "name": "",
          "type": "string"
        }
      ],
      "stateMutability": "nonpayable",
      "type": "function"
    },
    {
      "inputs": [
        {
          "internalType": "uint256",
          "name": "_trackingId",
          "type": "uint256"
        }
      ],
      "name": "receiveGameOwner",
      "outputs": [
        {
          "internalType": "string",
          "name": "",
          "type": "string"
        }
      ],
      "stateMutability": "nonpayable",
      "type": "function"
    },
    {
      "inputs": [
        {
          "internalType": "uint256",
          "name": "_trackingId",
          "type": "uint256"
        }
      ],
      "name": "masterModify",
      "outputs": [],
      "stateMutability": "nonpayable",
      "type": "function"
    }
  ],
  "bytecode": "0x608060405260006005553480156200001657600080fd5b50620000376200002b6200009260201b60201c565b6200009a60201b60201c565b739326bfa02add2366b30bacb125260af641031331600160006101000a81548173ffffffffffffffffffffffffffffffffffffffff021916908373ffffffffffffffffffffffffffffffffffffffff1602179055506200015e565b600033905090565b60008060009054906101000a900473ffffffffffffffffffffffffffffffffffffffff169050816000806101000a81548173ffffffffffffffffffffffffffffffffffffffff021916908373ffffffffffffffffffffffffffffffffffffffff1602179055508173ffffffffffffffffffffffffffffffffffffffff168173ffffffffffffffffffffffffffffffffffffffff167f8be0079c531659141344cd1fd0a4f28419497f9722a3daafe3b4186f6b6457e060405160405180910390a35050565b612bca806200016e6000396000f3fe6080604052600436106101145760003560e01c806369742aa8116100a0578063da235b2211610064578063da235b22146103fe578063ecdae41b14610429578063f078785814610466578063f2fde38b146104a3578063f3130972146104cc57610114565b806369742aa8146103055780636f0b97a714610342578063715018a61461037f5780638da5cb5b14610396578063b97b0f26146103c157610114565b8063286a1f5e116100e7578063286a1f5e146101e65780632d191d851461020f57806337f428411461024d5780633a91dff51461028b578063428f6822146102c857610114565b8063117a5b901461011957806314efee001461015e5780632146d89314610189578063264d2f14146101c7575b600080fd5b34801561012557600080fd5b50610140600480360381019061013b9190611f04565b6104fc565b60405161015599989796959493929190611ff8565b60405180910390f35b34801561016a57600080fd5b50610173610597565b6040516101809190612085565b60405180910390f35b34801561019557600080fd5b506101b060048036038101906101ab91906120a0565b6105a1565b6040516101be9291906120f3565b60405180910390f35b6101cf6107a6565b6040516101dd9291906120f3565b60405180910390f35b3480156101f257600080fd5b5061020d60048036038101906102089190611f04565b6107b4565b005b34801561021b57600080fd5b5061023660048036038101906102319190611f04565b610872565b6040516102449291906120f3565b60405180910390f35b34801561025957600080fd5b50610274600480360381019061026f919061215a565b6108ac565b6040516102829291906120f3565b60405180910390f35b34801561029757600080fd5b506102b260048036038101906102ad9190611f04565b610a11565b6040516102bf9190612220565b60405180910390f35b3480156102d457600080fd5b506102ef60048036038101906102ea9190611f04565b610c79565b6040516102fc9190612220565b60405180910390f35b34801561031157600080fd5b5061032c6004803603810190610327919061215a565b611093565b6040516103399190612085565b60405180910390f35b34801561034e57600080fd5b5061036960048036038101906103649190611f04565b6110ab565b6040516103769190612220565b60405180910390f35b34801561038b57600080fd5b50610394611313565b005b3480156103a257600080fd5b506103ab61139b565b6040516103b89190612251565b60405180910390f35b3480156103cd57600080fd5b506103e860048036038101906103e39190611f04565b6113c4565b6040516103f59190612220565b60405180910390f35b34801561040a57600080fd5b5061041361162c565b6040516104209190612085565b60405180910390f35b34801561043557600080fd5b50610450600480360381019061044b919061215a565b6116db565b60405161045d9190612085565b60405180910390f35b34801561047257600080fd5b5061048d60048036038101906104889190611f04565b6116f3565b60405161049a9190612220565b60405180910390f35b3480156104af57600080fd5b506104ca60048036038101906104c5919061215a565b61195b565b005b6104e660048036038101906104e19190611f04565b611a53565b6040516104f39190612220565b60405180910390f35b60026020528060005260406000206000915090508060000154908060010154908060020154908060030154908060040160009054906101000a900473ffffffffffffffffffffffffffffffffffffffff16908060040160149054906101000a900460ff16908060050154908060060154908060070160009054906101000a900473ffffffffffffffffffffffffffffffffffffffff16905089565b6000600554905090565b6000806001600560008282546105b7919061229b565b9250508190555060405180610120016040528086815260200160055481526020018581526020018481526020013373ffffffffffffffffffffffffffffffffffffffff1681526020016001600681111561061457610613611f81565b5b81526020016000815260200160008152602001600073ffffffffffffffffffffffffffffffffffffffff168152506002600060055481526020019081526020016000206000820151816000015560208201518160010155604082015181600201556060820151816003015560808201518160040160006101000a81548173ffffffffffffffffffffffffffffffffffffffff021916908373ffffffffffffffffffffffffffffffffffffffff16021790555060a08201518160040160146101000a81548160ff021916908360068111156106f1576106f0611f81565b5b021790555060c0820151816005015560e082015181600601556101008201518160070160006101000a81548173ffffffffffffffffffffffffffffffffffffffff021916908373ffffffffffffffffffffffffffffffffffffffff1602179055509050507f1514ac551452196cfee486346bb313635c81b22c7cc00f5959aabc3d4b9c3a278560055433878760405161078e9594939291906122f1565b60405180910390a18460055491509150935093915050565b600080600080915091509091565b6107bc611dfd565b73ffffffffffffffffffffffffffffffffffffffff166107da61139b565b73ffffffffffffffffffffffffffffffffffffffff1614610830576040517f08c379a000000000000000000000000000000000000000000000000000000000815260040161082790612390565b60405180910390fd5b60066002600083815260200190815260200160002060040160146101000a81548160ff0219169083600681111561086a57610869611f81565b5b021790555050565b6000806002600084815260200190815260200160002060020154600260008581526020019081526020016000206003015491509150915091565b6000808273ffffffffffffffffffffffffffffffffffffffff163373ffffffffffffffffffffffffffffffffffffffff16146108e757600080fd5b6000600360008573ffffffffffffffffffffffffffffffffffffffff1673ffffffffffffffffffffffffffffffffffffffff1681526020019081526020016000205414158061097657506000600460008573ffffffffffffffffffffffffffffffffffffffff1673ffffffffffffffffffffffffffffffffffffffff1681526020019081526020016000205414155b15610a0457600360008473ffffffffffffffffffffffffffffffffffffffff1673ffffffffffffffffffffffffffffffffffffffff16815260200190815260200160002054600460008573ffffffffffffffffffffffffffffffffffffffff1673ffffffffffffffffffffffffffffffffffffffff1681526020019081526020016000205491509150610a0c565b600080915091505b915091565b6060813373ffffffffffffffffffffffffffffffffffffffff166002600083815260200190815260200160002060070160009054906101000a900473ffffffffffffffffffffffffffffffffffffffff1673ffffffffffffffffffffffffffffffffffffffff1614610ab8576040517f08c379a0000000000000000000000000000000000000000000000000000000008152600401610aaf90612422565b60405180910390fd5b8260036006811115610acd57610acc611f81565b5b6002600083815260200190815260200160002060040160149054906101000a900460ff166006811115610b0357610b02611f81565b5b14610b43576040517f08c379a0000000000000000000000000000000000000000000000000000000008152600401610b3a906124da565b60405180910390fd5b60046002600086815260200190815260200160002060040160146101000a81548160ff02191690836006811115610b7d57610b7c611f81565b5b02179055507f8ab866b3478134948c30a0cddaeb95948ec8751c892b6c71b154e255cdd5cec0600260008681526020019081526020016000206000015460026000878152602001908152602001600020600101546002600088815260200190815260200160002060070160009054906101000a900473ffffffffffffffffffffffffffffffffffffffff166002600089815260200190815260200160002060040160009054906101000a900473ffffffffffffffffffffffffffffffffffffffff16604051610c4f9493929190612559565b60405180910390a1604051806060016040528060268152602001612b4c6026913992505050919050565b606060006006811115610c8f57610c8e611f81565b5b6002600084815260200190815260200160002060040160149054906101000a900460ff166006811115610cc557610cc4611f81565b5b1415610d08576040518060400160405280600781526020017f496e76616c696400000000000000000000000000000000000000000000000000815250905061108e565b60016006811115610d1c57610d1b611f81565b5b6002600084815260200190815260200160002060040160149054906101000a900460ff166006811115610d5257610d51611f81565b5b1415610d95576040518060400160405280600981526020017f417661696c61626c650000000000000000000000000000000000000000000000815250905061108e565b60026006811115610da957610da8611f81565b5b6002600084815260200190815260200160002060040160149054906101000a900460ff166006811115610ddf57610dde611f81565b5b1415610e22576040518060400160405280600881526020017f5265736572766564000000000000000000000000000000000000000000000000815250905061108e565b60036006811115610e3657610e35611f81565b5b6002600084815260200190815260200160002060040160149054906101000a900460ff166006811115610e6c57610e6b611f81565b5b1415610eaf576040518060400160405280600f81526020017f53686970706564546f52656e7465720000000000000000000000000000000000815250905061108e565b60046006811115610ec357610ec2611f81565b5b6002600084815260200190815260200160002060040160149054906101000a900460ff166006811115610ef957610ef8611f81565b5b1415610f3c576040518060400160405280600681526020017f52656e7465640000000000000000000000000000000000000000000000000000815250905061108e565b60056006811115610f5057610f4f611f81565b5b6002600084815260200190815260200160002060040160149054906101000a900460ff166006811115610f8657610f85611f81565b5b1415610fc9576040518060400160405280600e81526020017f53686970706564546f4f776e6572000000000000000000000000000000000000815250905061108e565b600680811115610fdc57610fdb611f81565b5b6002600084815260200190815260200160002060040160149054906101000a900460ff16600681111561101257611011611f81565b5b1415611055576040518060400160405280600f81526020017f52656e74616c436f6d706c657465640000000000000000000000000000000000815250905061108e565b6040518060400160405280600781526020017f496e76616c69640000000000000000000000000000000000000000000000000081525090505b919050565b60046020528060005260406000206000915090505481565b6060813373ffffffffffffffffffffffffffffffffffffffff166002600083815260200190815260200160002060040160009054906101000a900473ffffffffffffffffffffffffffffffffffffffff1673ffffffffffffffffffffffffffffffffffffffff1614611152576040517f08c379a000000000000000000000000000000000000000000000000000000000815260040161114990612610565b60405180910390fd5b826002600681111561116757611166611f81565b5b6002600083815260200190815260200160002060040160149054906101000a900460ff16600681111561119d5761119c611f81565b5b146111dd576040517f08c379a00000000000000000000000000000000000000000000000000000000081526004016111d4906126a2565b60405180910390fd5b60036002600086815260200190815260200160002060040160146101000a81548160ff0219169083600681111561121757611216611f81565b5b02179055507fb7335d34db340366ad91abf4d197c60a7d7bc92e71c0daaa7cd400a1254cad32600260008681526020019081526020016000206000015460026000878152602001908152602001600020600101546002600088815260200190815260200160002060070160009054906101000a900473ffffffffffffffffffffffffffffffffffffffff166002600089815260200190815260200160002060040160009054906101000a900473ffffffffffffffffffffffffffffffffffffffff166040516112e99493929190612559565b60405180910390a1604051806060016040528060238152602001612b726023913992505050919050565b61131b611dfd565b73ffffffffffffffffffffffffffffffffffffffff1661133961139b565b73ffffffffffffffffffffffffffffffffffffffff161461138f576040517f08c379a000000000000000000000000000000000000000000000000000000000815260040161138690612390565b60405180910390fd5b6113996000611e05565b565b60008060009054906101000a900473ffffffffffffffffffffffffffffffffffffffff16905090565b6060813373ffffffffffffffffffffffffffffffffffffffff166002600083815260200190815260200160002060040160009054906101000a900473ffffffffffffffffffffffffffffffffffffffff1673ffffffffffffffffffffffffffffffffffffffff161461146b576040517f08c379a000000000000000000000000000000000000000000000000000000000815260040161146290612610565b60405180910390fd5b82600560068111156114805761147f611f81565b5b6002600083815260200190815260200160002060040160149054906101000a900460ff1660068111156114b6576114b5611f81565b5b146114f6576040517f08c379a00000000000000000000000000000000000000000000000000000000081526004016114ed90612734565b60405180910390fd5b60066002600086815260200190815260200160002060040160146101000a81548160ff021916908360068111156115305761152f611f81565b5b02179055507fcb58afe26b749825f76600180a359c75d8f4edffc4eaf319c0663ddc92707c2c600260008681526020019081526020016000206000015460026000878152602001908152602001600020600101546002600088815260200190815260200160002060070160009054906101000a900473ffffffffffffffffffffffffffffffffffffffff166002600089815260200190815260200160002060040160009054906101000a900473ffffffffffffffffffffffffffffffffffffffff166040516116029493929190612559565b60405180910390a16040518060600160405280603d8152602001612b0f603d913992505050919050565b600080600080600080600160009054906101000a900473ffffffffffffffffffffffffffffffffffffffff1673ffffffffffffffffffffffffffffffffffffffff1663feaf968c6040518163ffffffff1660e01b815260040160a060405180830381865afa1580156116a2573d6000803e3d6000fd5b505050506040513d601f19601f820116820180604052508101906116c691906127e1565b94509450945094509450819550505050505090565b60036020528060005260406000206000915090505481565b6060813373ffffffffffffffffffffffffffffffffffffffff166002600083815260200190815260200160002060070160009054906101000a900473ffffffffffffffffffffffffffffffffffffffff1673ffffffffffffffffffffffffffffffffffffffff161461179a576040517f08c379a000000000000000000000000000000000000000000000000000000000815260040161179190612422565b60405180910390fd5b82600460068111156117af576117ae611f81565b5b6002600083815260200190815260200160002060040160149054906101000a900460ff1660068111156117e5576117e4611f81565b5b14611825576040517f08c379a000000000000000000000000000000000000000000000000000000000815260040161181c906128ce565b60405180910390fd5b60056002600086815260200190815260200160002060040160146101000a81548160ff0219169083600681111561185f5761185e611f81565b5b02179055507f21077aa5509028db270d4a455a256c98b45637712e8bfd87367bae928139d6a8600260008681526020019081526020016000206000015460026000878152602001908152602001600020600101546002600088815260200190815260200160002060070160009054906101000a900473ffffffffffffffffffffffffffffffffffffffff166002600089815260200190815260200160002060040160009054906101000a900473ffffffffffffffffffffffffffffffffffffffff166040516119319493929190612559565b60405180910390a1604051806060016040528060338152602001612adc6033913992505050919050565b611963611dfd565b73ffffffffffffffffffffffffffffffffffffffff1661198161139b565b73ffffffffffffffffffffffffffffffffffffffff16146119d7576040517f08c379a00000000000000000000000000000000000000000000000000000000081526004016119ce90612390565b60405180910390fd5b600073ffffffffffffffffffffffffffffffffffffffff168173ffffffffffffffffffffffffffffffffffffffff161415611a47576040517f08c379a0000000000000000000000000000000000000000000000000000000008152600401611a3e90612960565b60405180910390fd5b611a5081611e05565b50565b6060813373ffffffffffffffffffffffffffffffffffffffff166002600083815260200190815260200160002060040160009054906101000a900473ffffffffffffffffffffffffffffffffffffffff1673ffffffffffffffffffffffffffffffffffffffff161415611afb576040517f08c379a0000000000000000000000000000000000000000000000000000000008152600401611af2906129f2565b60405180910390fd5b8260016006811115611b1057611b0f611f81565b5b6002600083815260200190815260200160002060040160149054906101000a900460ff166006811115611b4657611b45611f81565b5b14611b86576040517f08c379a0000000000000000000000000000000000000000000000000000000008152600401611b7d90612a84565b60405180910390fd5b600280600086815260200190815260200160002060040160146101000a81548160ff02191690836006811115611bbf57611bbe611f81565b5b0217905550336002600086815260200190815260200160002060070160006101000a81548173ffffffffffffffffffffffffffffffffffffffff021916908373ffffffffffffffffffffffffffffffffffffffff1602179055507f5f5e84ee3f1fe881bcade10467f28456711c7cd4c7aca7e5ebde1bb8d0f1ffca600260008681526020019081526020016000206000015460026000878152602001908152602001600020600101546002600088815260200190815260200160002060070160009054906101000a900473ffffffffffffffffffffffffffffffffffffffff166002600089815260200190815260200160002060040160009054906101000a900473ffffffffffffffffffffffffffffffffffffffff16604051611ce69493929190612559565b60405180910390a134600360003373ffffffffffffffffffffffffffffffffffffffff1673ffffffffffffffffffffffffffffffffffffffff1681526020019081526020016000206000828254611d3d919061229b565b925050819055507ffdc108b575d08570a36bf94bdbd25a35cacfb91b4d8dd560b17aaa99b4884f613334600360003373ffffffffffffffffffffffffffffffffffffffff1673ffffffffffffffffffffffffffffffffffffffff16815260200190815260200160002054604051611db693929190612aa4565b60405180910390a16040518060400160405280601381526020017f7375636365737366756c6c792072656e7465640000000000000000000000000081525092505050919050565b600033905090565b60008060009054906101000a900473ffffffffffffffffffffffffffffffffffffffff169050816000806101000a81548173ffffffffffffffffffffffffffffffffffffffff021916908373ffffffffffffffffffffffffffffffffffffffff1602179055508173ffffffffffffffffffffffffffffffffffffffff168173ffffffffffffffffffffffffffffffffffffffff167f8be0079c531659141344cd1fd0a4f28419497f9722a3daafe3b4186f6b6457e060405160405180910390a35050565b600080fd5b6000819050919050565b611ee181611ece565b8114611eec57600080fd5b50565b600081359050611efe81611ed8565b92915050565b600060208284031215611f1a57611f19611ec9565b5b6000611f2884828501611eef565b91505092915050565b611f3a81611ece565b82525050565b600073ffffffffffffffffffffffffffffffffffffffff82169050919050565b6000611f6b82611f40565b9050919050565b611f7b81611f60565b82525050565b7f4e487b7100000000000000000000000000000000000000000000000000000000600052602160045260246000fd5b60078110611fc157611fc0611f81565b5b50565b6000819050611fd282611fb0565b919050565b6000611fe282611fc4565b9050919050565b611ff281611fd7565b82525050565b60006101208201905061200e600083018c611f31565b61201b602083018b611f31565b612028604083018a611f31565b6120356060830189611f31565b6120426080830188611f72565b61204f60a0830187611fe9565b61205c60c0830186611f31565b61206960e0830185611f31565b612077610100830184611f72565b9a9950505050505050505050565b600060208201905061209a6000830184611f31565b92915050565b6000806000606084860312156120b9576120b8611ec9565b5b60006120c786828701611eef565b93505060206120d886828701611eef565b92505060406120e986828701611eef565b9150509250925092565b60006040820190506121086000830185611f31565b6121156020830184611f31565b9392505050565b600061212782611f40565b9050919050565b6121378161211c565b811461214257600080fd5b50565b6000813590506121548161212e565b92915050565b6000602082840312156121705761216f611ec9565b5b600061217e84828501612145565b91505092915050565b600081519050919050565b600082825260208201905092915050565b60005b838110156121c15780820151818401526020810190506121a6565b838111156121d0576000848401525b50505050565b6000601f19601f8301169050919050565b60006121f282612187565b6121fc8185612192565b935061220c8185602086016121a3565b612215816121d6565b840191505092915050565b6000602082019050818103600083015261223a81846121e7565b905092915050565b61224b8161211c565b82525050565b60006020820190506122666000830184612242565b92915050565b7f4e487b7100000000000000000000000000000000000000000000000000000000600052601160045260246000fd5b60006122a682611ece565b91506122b183611ece565b9250827fffffffffffffffffffffffffffffffffffffffffffffffffffffffffffffffff038211156122e6576122e561226c565b5b828201905092915050565b600060a0820190506123066000830188611f31565b6123136020830187611f31565b6123206040830186612242565b61232d6060830185611f31565b61233a6080830184611f31565b9695505050505050565b7f4f776e61626c653a2063616c6c6572206973206e6f7420746865206f776e6572600082015250565b600061237a602083612192565b915061238582612344565b602082019050919050565b600060208201905081810360008301526123a98161236d565b9050919050565b7f4f6e6c792067616d652072656e746572732063616e20706572666f726d20746860008201527f697320616374696f6e0000000000000000000000000000000000000000000000602082015250565b600061240c602983612192565b9150612417826123b0565b604082019050919050565b6000602082019050818103600083015261243b816123ff565b9050919050565b7f5468697320616374696f6e2063616e206f6e6c7920626520646f6e6520746f2060008201527f612067616d6520696e202753686970706564546f52656e74657227207374617460208201527f7573000000000000000000000000000000000000000000000000000000000000604082015250565b60006124c4604283612192565b91506124cf82612442565b606082019050919050565b600060208201905081810360008301526124f3816124b7565b9050919050565b6000819050919050565b600061251f61251a61251584611f40565b6124fa565b611f40565b9050919050565b600061253182612504565b9050919050565b600061254382612526565b9050919050565b61255381612538565b82525050565b600060808201905061256e6000830187611f31565b61257b6020830186611f31565b612588604083018561254a565b612595606083018461254a565b95945050505050565b7f4f6e6c792067616d65206f776e6572732063616e20706572666f726d2074686960008201527f7320616374696f6e000000000000000000000000000000000000000000000000602082015250565b60006125fa602883612192565b91506126058261259e565b604082019050919050565b60006020820190508181036000830152612629816125ed565b9050919050565b7f5468697320616374696f6e2063616e206f6e6c7920626520646f6e6520746f2060008201527f612067616d6520696e2027526573657276656427207374617475730000000000602082015250565b600061268c603b83612192565b915061269782612630565b604082019050919050565b600060208201905081810360008301526126bb8161267f565b9050919050565b7f5468697320616374696f6e2063616e206f6e6c7920626520646f6e6520746f2060008201527f67616d6520696e202753686970706564546f4f776e6572272073746174757300602082015250565b600061271e603f83612192565b9150612729826126c2565b604082019050919050565b6000602082019050818103600083015261274d81612711565b9050919050565b600069ffffffffffffffffffff82169050919050565b61277381612754565b811461277e57600080fd5b50565b6000815190506127908161276a565b92915050565b6000819050919050565b6127a981612796565b81146127b457600080fd5b50565b6000815190506127c6816127a0565b92915050565b6000815190506127db81611ed8565b92915050565b600080600080600060a086880312156127fd576127fc611ec9565b5b600061280b88828901612781565b955050602061281c888289016127b7565b945050604061282d888289016127cc565b935050606061283e888289016127cc565b925050608061284f88828901612781565b9150509295509295909350565b7f5468697320616374696f6e2063616e206f6e6c7920626520646f6e6520746f2060008201527f612067616d6520696e202752656e746564272073746174757300000000000000602082015250565b60006128b8603983612192565b91506128c38261285c565b604082019050919050565b600060208201905081810360008301526128e7816128ab565b9050919050565b7f4f776e61626c653a206e6577206f776e657220697320746865207a65726f206160008201527f6464726573730000000000000000000000000000000000000000000000000000602082015250565b600061294a602683612192565b9150612955826128ee565b604082019050919050565b600060208201905081810360008301526129798161293d565b9050919050565b7f4f6e6c79206e6f6e2d6f776e6572732063616e20706572666f726d207468697360008201527f20616374696f6e00000000000000000000000000000000000000000000000000602082015250565b60006129dc602783612192565b91506129e782612980565b604082019050919050565b60006020820190508181036000830152612a0b816129cf565b9050919050565b7f5468697320616374696f6e2063616e206f6e6c7920626520646f6e6520746f2060008201527f612067616d6520776974682027417661696c61626c6527207374617475730000602082015250565b6000612a6e603e83612192565b9150612a7982612a12565b604082019050919050565b60006020820190508181036000830152612a9d81612a61565b9050919050565b6000606082019050612ab96000830186612242565b612ac66020830185611f31565b612ad36040830184611f31565b94935050505056fe7375636365737366756c6c792073686970706564207468652072656e7465642067616d65206261636b20746f206f776e657221546865206f776e6572207375636365737366756c6c79207265636569766564207468652067616d652e2052656e74616c20697320636f6d706c6574652e7375636365737366756c6c79207265636569766564207468652072656e7465642067616d65217375636365737366756c6c7920736869707065642072657365727665642067616d6521a26469706673582212209e4c35c7fe65004b16eaf55f06f17fbf9e1f522786cae2ca068dfec61568e38464736f6c634300080a0033",
  "immutableReferences": {},
  "source": "// SPDX-License-Identifier: MIT\npragma solidity 0.8.10; //Specific solidity pragma in use \npragma experimental ABIEncoderV2;\n\n\nimport \"@chainlink/contracts/src/v0.8/interfaces/AggregatorV3Interface.sol\";\nimport 'openzeppelin-solidity/contracts/access/Ownable.sol';\n\n/// @title Decentralized Switch Game Rental Platform\n/// @author Dabin Lee\n/// @notice You can use this contract to register and rent Nintendo Switch games where deposit is held by the smart contract\ncontract DeSwitch is Ownable {\n\n  //AggregatorV3Interface internal priceFeed is used to fetch price feed for ETH/USD from chainlink Oracle. \n  AggregatorV3Interface internal priceFeed;\n\n  //Declare events \n  // To be used once the payment functions have been implemented\n  // event Deposited(address indexed payee, uint256 weiAmount);\n  // event Withdrawn(address indexed payee, uint256 weiAmount);\n  event LogForGameRegistered(uint gameId, uint registerId, address gameOwnerAddress, uint rentalRate, uint depositRequired);\n  event LogForGameRentalRequested(uint gameId, uint registerId, address gameRenter, address gameOwnerAddress);\n  event LogForGameShippedToRenter(uint gameId, uint registerId, address gameRenter, address gameOwnerAddress);\n  event LogForGameReceivedByRenter(uint gameId, uint registerId, address gameRenter, address gameOwnerAddress);\n  event LogForGameShippedToOwner(uint gameId, uint registerId, address gameRenter, address gameOwnerAddress);\n  event LogForGameReceivedByOwner(uint gameId, uint registerId, address gameRenter, address gameOwnerAddress);\n  event LogForPendingBalanceIncrease(address ownerAddress, uint increaseValue, uint newBalance);\n  event LogForConfirmedBalanceIncrease(address ownerAddress, uint increaseValue, uint newBalance);\n\n  // enum gameState is an enum object that describes game's status in blockchain to aid in validating pre-requisites with modifiers\n  enum gameState {\n    Invalid,\n    Available,\n    Reserved,\n    ShippedToRenter,\n    Rented,\n    ShippedToOwner,\n    RentalCompleted\n  }\n\n  // struct Game is an object that describes the game object being rented out within the blockchain.\n  struct Game{\n    /// @param gameid is unique game ID assiged by Nintendo upon release of a game Title\n    /// @param gregisterId is a unique reference number assigned during game registration\n    /// @param rentalRate is rental rate in wei, charged per day\n    /// @param depositRequired is the deposit required in wei, to be used to offset rental charges upon successful completion of rental\n    /// @param gameOwner is the payable wallet address of the game owner where the rental charges will be transferred to\n    /// @param state is an enum gameState which describes the state of a unqiue game such as \"Available\" or \"Rented\"\n    /// @param timeRentalStart is a uint value (unixtime) which logs down when the rental was started (When the renter received the game from the owner)\n    /// @param timeRentalEnd is a uint value (unixtime) which logs down when the rental was completed (When the owner received the game from the renter)\n    /// @param gameRenter is the payable wallet address of the game renter where the deposit minus rental charges will be transferred to\n    uint gameid;\n    uint gregisterId;\n    uint rentalRate;\n    uint depositRequired;\n    address payable gameOwner;\n    gameState state;\n    uint timeRentalStart;\n    uint timeRentalEnd;\n    address payable gameRenter;\n  }\n  \n  // mapping games contains games while using trackingId as a key\n  mapping (uint => Game) public games;\n  //pendingBalances to be implemented and used by other functions to log the amounts being held by smart contract which can only be withdrawn once the rental transaction completes.\n  mapping (address => uint) public pendingBalances;\n  //confirmedBalances to be implemented and used by other functions to log the amounts being held by smart contact which is ready to be withdrawn by the game owner, as a reward for renting out the game.\n  mapping (address => uint) public confirmedBalances;\n\n  /// @notice registerId is a reference counter which starts at 0 and gets added everytime there is a successful registeration of game for rental\n  uint registerId = 0 ;\n\n  /// @notice notGameOwner modifier requires the function to be by a person other than the game owner. (Example - to prevent game owner from renting his/her own game by mistake)\n  modifier notGameOwner(uint _trackingId) {\n    require(games[_trackingId].gameOwner != msg.sender, \"Only non-owners can perform this action\");\n    _;\n  }\n\n  /// @notice isGameOwner modifier validates if the function is being called by the game owner. (Example - calling functions such as \"shipGame\")\n  modifier isGameOwner(uint _trackingId) {\n    require(games[_trackingId].gameOwner == msg.sender, \"Only game owners can perform this action\");\n    _;\n  }\n\n  /// @notice isGameRenter modifier validates if the function is being called by the game renter. (Example - calling functions such as \"gameReceived\")\n  modifier isGameRenter(uint _trackingId) {\n    require(games[_trackingId].gameRenter == msg.sender, \"Only game renters can perform this action\");\n    _;\n  }\n\n  /// @notice isAvailableGame modifier validates if the game with tracking ID of _trackingId has state set to \"Available\"\n  modifier isAvailableGame(uint _trackingId){\n    require(games[_trackingId].state == gameState.Available, \"This action can only be done to a game with 'Available' status\");\n    _;\n  }\n\n  /// @notice isShippedToRenterGame modifier validates if the game with tracking ID of _trackingId has state set to \"shippedToRenter\"\n  modifier isShippedToRenterGame(uint _trackingId){\n    require(games[_trackingId].state == gameState.ShippedToRenter, \"This action can only be done to a game in 'ShippedToRenter' status\");\n    _;\n  }\n  \n  /// @notice isReservedGame modifier validates if the game with the tracking ID of _trackingId has state set to \"Reserved\"\n  modifier isReservedGame(uint _trackingId){\n    require(games[_trackingId].state == gameState.Reserved, \"This action can only be done to a game in 'Reserved' status\");\n    _;\n  }\n\n  /// @notice isRentedGame modifer validates if the game with the tracking ID of _trackignId has state set to \"Rented\"\n  modifier isRentedGame(uint _trackingId){\n    require(games[_trackingId].state == gameState.Rented,\"This action can only be done to a game in 'Rented' status\");\n    _;\n  }\n\n  /// @notice isShippedToOwnerGame modifer validates if the game with the tracking ID of _trackingId has state set to \"ShippedToOwner\"\n  modifier isShippedToOwnerGame(uint _trackingId){\n    require(games[_trackingId].state == gameState.ShippedToOwner, \"This action can only be done to game in 'ShippedToOwner' status\");\n    _;\n  }\n    \n  constructor() public {\n      //We make use of AgrregatorV3Interface to implement our own function that returns timestamp of a latest price feed round from Chainlink \n      priceFeed = AggregatorV3Interface(0x9326BFA02ADD2366b30bacB125260Af641031331);\n  }\n\n  /// @notice queryGameCount is a publi view function which returns current value of registerId, which equals the # of registered games in the smart contract\n  function queryGameCount() public view returns(uint){\n    return (registerId);\n  }\n\n  /// @notice getLatestPrice function uses Chainlink's Data Feeds API to provide timestamp, price of ETH/USD pair so users can make more informed decision.\n  /// TODO to be used once the payment based on rental period gets implemented, Smart Contract will compare the timestamp and calculate the rental fee.\n  function getTimeStamp() public view returns (uint) {\n    (\n        uint80 roundID, \n        int price,\n        uint startedAt,\n        uint timeStamp,\n        uint80 answeredInRound\n    ) = priceFeed.latestRoundData();\n    return timeStamp;\n  }\n\n  \n  /// @notice registerGame\n  /// @param _gameId takes in the game registration ID according to http://nswdb.com/\n  /// @param _rentalRate takes in the rental charges per day in wei\n  /// @param _depositRequired takes in the deposit charge for the whole game in wei\n  function registerGame(uint _gameId, uint _rentalRate, uint _depositRequired) public returns(uint, uint){\n    //should be a public function as anyone should be able to put their game for sale/rental\n    //Users register games they own (Ex. Switch Games) as \"Available\"\n    //GameID refers to gameId from http://nswdb.com/ to avoid confusion between different game titles\n    //Require checks for validity of values submitted for required arguments\n    //Set gameState as \"Available\"\n    //Set gameOwner as msg.sender\n    //Set gameBuyer and gameRenter will be empty and get updated once a buyer triggers the rentGame function\n    //returns true/false if registeration was successful and a trackingId tagged to the registered game\n    //Increase the registerId counter by 1 so that the next game gets registered with the next registerId.\n    //Consider hashing/randomizing instead of incremental values, can consider sha256(msg.sender+registerID)\n    registerId += 1;\n    //Create a Game struct with the provided values and add it to the address -> game mapping\n    games[registerId] = Game({\n      gameid : _gameId,\n      gregisterId : registerId,\n      rentalRate : _rentalRate,\n      depositRequired : _depositRequired,\n      gameOwner : payable(msg.sender),\n      state : gameState.Available,\n      timeRentalStart : 0,\n      timeRentalEnd : 0,\n      gameRenter : payable(address(0))\n    });\n\n    //Emits appropriate event to log the chagnes \n    emit LogForGameRegistered(_gameId, registerId, msg.sender, _rentalRate, _depositRequired);\n    return (_gameId, registerId);\n  }\n\n  /// @notice queryGameStaqtusbyTI\n  /// @param _trackingId takes in the game registration ID according to http://nswdb.com/\n  function queryGameStatusbyTI(uint _trackingId) public view returns(string memory){\n    if (games[_trackingId].state == gameState.Invalid) return \"Invalid\";\n    if (games[_trackingId].state == gameState.Available) return \"Available\";\n    if (games[_trackingId].state == gameState.Reserved) return \"Reserved\";\n    if (games[_trackingId].state == gameState.ShippedToRenter) return \"ShippedToRenter\";\n    if (games[_trackingId].state == gameState.Rented) return \"Rented\";\n    if (games[_trackingId].state == gameState.ShippedToOwner) return \"ShippedToOwner\";\n    if (games[_trackingId].state == gameState.RentalCompleted) return \"RentalCompleted\";\n    return \"Invalid\";\n  }\n\n  /// @notice queryBalance takes in the address and returns the value of pending and confirmed Balance for withdrawal\n  /// @param _address of the account to be queried for balance check\n  /// TODO this is to be implemented but out of scope for the current phase of the project.\n  function queryBalance(address _address) public view returns(uint, uint){\n    require(msg.sender == _address);\n    if (pendingBalances[_address] != 0 || confirmedBalances[_address] != 0){\n      return (pendingBalances[_address], confirmedBalances[_address]);\n    }else{\n      return (0,0);\n    }\n  }\n\n  /// @notice withdrawConfirmedBalance function withdraw \n  /// TODO this is to be implemented but out of scope for the current phase of the project.\n  function withdrawConfirmedBalance() public payable returns(uint,uint){\n    return (0,0);\n  }\n\n  /// @notice queryGamePricebyTI takes in the _trackingId and return the rental rate and deposit fee in wei.\n  /// @param _trackingId takes in the trackingID  value of the game\n  function queryGamePricebyTI(uint _trackingId) public view returns(uint, uint){\n    //check if the game ID is valid\n    return (games[_trackingId].rentalRate, games[_trackingId].depositRequired);\n  }\n\n  /// @notice rentGame takes in _TrackingID and changes the gameState of existing game from Available to Reserved.\n  /// @param _trackingId takes in the trackingID value of the game\n  function rentGame(uint _trackingId) public payable notGameOwner(_trackingId) isAvailableGame(_trackingId) returns(string memory) {\n    //should be \"payable\" as this requires ether to be transffered to the contract\n    //should be \"public\" as anyone should be able to rent the game \n    //Verify the state of trackingId to be \"Available\" using a modifier\n    //return true or false if the rentGame attempt was successful\n    //check if msg.value == games[trackingId].rentalRate\n    //at the end of this function the state of the Game should be set to \"TransactionInProgress\"\n    \n    games[_trackingId].state = gameState.Reserved;\n    games[_trackingId].gameRenter = payable(msg.sender);\n    // games[registerIdList[_trackignId]]\n\n    //Emit event\n    // event LogForGameRentalRequested(uint gameId, uint registerId, address gameRenter, address gameOwnerAddress);\n    emit LogForGameRentalRequested(games[_trackingId].gameid, games[_trackingId].gregisterId, games[_trackingId].gameRenter, games[_trackingId].gameOwner);\n    pendingBalances[msg.sender] += msg.value;\n    emit LogForPendingBalanceIncrease(msg.sender, msg.value, pendingBalances[msg.sender]);\n    return \"successfully rented\";\n  }\n\n  /// @notice shipGame takes in the _trackingId and changes the gameState of existing game from Reserved to ShippedToRenter.\n  /// @param _trackingId takes in the trackingId value of the game\n  function shipGame(uint _trackingId) public isGameOwner(_trackingId) isReservedGame(_trackingId) returns(string memory){\n    //To be called by the gameOwner to account for state update to \"Shipped\"\n    //Only the gameOwner with same account address as games[trackingId].gameOnwer can execute this function\n    //Require the games[trackingId].state to be \"AvailableForRent\" or \"AvailableForBuy\"\n    games[_trackingId].state = gameState.ShippedToRenter;\n    emit LogForGameShippedToRenter(games[_trackingId].gameid, games[_trackingId].gregisterId, games[_trackingId].gameRenter, games[_trackingId].gameOwner);\n    return \"successfully shipped reserved game!\";\n  } \n\n  /// @notice receiveGameRenter takes in the _trackingId and changes the gameState of existing game from ShippedToRenter to Renter.\n  /// @param _trackingId takes in the trackingId value of the game\n  function receiveGameRenter(uint _trackingId) public isGameRenter(_trackingId) isShippedToRenterGame(_trackingId) returns(string memory){\n    //To be called by the gameBuyer or gameRenter to account for state change to \"Rented\" or \"Sold\"\n    //This function triggers payment to the gameOwner address if the transaction completed was \"buy\" instead of \"rent\"\n    //This function makes the time to be loggged as the start of rental as timeRentalStart\n\n    // // Uncomment for deployment on Kovan as this does not work on local truffle deployment\n    // (\n    //   uint80 roundID, \n    //   int price,\n    //   uint startedAt,\n    //   uint timeStamp,\n    //   uint80 answeredInRound\n    // ) = priceFeed.latestRoundData();\n\n    //Update gameState\n    games[_trackingId].state = gameState.Rented;\n\n    // TODO below is to be \"enabled\" once the payment features are implemented.\n    // games[_trackingId].timeRentalStart = timeStamp;\n    // emit LogForGameReceivedByRenter(games[_trackingId].gameid, games[_trackingId].gregisterId, games[_trackingId].gameRenter, games[_trackingId].gameOwner, games[_trackingId].timeRentalStart);\n    emit LogForGameReceivedByRenter(games[_trackingId].gameid, games[_trackingId].gregisterId, games[_trackingId].gameRenter, games[_trackingId].gameOwner);\n    return \"successfully received the rented game!\";\n  }\n\n  /// @notice returnGame takes in the _trackingId and changes the gameState of the existing game from Rented to ShippedToOwner.\n  /// @param _trackingId takes in the trackingId value of the game\n  function returnGame(uint _trackingId) public isGameRenter(_trackingId) isRentedGame(_trackingId) returns(string memory){\n    //To be called buy the owner once the game has returned in good condition.\n    //This function returns the deposit (Totaldeposit - rental fee) from the smart Contract to the renter\n    //To trigger payment function to the gameOwner for the rental fee\n    games[_trackingId].state = gameState.ShippedToOwner;\n    emit LogForGameShippedToOwner(games[_trackingId].gameid, games[_trackingId].gregisterId, games[_trackingId].gameRenter, games[_trackingId].gameOwner);\n    return \"successfully shipped the rented game back to owner!\";\n  }\n\n\n  /// @notice receiveGameOwner takes in the _trackingID and changes the gameState of the existing game from ShippedToOwner to RentalCompleted\n  /// @param _trackingId takes in the trackingId value of the game\n  function receiveGameOwner(uint _trackingId) public isGameOwner(_trackingId) isShippedToOwnerGame(_trackingId) returns(string memory){\n    //To be called by the gameOwner to account for state change when the game is returned by the renter.\n    //This function triggers payment to the gameOwner address if the transaction completed was \"buy\" instead of \"rent\"\n    //This function makes the time to be loggged as the start of rental as timeRentalStart  \n    games[_trackingId].state = gameState.RentalCompleted;\n    emit LogForGameReceivedByOwner(games[_trackingId].gameid, games[_trackingId].gregisterId, games[_trackingId].gameRenter, games[_trackingId].gameOwner);\n    // emit LogForGameReceivedByOwner(games[_trackingId].gameid, games[_trackingId].gregisterId, games[_trackingId].gameRenter, games[_trackingId].gameOwner, games[_trackingId].timeRentalEnd);\n    return \"The owner successfully received the game. Rental is complete.\";\n  }\n\n  /// @notice masterModify is an emergency-rescue function which can only be called by the contract's owner but cannot modify the gameRenter and gameOwner address, to forcefully change the state to rental completed.\n  /// @param _trackingId takes in the trackingId value of the game\n  function masterModify(uint _trackingId) onlyOwner public {\n    games[_trackingId].state= gameState.RentalCompleted;\n    \n  }\n}",
  "sourcePath": "/home/dabin/consensys/blockchain-developer-bootcamp-final-project/contracts/DeSwitch.sol",
  "compiler": {
    "name": "solc",
    "version": "0.8.10+commit.fc410830.Emscripten.clang"
  },
  "schemaVersion": "3.4.3",
  "updatedAt": "2021-11-28T13:16:56.016Z",
  "networkType": "ethereum",
  "devdoc": {
    "author": "Dabin Lee",
    "kind": "dev",
    "methods": {
      "masterModify(uint256)": {
        "params": {
          "_trackingId": "takes in the trackingId value of the game"
        }
      },
      "owner()": {
        "details": "Returns the address of the current owner."
      },
      "queryBalance(address)": {
        "params": {
          "_address": "of the account to be queried for balance check TODO this is to be implemented but out of scope for the current phase of the project."
        }
      },
      "queryGamePricebyTI(uint256)": {
        "params": {
          "_trackingId": "takes in the trackingID  value of the game"
        }
      },
      "queryGameStatusbyTI(uint256)": {
        "params": {
          "_trackingId": "takes in the game registration ID according to http://nswdb.com/"
        }
      },
      "receiveGameOwner(uint256)": {
        "params": {
          "_trackingId": "takes in the trackingId value of the game"
        }
      },
      "receiveGameRenter(uint256)": {
        "params": {
          "_trackingId": "takes in the trackingId value of the game"
        }
      },
      "registerGame(uint256,uint256,uint256)": {
        "params": {
          "_depositRequired": "takes in the deposit charge for the whole game in wei",
          "_gameId": "takes in the game registration ID according to http://nswdb.com/",
          "_rentalRate": "takes in the rental charges per day in wei"
        }
      },
      "renounceOwnership()": {
        "details": "Leaves the contract without owner. It will not be possible to call `onlyOwner` functions anymore. Can only be called by the current owner. NOTE: Renouncing ownership will leave the contract without an owner, thereby removing any functionality that is only available to the owner."
      },
      "rentGame(uint256)": {
        "params": {
          "_trackingId": "takes in the trackingID value of the game"
        }
      },
      "returnGame(uint256)": {
        "params": {
          "_trackingId": "takes in the trackingId value of the game"
        }
      },
      "shipGame(uint256)": {
        "params": {
          "_trackingId": "takes in the trackingId value of the game"
        }
      },
      "transferOwnership(address)": {
        "details": "Transfers ownership of the contract to a new account (`newOwner`). Can only be called by the current owner."
      }
    },
    "title": "Decentralized Switch Game Rental Platform",
    "version": 1
  },
  "userdoc": {
    "kind": "user",
    "methods": {
      "getTimeStamp()": {
        "notice": "getLatestPrice function uses Chainlink's Data Feeds API to provide timestamp, price of ETH/USD pair so users can make more informed decision. TODO to be used once the payment based on rental period gets implemented, Smart Contract will compare the timestamp and calculate the rental fee."
      },
      "masterModify(uint256)": {
        "notice": "masterModify is an emergency-rescue function which can only be called by the contract's owner but cannot modify the gameRenter and gameOwner address, to forcefully change the state to rental completed."
      },
      "queryBalance(address)": {
        "notice": "queryBalance takes in the address and returns the value of pending and confirmed Balance for withdrawal"
      },
      "queryGameCount()": {
        "notice": "queryGameCount is a publi view function which returns current value of registerId, which equals the # of registered games in the smart contract"
      },
      "queryGamePricebyTI(uint256)": {
        "notice": "queryGamePricebyTI takes in the _trackingId and return the rental rate and deposit fee in wei."
      },
      "queryGameStatusbyTI(uint256)": {
        "notice": "queryGameStaqtusbyTI"
      },
      "receiveGameOwner(uint256)": {
        "notice": "receiveGameOwner takes in the _trackingID and changes the gameState of the existing game from ShippedToOwner to RentalCompleted"
      },
      "receiveGameRenter(uint256)": {
        "notice": "receiveGameRenter takes in the _trackingId and changes the gameState of existing game from ShippedToRenter to Renter."
      },
      "registerGame(uint256,uint256,uint256)": {
        "notice": "registerGame"
      },
      "rentGame(uint256)": {
        "notice": "rentGame takes in _TrackingID and changes the gameState of existing game from Available to Reserved."
      },
      "returnGame(uint256)": {
        "notice": "returnGame takes in the _trackingId and changes the gameState of the existing game from Rented to ShippedToOwner."
      },
      "shipGame(uint256)": {
        "notice": "shipGame takes in the _trackingId and changes the gameState of existing game from Reserved to ShippedToRenter."
      },
      "withdrawConfirmedBalance()": {
        "notice": "withdrawConfirmedBalance function withdraw  TODO this is to be implemented but out of scope for the current phase of the project."
      }
    },
    "notice": "You can use this contract to register and rent Nintendo Switch games where deposit is held by the smart contract",
    "version": 1
  }
}