{
  "contractName": "DeSwitch",
  "abi": [
    {
      "inputs": [],
      "stateMutability": "nonpayable",
      "type": "constructor"
    },
    {
      "anonymous": false,
      "inputs": [
        {
          "indexed": false,
          "internalType": "address",
          "name": "ownerAddress",
          "type": "address"
        },
        {
          "indexed": false,
          "internalType": "uint256",
          "name": "increaseValue",
          "type": "uint256"
        },
        {
          "indexed": false,
          "internalType": "uint256",
          "name": "newBalance",
          "type": "uint256"
        }
      ],
      "name": "LogForConfirmedBalanceIncrease",
      "type": "event"
    },
    {
      "anonymous": false,
      "inputs": [
        {
          "indexed": false,
          "internalType": "uint256",
          "name": "gameId",
          "type": "uint256"
        },
        {
          "indexed": false,
          "internalType": "uint256",
          "name": "registerId",
          "type": "uint256"
        },
        {
          "indexed": false,
          "internalType": "address",
          "name": "gameRenter",
          "type": "address"
        },
        {
          "indexed": false,
          "internalType": "address",
          "name": "gameOwnerAddress",
          "type": "address"
        }
      ],
      "name": "LogForGameReceivedByOwner",
      "type": "event"
    },
    {
      "anonymous": false,
      "inputs": [
        {
          "indexed": false,
          "internalType": "uint256",
          "name": "gameId",
          "type": "uint256"
        },
        {
          "indexed": false,
          "internalType": "uint256",
          "name": "registerId",
          "type": "uint256"
        },
        {
          "indexed": false,
          "internalType": "address",
          "name": "gameRenter",
          "type": "address"
        },
        {
          "indexed": false,
          "internalType": "address",
          "name": "gameOwnerAddress",
          "type": "address"
        }
      ],
      "name": "LogForGameReceivedByRenter",
      "type": "event"
    },
    {
      "anonymous": false,
      "inputs": [
        {
          "indexed": false,
          "internalType": "uint256",
          "name": "gameId",
          "type": "uint256"
        },
        {
          "indexed": false,
          "internalType": "uint256",
          "name": "registerId",
          "type": "uint256"
        },
        {
          "indexed": false,
          "internalType": "address",
          "name": "gameOwnerAddress",
          "type": "address"
        },
        {
          "indexed": false,
          "internalType": "uint256",
          "name": "rentalRate",
          "type": "uint256"
        },
        {
          "indexed": false,
          "internalType": "uint256",
          "name": "depositRequired",
          "type": "uint256"
        }
      ],
      "name": "LogForGameRegistered",
      "type": "event"
    },
    {
      "anonymous": false,
      "inputs": [
        {
          "indexed": false,
          "internalType": "uint256",
          "name": "gameId",
          "type": "uint256"
        },
        {
          "indexed": false,
          "internalType": "uint256",
          "name": "registerId",
          "type": "uint256"
        },
        {
          "indexed": false,
          "internalType": "address",
          "name": "gameRenter",
          "type": "address"
        },
        {
          "indexed": false,
          "internalType": "address",
          "name": "gameOwnerAddress",
          "type": "address"
        }
      ],
      "name": "LogForGameRentalRequested",
      "type": "event"
    },
    {
      "anonymous": false,
      "inputs": [
        {
          "indexed": false,
          "internalType": "uint256",
          "name": "gameId",
          "type": "uint256"
        },
        {
          "indexed": false,
          "internalType": "uint256",
          "name": "registerId",
          "type": "uint256"
        },
        {
          "indexed": false,
          "internalType": "address",
          "name": "gameRenter",
          "type": "address"
        },
        {
          "indexed": false,
          "internalType": "address",
          "name": "gameOwnerAddress",
          "type": "address"
        }
      ],
      "name": "LogForGameShippedToOwner",
      "type": "event"
    },
    {
      "anonymous": false,
      "inputs": [
        {
          "indexed": false,
          "internalType": "uint256",
          "name": "gameId",
          "type": "uint256"
        },
        {
          "indexed": false,
          "internalType": "uint256",
          "name": "registerId",
          "type": "uint256"
        },
        {
          "indexed": false,
          "internalType": "address",
          "name": "gameRenter",
          "type": "address"
        },
        {
          "indexed": false,
          "internalType": "address",
          "name": "gameOwnerAddress",
          "type": "address"
        }
      ],
      "name": "LogForGameShippedToRenter",
      "type": "event"
    },
    {
      "anonymous": false,
      "inputs": [
        {
          "indexed": false,
          "internalType": "address",
          "name": "ownerAddress",
          "type": "address"
        },
        {
          "indexed": false,
          "internalType": "uint256",
          "name": "increaseValue",
          "type": "uint256"
        },
        {
          "indexed": false,
          "internalType": "uint256",
          "name": "newBalance",
          "type": "uint256"
        }
      ],
      "name": "LogForPendingBalanceIncrease",
      "type": "event"
    },
    {
      "inputs": [
        {
          "internalType": "address",
          "name": "",
          "type": "address"
        }
      ],
      "name": "confirmedBalances",
      "outputs": [
        {
          "internalType": "uint256",
          "name": "",
          "type": "uint256"
        }
      ],
      "stateMutability": "view",
      "type": "function"
    },
    {
      "inputs": [
        {
          "internalType": "uint256",
          "name": "",
          "type": "uint256"
        }
      ],
      "name": "games",
      "outputs": [
        {
          "internalType": "uint256",
          "name": "gameid",
          "type": "uint256"
        },
        {
          "internalType": "uint256",
          "name": "gregisterId",
          "type": "uint256"
        },
        {
          "internalType": "uint256",
          "name": "rentalRate",
          "type": "uint256"
        },
        {
          "internalType": "uint256",
          "name": "depositRequired",
          "type": "uint256"
        },
        {
          "internalType": "address payable",
          "name": "gameOwner",
          "type": "address"
        },
        {
          "internalType": "enum DeSwitch.gameState",
          "name": "state",
          "type": "uint8"
        },
        {
          "internalType": "uint256",
          "name": "timeRentalStart",
          "type": "uint256"
        },
        {
          "internalType": "address payable",
          "name": "gameRenter",
          "type": "address"
        }
      ],
      "stateMutability": "view",
      "type": "function"
    },
    {
      "inputs": [
        {
          "internalType": "address",
          "name": "",
          "type": "address"
        }
      ],
      "name": "pendingBalances",
      "outputs": [
        {
          "internalType": "uint256",
          "name": "",
          "type": "uint256"
        }
      ],
      "stateMutability": "view",
      "type": "function"
    },
    {
      "inputs": [],
      "name": "queryGameCount",
      "outputs": [
        {
          "internalType": "uint256",
          "name": "",
          "type": "uint256"
        }
      ],
      "stateMutability": "view",
      "type": "function"
    },
    {
      "inputs": [],
      "name": "getLatestPrice",
      "outputs": [
        {
          "internalType": "int256",
          "name": "",
          "type": "int256"
        }
      ],
      "stateMutability": "view",
      "type": "function"
    },
    {
      "inputs": [
        {
          "internalType": "uint256",
          "name": "_gameId",
          "type": "uint256"
        },
        {
          "internalType": "uint256",
          "name": "_rentalRate",
          "type": "uint256"
        },
        {
          "internalType": "uint256",
          "name": "_depositRequired",
          "type": "uint256"
        }
      ],
      "name": "registerGame",
      "outputs": [
        {
          "internalType": "uint256",
          "name": "",
          "type": "uint256"
        },
        {
          "internalType": "uint256",
          "name": "",
          "type": "uint256"
        }
      ],
      "stateMutability": "nonpayable",
      "type": "function"
    },
    {
      "inputs": [
        {
          "internalType": "uint256",
          "name": "_trackingId",
          "type": "uint256"
        }
      ],
      "name": "queryGameStatusbyTI",
      "outputs": [
        {
          "internalType": "string",
          "name": "",
          "type": "string"
        }
      ],
      "stateMutability": "view",
      "type": "function"
    },
    {
      "inputs": [
        {
          "internalType": "address",
          "name": "_address",
          "type": "address"
        }
      ],
      "name": "queryBalance",
      "outputs": [
        {
          "internalType": "uint256",
          "name": "",
          "type": "uint256"
        },
        {
          "internalType": "uint256",
          "name": "",
          "type": "uint256"
        }
      ],
      "stateMutability": "view",
      "type": "function"
    },
    {
      "inputs": [
        {
          "internalType": "uint256",
          "name": "_trackingId",
          "type": "uint256"
        }
      ],
      "name": "queryGamePricebyTI",
      "outputs": [
        {
          "internalType": "uint256",
          "name": "",
          "type": "uint256"
        },
        {
          "internalType": "uint256",
          "name": "",
          "type": "uint256"
        }
      ],
      "stateMutability": "view",
      "type": "function"
    },
    {
      "inputs": [
        {
          "internalType": "uint256",
          "name": "_trackingId",
          "type": "uint256"
        }
      ],
      "name": "rentGame",
      "outputs": [
        {
          "internalType": "string",
          "name": "",
          "type": "string"
        }
      ],
      "stateMutability": "payable",
      "type": "function"
    },
    {
      "inputs": [
        {
          "internalType": "uint256",
          "name": "_trackingId",
          "type": "uint256"
        }
      ],
      "name": "shipGame",
      "outputs": [
        {
          "internalType": "string",
          "name": "",
          "type": "string"
        }
      ],
      "stateMutability": "nonpayable",
      "type": "function"
    },
    {
      "inputs": [
        {
          "internalType": "uint256",
          "name": "_trackingId",
          "type": "uint256"
        }
      ],
      "name": "receiveGameRenter",
      "outputs": [
        {
          "internalType": "string",
          "name": "",
          "type": "string"
        }
      ],
      "stateMutability": "nonpayable",
      "type": "function"
    },
    {
      "inputs": [
        {
          "internalType": "uint256",
          "name": "_trackingId",
          "type": "uint256"
        }
      ],
      "name": "returnGame",
      "outputs": [
        {
          "internalType": "string",
          "name": "",
          "type": "string"
        }
      ],
      "stateMutability": "nonpayable",
      "type": "function"
    },
    {
      "inputs": [
        {
          "internalType": "uint256",
          "name": "_trackingId",
          "type": "uint256"
        }
      ],
      "name": "receiveGameOwner",
      "outputs": [
        {
          "internalType": "string",
          "name": "",
          "type": "string"
        }
      ],
      "stateMutability": "nonpayable",
      "type": "function"
    }
  ],
  "bytecode": "0x6080604052600060045534801561001557600080fd5b50739326bfa02add2366b30bacb125260af6410313316000806101000a81548173ffffffffffffffffffffffffffffffffffffffff021916908373ffffffffffffffffffffffffffffffffffffffff16021790555061260b806100796000396000f3fe6080604052600436106100dd5760003560e01c806369742aa81161007f578063b97b0f2611610059578063b97b0f261461032a578063ecdae41b14610367578063f0787858146103a4578063f3130972146103e1576100dd565b806369742aa8146102855780636f0b97a7146102c25780638e15f473146102ff576100dd565b80632d191d85116100bb5780632d191d851461018f57806337f42841146101cd5780633a91dff51461020b578063428f682214610248576100dd565b8063117a5b90146100e257806314efee00146101265780632146d89314610151575b600080fd5b3480156100ee57600080fd5b5061010960048036038101906101049190611a43565b610411565b60405161011d989796959493929190611b37565b60405180910390f35b34801561013257600080fd5b5061013b6104a6565b6040516101489190611bb5565b60405180910390f35b34801561015d57600080fd5b5061017860048036038101906101739190611bd0565b6104b0565b604051610186929190611c23565b60405180910390f35b34801561019b57600080fd5b506101b660048036038101906101b19190611a43565b6106a3565b6040516101c4929190611c23565b60405180910390f35b3480156101d957600080fd5b506101f460048036038101906101ef9190611c8a565b6106dd565b604051610202929190611c23565b60405180910390f35b34801561021757600080fd5b50610232600480360381019061022d9190611a43565b6107c6565b60405161023f9190611d50565b60405180910390f35b34801561025457600080fd5b5061026f600480360381019061026a9190611a43565b610a2e565b60405161027c9190611d50565b60405180910390f35b34801561029157600080fd5b506102ac60048036038101906102a79190611c8a565b610e48565b6040516102b99190611bb5565b60405180910390f35b3480156102ce57600080fd5b506102e960048036038101906102e49190611a43565b610e60565b6040516102f69190611d50565b60405180910390f35b34801561030b57600080fd5b506103146110c8565b6040516103219190611d8b565b60405180910390f35b34801561033657600080fd5b50610351600480360381019061034c9190611a43565b611175565b60405161035e9190611d50565b60405180910390f35b34801561037357600080fd5b5061038e60048036038101906103899190611c8a565b6113dd565b60405161039b9190611bb5565b60405180910390f35b3480156103b057600080fd5b506103cb60048036038101906103c69190611a43565b6113f5565b6040516103d89190611d50565b60405180910390f35b6103fb60048036038101906103f69190611a43565b61165d565b6040516104089190611d50565b60405180910390f35b60016020528060005260406000206000915090508060000154908060010154908060020154908060030154908060040160009054906101000a900473ffffffffffffffffffffffffffffffffffffffff16908060040160149054906101000a900460ff16908060050154908060060160009054906101000a900473ffffffffffffffffffffffffffffffffffffffff16905088565b6000600454905090565b6000806001600460008282546104c69190611dd5565b9250508190555060405180610100016040528086815260200160045481526020018581526020018481526020013373ffffffffffffffffffffffffffffffffffffffff1681526020016001600681111561052357610522611ac0565b5b815260200160008152602001600073ffffffffffffffffffffffffffffffffffffffff168152506001600060045481526020019081526020016000206000820151816000015560208201518160010155604082015181600201556060820151816003015560808201518160040160006101000a81548173ffffffffffffffffffffffffffffffffffffffff021916908373ffffffffffffffffffffffffffffffffffffffff16021790555060a08201518160040160146101000a81548160ff021916908360068111156105f9576105f8611ac0565b5b021790555060c0820151816005015560e08201518160060160006101000a81548173ffffffffffffffffffffffffffffffffffffffff021916908373ffffffffffffffffffffffffffffffffffffffff1602179055509050507f1514ac551452196cfee486346bb313635c81b22c7cc00f5959aabc3d4b9c3a278560045433878760405161068b959493929190611e3a565b60405180910390a18460045491509150935093915050565b6000806001600084815260200190815260200160002060020154600160008581526020019081526020016000206003015491509150915091565b6000808273ffffffffffffffffffffffffffffffffffffffff163373ffffffffffffffffffffffffffffffffffffffff161461071857600080fd5b6000600260008573ffffffffffffffffffffffffffffffffffffffff1673ffffffffffffffffffffffffffffffffffffffff16815260200190815260200160002054141580156107a857506000600360008573ffffffffffffffffffffffffffffffffffffffff1673ffffffffffffffffffffffffffffffffffffffff1681526020019081526020016000205414155b156107b957600180915091506107c1565b600080915091505b915091565b6060813373ffffffffffffffffffffffffffffffffffffffff166001600083815260200190815260200160002060060160009054906101000a900473ffffffffffffffffffffffffffffffffffffffff1673ffffffffffffffffffffffffffffffffffffffff161461086d576040517f08c379a000000000000000000000000000000000000000000000000000000000815260040161086490611eff565b60405180910390fd5b826003600681111561088257610881611ac0565b5b6001600083815260200190815260200160002060040160149054906101000a900460ff1660068111156108b8576108b7611ac0565b5b146108f8576040517f08c379a00000000000000000000000000000000000000000000000000000000081526004016108ef90611fb7565b60405180910390fd5b60046001600086815260200190815260200160002060040160146101000a81548160ff0219169083600681111561093257610931611ac0565b5b02179055507f8ab866b3478134948c30a0cddaeb95948ec8751c892b6c71b154e255cdd5cec0600160008681526020019081526020016000206000015460016000878152602001908152602001600020600101546001600088815260200190815260200160002060060160009054906101000a900473ffffffffffffffffffffffffffffffffffffffff166001600089815260200190815260200160002060040160009054906101000a900473ffffffffffffffffffffffffffffffffffffffff16604051610a049493929190612036565b60405180910390a160405180606001604052806026815260200161258d6026913992505050919050565b606060006006811115610a4457610a43611ac0565b5b6001600084815260200190815260200160002060040160149054906101000a900460ff166006811115610a7a57610a79611ac0565b5b1415610abd576040518060400160405280600781526020017f496e76616c6964000000000000000000000000000000000000000000000000008152509050610e43565b60016006811115610ad157610ad0611ac0565b5b6001600084815260200190815260200160002060040160149054906101000a900460ff166006811115610b0757610b06611ac0565b5b1415610b4a576040518060400160405280600981526020017f417661696c61626c6500000000000000000000000000000000000000000000008152509050610e43565b60026006811115610b5e57610b5d611ac0565b5b6001600084815260200190815260200160002060040160149054906101000a900460ff166006811115610b9457610b93611ac0565b5b1415610bd7576040518060400160405280600881526020017f52657365727665640000000000000000000000000000000000000000000000008152509050610e43565b60036006811115610beb57610bea611ac0565b5b6001600084815260200190815260200160002060040160149054906101000a900460ff166006811115610c2157610c20611ac0565b5b1415610c64576040518060400160405280600f81526020017f53686970706564546f52656e74657200000000000000000000000000000000008152509050610e43565b60046006811115610c7857610c77611ac0565b5b6001600084815260200190815260200160002060040160149054906101000a900460ff166006811115610cae57610cad611ac0565b5b1415610cf1576040518060400160405280600681526020017f52656e74656400000000000000000000000000000000000000000000000000008152509050610e43565b60056006811115610d0557610d04611ac0565b5b6001600084815260200190815260200160002060040160149054906101000a900460ff166006811115610d3b57610d3a611ac0565b5b1415610d7e576040518060400160405280600e81526020017f53686970706564546f4f776e65720000000000000000000000000000000000008152509050610e43565b600680811115610d9157610d90611ac0565b5b6001600084815260200190815260200160002060040160149054906101000a900460ff166006811115610dc757610dc6611ac0565b5b1415610e0a576040518060400160405280600f81526020017f52656e74616c436f6d706c6574656400000000000000000000000000000000008152509050610e43565b6040518060400160405280600781526020017f496e76616c69640000000000000000000000000000000000000000000000000081525090505b919050565b60036020528060005260406000206000915090505481565b6060813373ffffffffffffffffffffffffffffffffffffffff166001600083815260200190815260200160002060040160009054906101000a900473ffffffffffffffffffffffffffffffffffffffff1673ffffffffffffffffffffffffffffffffffffffff1614610f07576040517f08c379a0000000000000000000000000000000000000000000000000000000008152600401610efe906120ed565b60405180910390fd5b8260026006811115610f1c57610f1b611ac0565b5b6001600083815260200190815260200160002060040160149054906101000a900460ff166006811115610f5257610f51611ac0565b5b14610f92576040517f08c379a0000000000000000000000000000000000000000000000000000000008152600401610f899061217f565b60405180910390fd5b60036001600086815260200190815260200160002060040160146101000a81548160ff02191690836006811115610fcc57610fcb611ac0565b5b02179055507fb7335d34db340366ad91abf4d197c60a7d7bc92e71c0daaa7cd400a1254cad32600160008681526020019081526020016000206000015460016000878152602001908152602001600020600101546001600088815260200190815260200160002060060160009054906101000a900473ffffffffffffffffffffffffffffffffffffffff166001600089815260200190815260200160002060040160009054906101000a900473ffffffffffffffffffffffffffffffffffffffff1660405161109e9493929190612036565b60405180910390a16040518060600160405280602381526020016125b36023913992505050919050565b60008060008060008060008054906101000a900473ffffffffffffffffffffffffffffffffffffffff1673ffffffffffffffffffffffffffffffffffffffff1663feaf968c6040518163ffffffff1660e01b815260040160a060405180830381865afa15801561113c573d6000803e3d6000fd5b505050506040513d601f19601f820116820180604052508101906111609190612222565b94509450945094509450839550505050505090565b6060813373ffffffffffffffffffffffffffffffffffffffff166001600083815260200190815260200160002060040160009054906101000a900473ffffffffffffffffffffffffffffffffffffffff1673ffffffffffffffffffffffffffffffffffffffff161461121c576040517f08c379a0000000000000000000000000000000000000000000000000000000008152600401611213906120ed565b60405180910390fd5b826005600681111561123157611230611ac0565b5b6001600083815260200190815260200160002060040160149054906101000a900460ff16600681111561126757611266611ac0565b5b146112a7576040517f08c379a000000000000000000000000000000000000000000000000000000000815260040161129e9061230f565b60405180910390fd5b60066001600086815260200190815260200160002060040160146101000a81548160ff021916908360068111156112e1576112e0611ac0565b5b02179055507fcb58afe26b749825f76600180a359c75d8f4edffc4eaf319c0663ddc92707c2c600160008681526020019081526020016000206000015460016000878152602001908152602001600020600101546001600088815260200190815260200160002060060160009054906101000a900473ffffffffffffffffffffffffffffffffffffffff166001600089815260200190815260200160002060040160009054906101000a900473ffffffffffffffffffffffffffffffffffffffff166040516113b39493929190612036565b60405180910390a16040518060600160405280603d8152602001612550603d913992505050919050565b60026020528060005260406000206000915090505481565b6060813373ffffffffffffffffffffffffffffffffffffffff166001600083815260200190815260200160002060060160009054906101000a900473ffffffffffffffffffffffffffffffffffffffff1673ffffffffffffffffffffffffffffffffffffffff161461149c576040517f08c379a000000000000000000000000000000000000000000000000000000000815260040161149390611eff565b60405180910390fd5b82600460068111156114b1576114b0611ac0565b5b6001600083815260200190815260200160002060040160149054906101000a900460ff1660068111156114e7576114e6611ac0565b5b14611527576040517f08c379a000000000000000000000000000000000000000000000000000000000815260040161151e906123a1565b60405180910390fd5b60056001600086815260200190815260200160002060040160146101000a81548160ff0219169083600681111561156157611560611ac0565b5b02179055507f21077aa5509028db270d4a455a256c98b45637712e8bfd87367bae928139d6a8600160008681526020019081526020016000206000015460016000878152602001908152602001600020600101546001600088815260200190815260200160002060060160009054906101000a900473ffffffffffffffffffffffffffffffffffffffff166001600089815260200190815260200160002060040160009054906101000a900473ffffffffffffffffffffffffffffffffffffffff166040516116339493929190612036565b60405180910390a160405180606001604052806033815260200161251d6033913992505050919050565b6060813373ffffffffffffffffffffffffffffffffffffffff166001600083815260200190815260200160002060040160009054906101000a900473ffffffffffffffffffffffffffffffffffffffff1673ffffffffffffffffffffffffffffffffffffffff161415611705576040517f08c379a00000000000000000000000000000000000000000000000000000000081526004016116fc90612433565b60405180910390fd5b826001600681111561171a57611719611ac0565b5b6001600083815260200190815260200160002060040160149054906101000a900460ff1660068111156117505761174f611ac0565b5b14611790576040517f08c379a0000000000000000000000000000000000000000000000000000000008152600401611787906124c5565b60405180910390fd5b60026001600086815260200190815260200160002060040160146101000a81548160ff021916908360068111156117ca576117c9611ac0565b5b0217905550336001600086815260200190815260200160002060060160006101000a81548173ffffffffffffffffffffffffffffffffffffffff021916908373ffffffffffffffffffffffffffffffffffffffff1602179055507f5f5e84ee3f1fe881bcade10467f28456711c7cd4c7aca7e5ebde1bb8d0f1ffca600160008681526020019081526020016000206000015460016000878152602001908152602001600020600101546001600088815260200190815260200160002060060160009054906101000a900473ffffffffffffffffffffffffffffffffffffffff166001600089815260200190815260200160002060040160009054906101000a900473ffffffffffffffffffffffffffffffffffffffff166040516118f19493929190612036565b60405180910390a134600260003373ffffffffffffffffffffffffffffffffffffffff1673ffffffffffffffffffffffffffffffffffffffff16815260200190815260200160002060008282546119489190611dd5565b925050819055507ffdc108b575d08570a36bf94bdbd25a35cacfb91b4d8dd560b17aaa99b4884f613334600260003373ffffffffffffffffffffffffffffffffffffffff1673ffffffffffffffffffffffffffffffffffffffff168152602001908152602001600020546040516119c1939291906124e5565b60405180910390a16040518060400160405280601381526020017f7375636365737366756c6c792072656e7465640000000000000000000000000081525092505050919050565b600080fd5b6000819050919050565b611a2081611a0d565b8114611a2b57600080fd5b50565b600081359050611a3d81611a17565b92915050565b600060208284031215611a5957611a58611a08565b5b6000611a6784828501611a2e565b91505092915050565b611a7981611a0d565b82525050565b600073ffffffffffffffffffffffffffffffffffffffff82169050919050565b6000611aaa82611a7f565b9050919050565b611aba81611a9f565b82525050565b7f4e487b7100000000000000000000000000000000000000000000000000000000600052602160045260246000fd5b60078110611b0057611aff611ac0565b5b50565b6000819050611b1182611aef565b919050565b6000611b2182611b03565b9050919050565b611b3181611b16565b82525050565b600061010082019050611b4d600083018b611a70565b611b5a602083018a611a70565b611b676040830189611a70565b611b746060830188611a70565b611b816080830187611ab1565b611b8e60a0830186611b28565b611b9b60c0830185611a70565b611ba860e0830184611ab1565b9998505050505050505050565b6000602082019050611bca6000830184611a70565b92915050565b600080600060608486031215611be957611be8611a08565b5b6000611bf786828701611a2e565b9350506020611c0886828701611a2e565b9250506040611c1986828701611a2e565b9150509250925092565b6000604082019050611c386000830185611a70565b611c456020830184611a70565b9392505050565b6000611c5782611a7f565b9050919050565b611c6781611c4c565b8114611c7257600080fd5b50565b600081359050611c8481611c5e565b92915050565b600060208284031215611ca057611c9f611a08565b5b6000611cae84828501611c75565b91505092915050565b600081519050919050565b600082825260208201905092915050565b60005b83811015611cf1578082015181840152602081019050611cd6565b83811115611d00576000848401525b50505050565b6000601f19601f8301169050919050565b6000611d2282611cb7565b611d2c8185611cc2565b9350611d3c818560208601611cd3565b611d4581611d06565b840191505092915050565b60006020820190508181036000830152611d6a8184611d17565b905092915050565b6000819050919050565b611d8581611d72565b82525050565b6000602082019050611da06000830184611d7c565b92915050565b7f4e487b7100000000000000000000000000000000000000000000000000000000600052601160045260246000fd5b6000611de082611a0d565b9150611deb83611a0d565b9250827fffffffffffffffffffffffffffffffffffffffffffffffffffffffffffffffff03821115611e2057611e1f611da6565b5b828201905092915050565b611e3481611c4c565b82525050565b600060a082019050611e4f6000830188611a70565b611e5c6020830187611a70565b611e696040830186611e2b565b611e766060830185611a70565b611e836080830184611a70565b9695505050505050565b7f4f6e6c792067616d652072656e746572732063616e20706572666f726d20746860008201527f697320616374696f6e0000000000000000000000000000000000000000000000602082015250565b6000611ee9602983611cc2565b9150611ef482611e8d565b604082019050919050565b60006020820190508181036000830152611f1881611edc565b9050919050565b7f5468697320616374696f6e2063616e206f6e6c7920626520646f6e6520746f2060008201527f612067616d6520696e202753686970706564546f52656e74657227207374617460208201527f7573000000000000000000000000000000000000000000000000000000000000604082015250565b6000611fa1604283611cc2565b9150611fac82611f1f565b606082019050919050565b60006020820190508181036000830152611fd081611f94565b9050919050565b6000819050919050565b6000611ffc611ff7611ff284611a7f565b611fd7565b611a7f565b9050919050565b600061200e82611fe1565b9050919050565b600061202082612003565b9050919050565b61203081612015565b82525050565b600060808201905061204b6000830187611a70565b6120586020830186611a70565b6120656040830185612027565b6120726060830184612027565b95945050505050565b7f4f6e6c792067616d65206f776e6572732063616e20706572666f726d2074686960008201527f7320616374696f6e000000000000000000000000000000000000000000000000602082015250565b60006120d7602883611cc2565b91506120e28261207b565b604082019050919050565b60006020820190508181036000830152612106816120ca565b9050919050565b7f5468697320616374696f6e2063616e206f6e6c7920626520646f6e6520746f2060008201527f612067616d6520696e2027526573657276656427207374617475730000000000602082015250565b6000612169603b83611cc2565b91506121748261210d565b604082019050919050565b600060208201905081810360008301526121988161215c565b9050919050565b600069ffffffffffffffffffff82169050919050565b6121be8161219f565b81146121c957600080fd5b50565b6000815190506121db816121b5565b92915050565b6121ea81611d72565b81146121f557600080fd5b50565b600081519050612207816121e1565b92915050565b60008151905061221c81611a17565b92915050565b600080600080600060a0868803121561223e5761223d611a08565b5b600061224c888289016121cc565b955050602061225d888289016121f8565b945050604061226e8882890161220d565b935050606061227f8882890161220d565b9250506080612290888289016121cc565b9150509295509295909350565b7f5468697320616374696f6e2063616e206f6e6c7920626520646f6e6520746f2060008201527f67616d6520696e202753686970706564546f4f776e6572272073746174757300602082015250565b60006122f9603f83611cc2565b91506123048261229d565b604082019050919050565b60006020820190508181036000830152612328816122ec565b9050919050565b7f5468697320616374696f6e2063616e206f6e6c7920626520646f6e6520746f2060008201527f612067616d6520696e202752656e746564272073746174757300000000000000602082015250565b600061238b603983611cc2565b91506123968261232f565b604082019050919050565b600060208201905081810360008301526123ba8161237e565b9050919050565b7f4f6e6c79206e6f6e2d6f776e6572732063616e20706572666f726d207468697360008201527f20616374696f6e00000000000000000000000000000000000000000000000000602082015250565b600061241d602783611cc2565b9150612428826123c1565b604082019050919050565b6000602082019050818103600083015261244c81612410565b9050919050565b7f5468697320616374696f6e2063616e206f6e6c7920626520646f6e6520746f2060008201527f612067616d6520776974682027417661696c61626c6527207374617475730000602082015250565b60006124af603e83611cc2565b91506124ba82612453565b604082019050919050565b600060208201905081810360008301526124de816124a2565b9050919050565b60006060820190506124fa6000830186611e2b565b6125076020830185611a70565b6125146040830184611a70565b94935050505056fe7375636365737366756c6c792073686970706564207468652072656e7465642067616d65206261636b20746f206f776e657221546865206f776e6572207375636365737366756c6c79207265636569766564207468652067616d652e2052656e74616c20697320636f6d706c6574652e7375636365737366756c6c79207265636569766564207468652072656e7465642067616d65217375636365737366756c6c7920736869707065642072657365727665642067616d6521a26469706673582212206583aa6ac84413c927292c5fbfdba6cb1c86477db3faf1e3625a7a5ec6641b4164736f6c634300080a0033",
  "immutableReferences": {},
  "source": "// SPDX-License-Identifier: MIT\npragma solidity 0.8.10; //Specific solidity pragma in use \npragma experimental ABIEncoderV2;\n\n\nimport \"@chainlink/contracts/src/v0.8/interfaces/AggregatorV3Interface.sol\";\n\n/// @title Decentralized Switch Game Rental Platform\n/// @author Dabin Lee\n/// @notice You can use this contract to register and rent Nintendo Switch games where deposit is held by the smart contract\ncontract DeSwitch {\n  AggregatorV3Interface internal priceFeed;\n  constructor() {\n    priceFeed = AggregatorV3Interface(0x9326BFA02ADD2366b30bacB125260Af641031331);\n  }\n\n  \n\n  event LogForGameRegistered(uint gameId, uint registerId, address gameOwnerAddress, uint rentalRate, uint depositRequired);\n  event LogForGameRentalRequested(uint gameId, uint registerId, address gameRenter, address gameOwnerAddress);\n  event LogForGameShippedToRenter(uint gameId, uint registerId, address gameRenter, address gameOwnerAddress);\n  event LogForGameReceivedByRenter(uint gameId, uint registerId, address gameRenter, address gameOwnerAddress);\n  event LogForGameShippedToOwner(uint gameId, uint registerId, address gameRenter, address gameOwnerAddress);\n  event LogForGameReceivedByOwner(uint gameId, uint registerId, address gameRenter, address gameOwnerAddress);\n  event LogForPendingBalanceIncrease(address ownerAddress, uint increaseValue, uint newBalance);\n  event LogForConfirmedBalanceIncrease(address ownerAddress, uint increaseValue, uint newBalance);\n  enum gameState {\n    Invalid,\n    Available,\n    Reserved,\n    ShippedToRenter,\n    Rented,\n    ShippedToOwner,\n    RentalCompleted\n  }\n\n  struct Game{\n    /// @param gameid is unique game ID assiged by Nintendo upon release of a game Title\n    /// @param gregisterId is a unique reference number assigned during game registration\n    /// @param rentalRate is rental rate in wei, charged per day\n    /// @param depositRequired is the deposit required in wei, to be used to offset rental charges upon successful completion of rental\n    /// @param gameOwner is the payable wallet address of the game owner where the rental charges will be transferred to\n    /// @param state is an enum gameState which describes the state of a unqiue game such as \"Available\" or \"Rented\"\n    /// @param timeRentalStart is a uint value which logs down when the rental was started to calculate the rental charges upon completion of rental\n    /// @param gameRenter is the payable wallet address of the game renter where the deposit minus rental charges will be transferred to\n    uint gameid;\n    uint gregisterId;\n    uint rentalRate;\n    uint depositRequired;\n    address payable gameOwner;\n    gameState state;\n    uint timeRentalStart;\n    address payable gameRenter;\n  }\n  \n  mapping (uint => Game) public games;\n  mapping (address => uint) public pendingBalances;\n  mapping (address => uint) public confirmedBalances;\n\n  /// @notice registerId is a reference counter which starts at 0 and gets added everytime there is a successful registeration of game for rental\n  uint registerId = 0 ;\n\n  /// @notice notGameOwner modifier requires the function to be by a person other than the game owner. (Example - to prevent game owner from renting his/her own game by mistake)\n  modifier notGameOwner(uint _trackingId) {\n    require(games[_trackingId].gameOwner != msg.sender, \"Only non-owners can perform this action\");\n    _;\n  }\n\n  /// @notice isGameOwner modifier validates if the function is being called by the game owner. (Example - calling functions such as \"shipGame\")\n  modifier isGameOwner(uint _trackingId) {\n    require(games[_trackingId].gameOwner == msg.sender, \"Only game owners can perform this action\");\n    _;\n  }\n\n  /// @notice isGameRenter modifier validates if the function is being called by the game renter. (Example - calling functions such as \"gameReceived\")\n  modifier isGameRenter(uint _trackingId) {\n    require(games[_trackingId].gameRenter == msg.sender, \"Only game renters can perform this action\");\n    _;\n  }\n\n  /// @notice isAvailableGame modifier validates if the game with tracking ID of _trackingId has state set to \"Available\"\n  modifier isAvailableGame(uint _trackingId){\n    require(games[_trackingId].state == gameState.Available, \"This action can only be done to a game with 'Available' status\");\n    _;\n  }\n\n  /// @notice isShippedToRenterGame modifier validates if the game with tracking ID of _trackingId has state set to \"shippedToRenter\"\n  modifier isShippedToRenterGame(uint _trackingId){\n    require(games[_trackingId].state == gameState.ShippedToRenter, \"This action can only be done to a game in 'ShippedToRenter' status\");\n    _;\n  }\n  \n  /// @notice isReservedGame modifier validates if the game with the tracking ID of _trackingId has state set to \"Reserved\"\n  modifier isReservedGame(uint _trackingId){\n    require(games[_trackingId].state == gameState.Reserved, \"This action can only be done to a game in 'Reserved' status\");\n    _;\n  }\n\n  /// @notice isRentedGame modifer validates if the game with the tracking ID of _trackignId has state set to \"Rented\"\n  modifier isRentedGame(uint _trackingId){\n    require(games[_trackingId].state == gameState.Rented,\"This action can only be done to a game in 'Rented' status\");\n    _;\n  }\n\n  /// @notice isShippedToOwnerGame modifer validates if the game with the tracking ID of _trackingId has state set to \"ShippedToOwner\"\n  modifier isShippedToOwnerGame(uint _trackingId){\n    require(games[_trackingId].state == gameState.ShippedToOwner, \"This action can only be done to game in 'ShippedToOwner' status\");\n    _;\n  }\n\n  /// @notice queryGameCount is a publi view function which returns current value of registerId, which equals the # of registered games in the smart contract\n  function queryGameCount() public view returns(uint){\n    return (registerId);\n  }\n\n  function getLatestPrice() public view returns (int) {\n    (\n        uint80 roundID, \n        int price,\n        uint startedAt,\n        uint timeStamp,\n        uint80 answeredInRound\n    ) = priceFeed.latestRoundData();\n    return price;\n}\n  \n  /// @notice registerGame\n  /// @param _gameId takes in the game registration ID according to http://nswdb.com/\n  /// @param _rentalRate takes in the rental charges per day in wei\n  /// @param _depositRequired takes in the deposit charge for the whole game in wei\n  function registerGame(uint _gameId, uint _rentalRate, uint _depositRequired) public returns(uint, uint){\n    //should be a public function as anyone should be able to put their game for sale/rental\n    //Users register games they own (Ex. Switch Games) as \"Available\"\n    //GameID refers to gameId from http://nswdb.com/ to avoid confusion between different game titles\n    //Require checks for validity of values submitted for required arguments\n    //Set gameState as \"Available\"\n    //Set gameOwner as msg.sender\n    //Set gameBuyer and gameRenter will be empty and get updated once a buyer triggers the rentGame function\n    //returns true/false if registeration was successful and a trackingId tagged to the registered game\n    //Increase the registerId counter by 1 so that the next game gets registered with the next registerId.\n    //Consider hashing/randomizing instead of incremental values, can consider sha256(msg.sender+registerID)\n    registerId += 1;\n    //Create a Game struct with the provided values and add it to the address -> game mapping\n    games[registerId] = Game({\n      gameid : _gameId,\n      gregisterId : registerId,\n      rentalRate : _rentalRate,\n      depositRequired : _depositRequired,\n      gameOwner : payable(msg.sender),\n      state : gameState.Available,\n      timeRentalStart : 0,\n      gameRenter : payable(address(0))\n    });\n\n    //add to the mapping registerId -> Owner Address\n    // registerIdList[registerId] = msg.sender;\n\n    //Emits appropriate event to log the chagnes \n    emit LogForGameRegistered(_gameId, registerId, msg.sender, _rentalRate, _depositRequired);\n    return (_gameId, registerId);\n  }\n\n  /// @notice queryGameStaqtusbyTI\n  /// @param _trackingId takes in the game registration ID according to http://nswdb.com/\n  function queryGameStatusbyTI(uint _trackingId) public view returns(string memory){\n    if (games[_trackingId].state == gameState.Invalid) return \"Invalid\";\n    if (games[_trackingId].state == gameState.Available) return \"Available\";\n    if (games[_trackingId].state == gameState.Reserved) return \"Reserved\";\n    if (games[_trackingId].state == gameState.ShippedToRenter) return \"ShippedToRenter\";\n    if (games[_trackingId].state == gameState.Rented) return \"Rented\";\n    if (games[_trackingId].state == gameState.ShippedToOwner) return \"ShippedToOwner\";\n    if (games[_trackingId].state == gameState.RentalCompleted) return \"RentalCompleted\";\n    return \"Invalid\";\n  }\n\n  /// @notice queryBalance takes in the address and returns the value of pending and confirmed Balance for withdrawal\n  /// @param _address of the account to be queried for balance check\n  function queryBalance(address _address) public view returns(uint, uint){\n    require(msg.sender == _address);\n    //TODO implement query Balance function\n    if (pendingBalances[_address] != 0 && confirmedBalances[_address] != 0){\n      // return (pendingBalances[_address], confirmedBalances[_address]);\n      return (1,1);\n    }else{\n      return (0,0);\n    }\n  }\n\n  /// @notice queryGamePricebyTI takes in the _trackingId and return the rental rate and deposit fee in wei.\n  /// @param _trackingId takes in the trackingID  value of the game\n  function queryGamePricebyTI(uint _trackingId) public view returns(uint, uint){\n    //check if the game ID is valid\n    return (games[_trackingId].rentalRate, games[_trackingId].depositRequired);\n  }\n\n  /// @notice rentGame takes in _TrackingID and changes the gameState of existing game from Available to Reserved.\n  /// @param _trackingId takes in the trackingID value of the game\n  function rentGame(uint _trackingId) public payable notGameOwner(_trackingId) isAvailableGame(_trackingId) returns(string memory) {\n    //should be \"payable\" as this requires ether to be transffered to the contract\n    //should be \"public\" as anyone should be able to rent the game \n    //Verify the state of trackingId to be \"Available\" using a modifier\n    //return true or false if the rentGame attempt was successful\n    //check if msg.value == games[trackingId].rentalRate\n    //at the end of this function the state of the Game should be set to \"TransactionInProgress\"\n    \n    games[_trackingId].state = gameState.Reserved;\n    games[_trackingId].gameRenter = payable(msg.sender);\n    // games[registerIdList[_trackignId]]\n\n    //Emit event\n    // event LogForGameRentalRequested(uint gameId, uint registerId, address gameRenter, address gameOwnerAddress);\n    emit LogForGameRentalRequested(games[_trackingId].gameid, games[_trackingId].gregisterId, games[_trackingId].gameRenter, games[_trackingId].gameOwner);\n    pendingBalances[msg.sender] += msg.value;\n    emit LogForPendingBalanceIncrease(msg.sender, msg.value, pendingBalances[msg.sender]);\n    return \"successfully rented\";\n  }\n\n  /// @notice shipGame takes in the _trackingId and changes the gameState of existing game from Reserved to ShippedToRenter.\n  /// @param _trackingId takes in the trackingId value of the game\n  function shipGame(uint _trackingId) public isGameOwner(_trackingId) isReservedGame(_trackingId) returns(string memory){\n    //To be called by the gameOwner to account for state update to \"Shipped\"\n    //Only the gameOwner with same account address as games[trackingId].gameOnwer can execute this function\n    //Require the games[trackingId].state to be \"AvailableForRent\" or \"AvailableForBuy\"\n    games[_trackingId].state = gameState.ShippedToRenter;\n    emit LogForGameShippedToRenter(games[_trackingId].gameid, games[_trackingId].gregisterId, games[_trackingId].gameRenter, games[_trackingId].gameOwner);\n    return \"successfully shipped reserved game!\";\n  } \n\n  /// @notice receiveGameRenter takes in the _trackingId and changes the gameState of existing game from ShippedToRenter to Renter.\n  /// @param _trackingId takes in the trackingId value of the game\n  function receiveGameRenter(uint _trackingId) public isGameRenter(_trackingId) isShippedToRenterGame(_trackingId) returns(string memory){\n    //To be called by the gameBuyer or gameRenter to account for state change to \"Rented\" or \"Sold\"\n    //This function triggers payment to the gameOwner address if the transaction completed was \"buy\" instead of \"rent\"\n    //This function makes the time to be loggged as the start of rental as timeRentalStart\n    games[_trackingId].state = gameState.Rented;\n    emit LogForGameReceivedByRenter(games[_trackingId].gameid, games[_trackingId].gregisterId, games[_trackingId].gameRenter, games[_trackingId].gameOwner);\n    return \"successfully received the rented game!\";\n  }\n\n  /// @notice returnGame takes in the _trackingId and changes the gameState of the existing game from Rented to ShippedToOwner.\n  /// @param _trackingId takes in the trackingId value of the game\n  function returnGame(uint _trackingId) public isGameRenter(_trackingId) isRentedGame(_trackingId) returns(string memory){\n    //To be called buy the owner once the game has returned in good condition.\n    //This function returns the deposit (Totaldeposit - rental fee) from the smart Contract to the renter\n    //To trigger payment function to the gameOwner for the rental fee\n    games[_trackingId].state = gameState.ShippedToOwner;\n    emit LogForGameShippedToOwner(games[_trackingId].gameid, games[_trackingId].gregisterId, games[_trackingId].gameRenter, games[_trackingId].gameOwner);\n    return \"successfully shipped the rented game back to owner!\";\n  }\n\n\n  /// @notice receiveGameOwner takes in the _trackingID and changes the gameState of the existing game from ShippedToOwner to RentalCompleted\n  /// @param _trackingId takes in the trackingId value of the game\n  function receiveGameOwner(uint _trackingId) public isGameOwner(_trackingId) isShippedToOwnerGame(_trackingId) returns(string memory){\n    //To be called by the gameOwner to account for state change when the game is returned by the renter.\n    //This function triggers payment to the gameOwner address if the transaction completed was \"buy\" instead of \"rent\"\n    //This function makes the time to be loggged as the start of rental as timeRentalStart\n    games[_trackingId].state = gameState.RentalCompleted;\n    emit LogForGameReceivedByOwner(games[_trackingId].gameid, games[_trackingId].gregisterId, games[_trackingId].gameRenter, games[_trackingId].gameOwner);\n    return \"The owner successfully received the game. Rental is complete.\";\n  }\n}",
  "sourcePath": "/home/dabin/consensys/blockchain-developer-bootcamp-final-project/contracts/DeSwitch.sol",
  "compiler": {
    "name": "solc",
    "version": "0.8.10+commit.fc410830.Emscripten.clang"
  },
  "schemaVersion": "3.4.3",
  "updatedAt": "2021-11-27T19:08:49.365Z",
  "devdoc": {
    "author": "Dabin Lee",
    "kind": "dev",
    "methods": {
      "queryBalance(address)": {
        "params": {
          "_address": "of the account to be queried for balance check"
        }
      },
      "queryGamePricebyTI(uint256)": {
        "params": {
          "_trackingId": "takes in the trackingID  value of the game"
        }
      },
      "queryGameStatusbyTI(uint256)": {
        "params": {
          "_trackingId": "takes in the game registration ID according to http://nswdb.com/"
        }
      },
      "receiveGameOwner(uint256)": {
        "params": {
          "_trackingId": "takes in the trackingId value of the game"
        }
      },
      "receiveGameRenter(uint256)": {
        "params": {
          "_trackingId": "takes in the trackingId value of the game"
        }
      },
      "registerGame(uint256,uint256,uint256)": {
        "params": {
          "_depositRequired": "takes in the deposit charge for the whole game in wei",
          "_gameId": "takes in the game registration ID according to http://nswdb.com/",
          "_rentalRate": "takes in the rental charges per day in wei"
        }
      },
      "rentGame(uint256)": {
        "params": {
          "_trackingId": "takes in the trackingID value of the game"
        }
      },
      "returnGame(uint256)": {
        "params": {
          "_trackingId": "takes in the trackingId value of the game"
        }
      },
      "shipGame(uint256)": {
        "params": {
          "_trackingId": "takes in the trackingId value of the game"
        }
      }
    },
    "title": "Decentralized Switch Game Rental Platform",
    "version": 1
  },
  "userdoc": {
    "kind": "user",
    "methods": {
      "queryBalance(address)": {
        "notice": "queryBalance takes in the address and returns the value of pending and confirmed Balance for withdrawal"
      },
      "queryGameCount()": {
        "notice": "queryGameCount is a publi view function which returns current value of registerId, which equals the # of registered games in the smart contract"
      },
      "queryGamePricebyTI(uint256)": {
        "notice": "queryGamePricebyTI takes in the _trackingId and return the rental rate and deposit fee in wei."
      },
      "queryGameStatusbyTI(uint256)": {
        "notice": "queryGameStaqtusbyTI"
      },
      "receiveGameOwner(uint256)": {
        "notice": "receiveGameOwner takes in the _trackingID and changes the gameState of the existing game from ShippedToOwner to RentalCompleted"
      },
      "receiveGameRenter(uint256)": {
        "notice": "receiveGameRenter takes in the _trackingId and changes the gameState of existing game from ShippedToRenter to Renter."
      },
      "registerGame(uint256,uint256,uint256)": {
        "notice": "registerGame"
      },
      "rentGame(uint256)": {
        "notice": "rentGame takes in _TrackingID and changes the gameState of existing game from Available to Reserved."
      },
      "returnGame(uint256)": {
        "notice": "returnGame takes in the _trackingId and changes the gameState of the existing game from Rented to ShippedToOwner."
      },
      "shipGame(uint256)": {
        "notice": "shipGame takes in the _trackingId and changes the gameState of existing game from Reserved to ShippedToRenter."
      }
    },
    "notice": "You can use this contract to register and rent Nintendo Switch games where deposit is held by the smart contract",
    "version": 1
  }
}