{
  "contractName": "DeSwitch",
  "abi": [
    {
      "inputs": [],
      "payable": false,
      "stateMutability": "nonpayable",
      "type": "constructor"
    },
    {
      "anonymous": false,
      "inputs": [
        {
          "indexed": false,
          "internalType": "uint256",
          "name": "gameId",
          "type": "uint256"
        },
        {
          "indexed": false,
          "internalType": "uint256",
          "name": "registerId",
          "type": "uint256"
        },
        {
          "indexed": false,
          "internalType": "address",
          "name": "gameRenter",
          "type": "address"
        },
        {
          "indexed": false,
          "internalType": "address",
          "name": "gameOwnerAddress",
          "type": "address"
        },
        {
          "indexed": false,
          "internalType": "uint256",
          "name": "rentalRate",
          "type": "uint256"
        },
        {
          "indexed": false,
          "internalType": "uint256",
          "name": "depositRequired",
          "type": "uint256"
        }
      ],
      "name": "LogFOrGameRentalTxnCompleted",
      "type": "event"
    },
    {
      "anonymous": false,
      "inputs": [
        {
          "indexed": false,
          "internalType": "uint256",
          "name": "gameId",
          "type": "uint256"
        },
        {
          "indexed": false,
          "internalType": "uint256",
          "name": "registerId",
          "type": "uint256"
        },
        {
          "indexed": false,
          "internalType": "address",
          "name": "gameOwnerAddress",
          "type": "address"
        },
        {
          "indexed": false,
          "internalType": "uint256",
          "name": "rentalRate",
          "type": "uint256"
        },
        {
          "indexed": false,
          "internalType": "uint256",
          "name": "depositRequired",
          "type": "uint256"
        }
      ],
      "name": "LogForGameRegistered",
      "type": "event"
    },
    {
      "anonymous": false,
      "inputs": [
        {
          "indexed": false,
          "internalType": "uint256",
          "name": "gameId",
          "type": "uint256"
        },
        {
          "indexed": false,
          "internalType": "uint256",
          "name": "registerId",
          "type": "uint256"
        },
        {
          "indexed": false,
          "internalType": "address",
          "name": "gameRenter",
          "type": "address"
        },
        {
          "indexed": false,
          "internalType": "address",
          "name": "gameOwnerAddress",
          "type": "address"
        }
      ],
      "name": "LogForGameRentalRequested",
      "type": "event"
    },
    {
      "constant": true,
      "inputs": [
        {
          "internalType": "address",
          "name": "",
          "type": "address"
        }
      ],
      "name": "games",
      "outputs": [
        {
          "internalType": "uint256",
          "name": "gameid",
          "type": "uint256"
        },
        {
          "internalType": "uint256",
          "name": "gregisterId",
          "type": "uint256"
        },
        {
          "internalType": "uint256",
          "name": "rentalRate",
          "type": "uint256"
        },
        {
          "internalType": "uint256",
          "name": "depositRequired",
          "type": "uint256"
        },
        {
          "internalType": "address payable",
          "name": "gameOwner",
          "type": "address"
        },
        {
          "internalType": "enum DeSwitch.gameState",
          "name": "state",
          "type": "uint8"
        },
        {
          "internalType": "uint256",
          "name": "timeRentalStart",
          "type": "uint256"
        },
        {
          "internalType": "address payable",
          "name": "gameRenter",
          "type": "address"
        }
      ],
      "payable": false,
      "stateMutability": "view",
      "type": "function"
    },
    {
      "constant": false,
      "inputs": [
        {
          "internalType": "uint256",
          "name": "_gameId",
          "type": "uint256"
        },
        {
          "internalType": "uint256",
          "name": "_rentalRate",
          "type": "uint256"
        },
        {
          "internalType": "uint256",
          "name": "_depositRequired",
          "type": "uint256"
        }
      ],
      "name": "registerGame",
      "outputs": [
        {
          "internalType": "bool",
          "name": "",
          "type": "bool"
        },
        {
          "internalType": "uint256",
          "name": "",
          "type": "uint256"
        }
      ],
      "payable": false,
      "stateMutability": "nonpayable",
      "type": "function"
    },
    {
      "constant": false,
      "inputs": [
        {
          "internalType": "uint256",
          "name": "trackingId",
          "type": "uint256"
        }
      ],
      "name": "rentGame",
      "outputs": [
        {
          "internalType": "bool",
          "name": "",
          "type": "bool"
        }
      ],
      "payable": true,
      "stateMutability": "payable",
      "type": "function"
    },
    {
      "constant": false,
      "inputs": [
        {
          "internalType": "uint256",
          "name": "trackingId",
          "type": "uint256"
        }
      ],
      "name": "buyGame",
      "outputs": [
        {
          "internalType": "bool",
          "name": "",
          "type": "bool"
        }
      ],
      "payable": true,
      "stateMutability": "payable",
      "type": "function"
    },
    {
      "constant": false,
      "inputs": [
        {
          "internalType": "uint256",
          "name": "trackingId",
          "type": "uint256"
        }
      ],
      "name": "shipGame",
      "outputs": [
        {
          "internalType": "bool",
          "name": "",
          "type": "bool"
        }
      ],
      "payable": false,
      "stateMutability": "nonpayable",
      "type": "function"
    },
    {
      "constant": false,
      "inputs": [
        {
          "internalType": "uint256",
          "name": "trackingId",
          "type": "uint256"
        }
      ],
      "name": "receiveGame",
      "outputs": [
        {
          "internalType": "bool",
          "name": "",
          "type": "bool"
        }
      ],
      "payable": false,
      "stateMutability": "nonpayable",
      "type": "function"
    },
    {
      "constant": false,
      "inputs": [
        {
          "internalType": "uint256",
          "name": "trackingId",
          "type": "uint256"
        }
      ],
      "name": "returnGame",
      "outputs": [
        {
          "internalType": "bool",
          "name": "",
          "type": "bool"
        }
      ],
      "payable": false,
      "stateMutability": "nonpayable",
      "type": "function"
    }
  ],
  "bytecode": "0x6080604052600060015534801561001557600080fd5b50610699806100256000396000f3fe6080604052600436106100705760003560e01c806379131a191161004e57806379131a1914610189578063f078785814610285578063f3130972146102d8578063f77605171461031e57610070565b80632146d89314610075578063513820ca146100e35780636f0b97a714610136575b600080fd5b34801561008157600080fd5b506100c26004803603606081101561009857600080fd5b81019080803590602001909291908035906020019092919080359060200190929190505050610364565b60405180831515151581526020018281526020019250505060405180910390f35b3480156100ef57600080fd5b5061011c6004803603602081101561010657600080fd5b81019080803590602001909291905050506105ac565b604051808215151515815260200191505060405180910390f35b34801561014257600080fd5b5061016f6004803603602081101561015957600080fd5b81019080803590602001909291905050506105b3565b604051808215151515815260200191505060405180910390f35b34801561019557600080fd5b506101d8600480360360208110156101ac57600080fd5b81019080803573ffffffffffffffffffffffffffffffffffffffff1690602001909291905050506105ba565b604051808981526020018881526020018781526020018681526020018573ffffffffffffffffffffffffffffffffffffffff1673ffffffffffffffffffffffffffffffffffffffff16815260200184600381111561023257fe5b60ff1681526020018381526020018273ffffffffffffffffffffffffffffffffffffffff1673ffffffffffffffffffffffffffffffffffffffff1681526020019850505050505050505060405180910390f35b34801561029157600080fd5b506102be600480360360208110156102a857600080fd5b810190808035906020019092919050505061064f565b604051808215151515815260200191505060405180910390f35b610304600480360360208110156102ee57600080fd5b8101908080359060200190929190505050610656565b604051808215151515815260200191505060405180910390f35b61034a6004803603602081101561033457600080fd5b810190808035906020019092919050505061065d565b604051808215151515815260200191505060405180910390f35b6000806001806000828254019250508190555060405180610100016040528086815260200160015481526020018581526020018481526020013373ffffffffffffffffffffffffffffffffffffffff168152602001600060038111156103c657fe5b815260200160008152602001600073ffffffffffffffffffffffffffffffffffffffff168152506000803373ffffffffffffffffffffffffffffffffffffffff1673ffffffffffffffffffffffffffffffffffffffff1681526020019081526020016000206000820151816000015560208201518160010155604082015181600201556060820151816003015560808201518160040160006101000a81548173ffffffffffffffffffffffffffffffffffffffff021916908373ffffffffffffffffffffffffffffffffffffffff16021790555060a08201518160040160146101000a81548160ff021916908360038111156104be57fe5b021790555060c0820151816005015560e08201518160060160006101000a81548173ffffffffffffffffffffffffffffffffffffffff021916908373ffffffffffffffffffffffffffffffffffffffff1602179055509050507f1514ac551452196cfee486346bb313635c81b22c7cc00f5959aabc3d4b9c3a2785600154338787604051808681526020018581526020018473ffffffffffffffffffffffffffffffffffffffff1673ffffffffffffffffffffffffffffffffffffffff1681526020018381526020018281526020019550505050505060405180910390a16001805491509150935093915050565b6000919050565b6000919050565b60006020528060005260406000206000915090508060000154908060010154908060020154908060030154908060040160009054906101000a900473ffffffffffffffffffffffffffffffffffffffff16908060040160149054906101000a900460ff16908060050154908060060160009054906101000a900473ffffffffffffffffffffffffffffffffffffffff16905088565b6000919050565b6000919050565b600091905056fea265627a7a7231582059e28528b4783aa74abbc6ab8a83b8c48d878a591a11b84522d239c7b52d817d64736f6c63430005100032",
  "source": "// SPDX-License-Identifier: MIT\npragma solidity >=0.4.22 <0.9.0;\n\n\n\ncontract DeSwitch {\n  event LogForGameRegistered(uint gameId, uint registerId, address gameOwnerAddress, uint rentalRate, uint depositRequired);\n  event LogForGameRentalRequested(uint gameId, uint registerId, address gameRenter, address gameOwnerAddress);\n  event LogFOrGameRentalTxnCompleted(uint gameId, uint registerId, address gameRenter, address gameOwnerAddress, uint rentalRate, uint depositRequired);\n  enum gameState {\n    Available,\n    Shipped,\n    Rented,\n    Sold\n  }\n\n  struct Game{\n    uint gameid;\n    uint gregisterId;\n    uint rentalRate;\n    uint depositRequired;\n    address payable gameOwner;\n    gameState state;\n    uint timeRentalStart;\n    address payable gameRenter;\n  }\n\n  \n  mapping (address => Game) public games;\n  uint registerId = 0 ;\n\n  \n    constructor() public {\n  }\n\n  function registerGame(uint _gameId, uint _rentalRate, uint _depositRequired) public returns(bool, uint){\n    \n    \n    //should be a public function as anyone should be able to put their game for sale/rental\n    //Users register games they own (Ex. Switch Games) as \"Available\"\n    //GameID refers to gameId from http://nswdb.com/ to avoid confusion between different game titles\n    //Require checks for validity of values submitted for required arguments\n    //Set gameState as \"Available\"\n    //Set gameOwner as msg.sender\n    //Set gameBuyer and gameRenter will be empty and get updated once a buyer triggers the rentGame function\n    //returns true/false if registeration was successful and a trackingId tagged to the registered game\n    \n    //Increase the registerId counter by 1 so that the next game gets registered with the next registerId.\n    //Consider hashing/randomizing instead of incremental values, can consider sha256(msg.sender+registerID)\n    registerId += 1;\n\n    //Create a Game struct with the provided values\n    games[msg.sender] = Game({\n      gameid : _gameId,\n      gregisterId : registerId,\n      rentalRate : _rentalRate,\n      depositRequired : _depositRequired,\n      gameOwner : msg.sender,\n      state : gameState.Available,\n      timeRentalStart : 0,\n      gameRenter : address(0)\n    });\n  \n    //Emits appropriate event to log the chagnes \n    emit LogForGameRegistered(_gameId, registerId, msg.sender, _rentalRate, _depositRequired);\n\n    return (true, registerId);\n  }\n\n  function rentGame(uint trackingId) public payable returns(bool) {\n    //should be \"payable\" as this requires ether to be transffered to the contract\n    //should be \"public\" as anyone should be able to rent the game \n    //Verify the state of trackingId to be \"Available\" using a modifier\n    //return true or false if the rentGame attempt was successful\n    //check if msg.value == games[trackingId].rentalRate\n    //at the end of this function the state of the Game should be set to \"TransactionInProgress\"\n  }\n\n  function buyGame(uint trackingId) public payable returns(bool){\n    //should be \"payable\" as this requires ether to be transffered to the contract\n    //should be \"public\" as anyone should be able to buy the game \n    //Verify the state of trackingId to be either \"Available\" using a modifier\n    //return true or false if the rentGame attempt was successful\n    //check if msg.value == games[trackingId].sellRate\n    //at the end of this function the state of the Game should be set to \"TransactionInProgress\"\n  }\n\n  function shipGame(uint trackingId) public returns(bool){\n    //To be called by the gameOwner to account for state update to \"Shipped\"\n    //Only the gameOwner with same account address as games[trackingId].gameOnwer can execute this function\n    //Require the games[trackingId].state to be \"AvailableForRent\" or \"AvailableForBuy\"\n  } \n\n  function receiveGame(uint trackingId) public returns(bool){\n    //To be called by the gameBuyer or gameRenter to account for state change to \"Rented\" or \"Sold\"\n    //This function triggers payment to the gameOwner address if the transaction completed was \"buy\" instead of \"rent\"\n    //This function makes the time to be loggged as the start of rental as timeRentalStart\n\n  }\n\n  function returnGame(uint trackingId) public returns(bool){\n    //To be called buy the owner once the game has returned in good condition.\n    //This function returns the deposit (Totaldeposit - rental fee) from the smart Contract to the renter\n    //To trigger payment function to the gameOwner for the rental fee\n  }\n\n}\n",
  "sourcePath": "/home/dabin/consensys/blockchain-developer-bootcamp-final-project/contracts/DeSwitch.sol",
  "compiler": {
    "name": "solc",
    "version": "0.5.16+commit.9c3226ce.Emscripten.clang"
  },
  "schemaVersion": "3.4.3",
  "updatedAt": "2021-11-01T15:54:24.771Z",
  "networkType": "ethereum",
  "devdoc": {
    "methods": {}
  },
  "userdoc": {
    "methods": {}
  }
}