{
  "contractName": "DeSwitch",
  "abi": [
    {
      "inputs": [],
      "stateMutability": "nonpayable",
      "type": "constructor"
    },
    {
      "anonymous": false,
      "inputs": [
        {
          "indexed": false,
          "internalType": "address",
          "name": "ownerAddress",
          "type": "address"
        },
        {
          "indexed": false,
          "internalType": "uint256",
          "name": "increaseValue",
          "type": "uint256"
        },
        {
          "indexed": false,
          "internalType": "uint256",
          "name": "newBalance",
          "type": "uint256"
        }
      ],
      "name": "LogForConfirmedBalanceIncrease",
      "type": "event"
    },
    {
      "anonymous": false,
      "inputs": [
        {
          "indexed": false,
          "internalType": "uint256",
          "name": "gameId",
          "type": "uint256"
        },
        {
          "indexed": false,
          "internalType": "uint256",
          "name": "registerId",
          "type": "uint256"
        },
        {
          "indexed": false,
          "internalType": "address",
          "name": "gameRenter",
          "type": "address"
        },
        {
          "indexed": false,
          "internalType": "address",
          "name": "gameOwnerAddress",
          "type": "address"
        }
      ],
      "name": "LogForGameReceivedByOwner",
      "type": "event"
    },
    {
      "anonymous": false,
      "inputs": [
        {
          "indexed": false,
          "internalType": "uint256",
          "name": "gameId",
          "type": "uint256"
        },
        {
          "indexed": false,
          "internalType": "uint256",
          "name": "registerId",
          "type": "uint256"
        },
        {
          "indexed": false,
          "internalType": "address",
          "name": "gameRenter",
          "type": "address"
        },
        {
          "indexed": false,
          "internalType": "address",
          "name": "gameOwnerAddress",
          "type": "address"
        }
      ],
      "name": "LogForGameReceivedByRenter",
      "type": "event"
    },
    {
      "anonymous": false,
      "inputs": [
        {
          "indexed": false,
          "internalType": "uint256",
          "name": "gameId",
          "type": "uint256"
        },
        {
          "indexed": false,
          "internalType": "uint256",
          "name": "registerId",
          "type": "uint256"
        },
        {
          "indexed": false,
          "internalType": "address",
          "name": "gameOwnerAddress",
          "type": "address"
        },
        {
          "indexed": false,
          "internalType": "uint256",
          "name": "rentalRate",
          "type": "uint256"
        },
        {
          "indexed": false,
          "internalType": "uint256",
          "name": "depositRequired",
          "type": "uint256"
        }
      ],
      "name": "LogForGameRegistered",
      "type": "event"
    },
    {
      "anonymous": false,
      "inputs": [
        {
          "indexed": false,
          "internalType": "uint256",
          "name": "gameId",
          "type": "uint256"
        },
        {
          "indexed": false,
          "internalType": "uint256",
          "name": "registerId",
          "type": "uint256"
        },
        {
          "indexed": false,
          "internalType": "address",
          "name": "gameRenter",
          "type": "address"
        },
        {
          "indexed": false,
          "internalType": "address",
          "name": "gameOwnerAddress",
          "type": "address"
        }
      ],
      "name": "LogForGameRentalRequested",
      "type": "event"
    },
    {
      "anonymous": false,
      "inputs": [
        {
          "indexed": false,
          "internalType": "uint256",
          "name": "gameId",
          "type": "uint256"
        },
        {
          "indexed": false,
          "internalType": "uint256",
          "name": "registerId",
          "type": "uint256"
        },
        {
          "indexed": false,
          "internalType": "address",
          "name": "gameRenter",
          "type": "address"
        },
        {
          "indexed": false,
          "internalType": "address",
          "name": "gameOwnerAddress",
          "type": "address"
        }
      ],
      "name": "LogForGameShippedToOwner",
      "type": "event"
    },
    {
      "anonymous": false,
      "inputs": [
        {
          "indexed": false,
          "internalType": "uint256",
          "name": "gameId",
          "type": "uint256"
        },
        {
          "indexed": false,
          "internalType": "uint256",
          "name": "registerId",
          "type": "uint256"
        },
        {
          "indexed": false,
          "internalType": "address",
          "name": "gameRenter",
          "type": "address"
        },
        {
          "indexed": false,
          "internalType": "address",
          "name": "gameOwnerAddress",
          "type": "address"
        }
      ],
      "name": "LogForGameShippedToRenter",
      "type": "event"
    },
    {
      "anonymous": false,
      "inputs": [
        {
          "indexed": false,
          "internalType": "address",
          "name": "ownerAddress",
          "type": "address"
        },
        {
          "indexed": false,
          "internalType": "uint256",
          "name": "increaseValue",
          "type": "uint256"
        },
        {
          "indexed": false,
          "internalType": "uint256",
          "name": "newBalance",
          "type": "uint256"
        }
      ],
      "name": "LogForPendingBalanceIncrease",
      "type": "event"
    },
    {
      "inputs": [
        {
          "internalType": "address",
          "name": "",
          "type": "address"
        }
      ],
      "name": "confirmedBalances",
      "outputs": [
        {
          "internalType": "uint256",
          "name": "",
          "type": "uint256"
        }
      ],
      "stateMutability": "view",
      "type": "function"
    },
    {
      "inputs": [
        {
          "internalType": "uint256",
          "name": "",
          "type": "uint256"
        }
      ],
      "name": "games",
      "outputs": [
        {
          "internalType": "uint256",
          "name": "gameid",
          "type": "uint256"
        },
        {
          "internalType": "uint256",
          "name": "gregisterId",
          "type": "uint256"
        },
        {
          "internalType": "uint256",
          "name": "rentalRate",
          "type": "uint256"
        },
        {
          "internalType": "uint256",
          "name": "depositRequired",
          "type": "uint256"
        },
        {
          "internalType": "address payable",
          "name": "gameOwner",
          "type": "address"
        },
        {
          "internalType": "enum DeSwitch.gameState",
          "name": "state",
          "type": "uint8"
        },
        {
          "internalType": "uint256",
          "name": "timeRentalStart",
          "type": "uint256"
        },
        {
          "internalType": "address payable",
          "name": "gameRenter",
          "type": "address"
        }
      ],
      "stateMutability": "view",
      "type": "function"
    },
    {
      "inputs": [
        {
          "internalType": "address",
          "name": "",
          "type": "address"
        }
      ],
      "name": "pendingBalances",
      "outputs": [
        {
          "internalType": "uint256",
          "name": "",
          "type": "uint256"
        }
      ],
      "stateMutability": "view",
      "type": "function"
    },
    {
      "inputs": [],
      "name": "queryGameCount",
      "outputs": [
        {
          "internalType": "uint256",
          "name": "",
          "type": "uint256"
        }
      ],
      "stateMutability": "view",
      "type": "function"
    },
    {
      "inputs": [],
      "name": "getLatestPrice",
      "outputs": [
        {
          "internalType": "int256",
          "name": "",
          "type": "int256"
        }
      ],
      "stateMutability": "view",
      "type": "function"
    },
    {
      "inputs": [
        {
          "internalType": "uint256",
          "name": "_gameId",
          "type": "uint256"
        },
        {
          "internalType": "uint256",
          "name": "_rentalRate",
          "type": "uint256"
        },
        {
          "internalType": "uint256",
          "name": "_depositRequired",
          "type": "uint256"
        }
      ],
      "name": "registerGame",
      "outputs": [
        {
          "internalType": "uint256",
          "name": "",
          "type": "uint256"
        },
        {
          "internalType": "uint256",
          "name": "",
          "type": "uint256"
        }
      ],
      "stateMutability": "nonpayable",
      "type": "function"
    },
    {
      "inputs": [
        {
          "internalType": "uint256",
          "name": "_trackingId",
          "type": "uint256"
        }
      ],
      "name": "queryGameStatusbyTI",
      "outputs": [
        {
          "internalType": "string",
          "name": "",
          "type": "string"
        }
      ],
      "stateMutability": "view",
      "type": "function"
    },
    {
      "inputs": [
        {
          "internalType": "address",
          "name": "_address",
          "type": "address"
        }
      ],
      "name": "queryBalance",
      "outputs": [
        {
          "internalType": "uint256",
          "name": "",
          "type": "uint256"
        },
        {
          "internalType": "uint256",
          "name": "",
          "type": "uint256"
        }
      ],
      "stateMutability": "view",
      "type": "function"
    },
    {
      "inputs": [
        {
          "internalType": "uint256",
          "name": "_trackingId",
          "type": "uint256"
        }
      ],
      "name": "queryGamePricebyTI",
      "outputs": [
        {
          "internalType": "uint256",
          "name": "",
          "type": "uint256"
        },
        {
          "internalType": "uint256",
          "name": "",
          "type": "uint256"
        }
      ],
      "stateMutability": "view",
      "type": "function"
    },
    {
      "inputs": [
        {
          "internalType": "uint256",
          "name": "_trackingId",
          "type": "uint256"
        }
      ],
      "name": "rentGame",
      "outputs": [
        {
          "internalType": "string",
          "name": "",
          "type": "string"
        }
      ],
      "stateMutability": "payable",
      "type": "function"
    },
    {
      "inputs": [
        {
          "internalType": "uint256",
          "name": "_trackingId",
          "type": "uint256"
        }
      ],
      "name": "shipGame",
      "outputs": [
        {
          "internalType": "string",
          "name": "",
          "type": "string"
        }
      ],
      "stateMutability": "nonpayable",
      "type": "function"
    },
    {
      "inputs": [
        {
          "internalType": "uint256",
          "name": "_trackingId",
          "type": "uint256"
        }
      ],
      "name": "receiveGameRenter",
      "outputs": [
        {
          "internalType": "string",
          "name": "",
          "type": "string"
        }
      ],
      "stateMutability": "nonpayable",
      "type": "function"
    },
    {
      "inputs": [
        {
          "internalType": "uint256",
          "name": "_trackingId",
          "type": "uint256"
        }
      ],
      "name": "returnGame",
      "outputs": [
        {
          "internalType": "string",
          "name": "",
          "type": "string"
        }
      ],
      "stateMutability": "nonpayable",
      "type": "function"
    },
    {
      "inputs": [
        {
          "internalType": "uint256",
          "name": "_trackingId",
          "type": "uint256"
        }
      ],
      "name": "receiveGameOwner",
      "outputs": [
        {
          "internalType": "string",
          "name": "",
          "type": "string"
        }
      ],
      "stateMutability": "nonpayable",
      "type": "function"
    }
  ],
  "bytecode": "0x6080604052600060045534801561001557600080fd5b50739326bfa02add2366b30bacb125260af6410313316000806101000a81548173ffffffffffffffffffffffffffffffffffffffff021916908373ffffffffffffffffffffffffffffffffffffffff1602179055506125d3806100796000396000f3fe6080604052600436106100dd5760003560e01c806369742aa81161007f578063b97b0f2611610059578063b97b0f261461032a578063ecdae41b14610367578063f0787858146103a4578063f3130972146103e1576100dd565b806369742aa8146102855780636f0b97a7146102c25780638e15f473146102ff576100dd565b80632d191d85116100bb5780632d191d851461018f57806337f42841146101cd5780633a91dff51461020b578063428f682214610248576100dd565b8063117a5b90146100e257806314efee00146101265780632146d89314610151575b600080fd5b3480156100ee57600080fd5b5061010960048036038101906101049190611a0b565b610411565b60405161011d989796959493929190611aff565b60405180910390f35b34801561013257600080fd5b5061013b6104a6565b6040516101489190611b7d565b60405180910390f35b34801561015d57600080fd5b5061017860048036038101906101739190611b98565b6104b0565b604051610186929190611beb565b60405180910390f35b34801561019b57600080fd5b506101b660048036038101906101b19190611a0b565b6106a3565b6040516101c4929190611beb565b60405180910390f35b3480156101d957600080fd5b506101f460048036038101906101ef9190611c52565b6106dd565b604051610202929190611beb565b60405180910390f35b34801561021757600080fd5b50610232600480360381019061022d9190611a0b565b61078e565b60405161023f9190611d18565b60405180910390f35b34801561025457600080fd5b5061026f600480360381019061026a9190611a0b565b6109f6565b60405161027c9190611d18565b60405180910390f35b34801561029157600080fd5b506102ac60048036038101906102a79190611c52565b610e10565b6040516102b99190611b7d565b60405180910390f35b3480156102ce57600080fd5b506102e960048036038101906102e49190611a0b565b610e28565b6040516102f69190611d18565b60405180910390f35b34801561030b57600080fd5b50610314611090565b6040516103219190611d53565b60405180910390f35b34801561033657600080fd5b50610351600480360381019061034c9190611a0b565b61113d565b60405161035e9190611d18565b60405180910390f35b34801561037357600080fd5b5061038e60048036038101906103899190611c52565b6113a5565b60405161039b9190611b7d565b60405180910390f35b3480156103b057600080fd5b506103cb60048036038101906103c69190611a0b565b6113bd565b6040516103d89190611d18565b60405180910390f35b6103fb60048036038101906103f69190611a0b565b611625565b6040516104089190611d18565b60405180910390f35b60016020528060005260406000206000915090508060000154908060010154908060020154908060030154908060040160009054906101000a900473ffffffffffffffffffffffffffffffffffffffff16908060040160149054906101000a900460ff16908060050154908060060160009054906101000a900473ffffffffffffffffffffffffffffffffffffffff16905088565b6000600454905090565b6000806001600460008282546104c69190611d9d565b9250508190555060405180610100016040528086815260200160045481526020018581526020018481526020013373ffffffffffffffffffffffffffffffffffffffff1681526020016001600681111561052357610522611a88565b5b815260200160008152602001600073ffffffffffffffffffffffffffffffffffffffff168152506001600060045481526020019081526020016000206000820151816000015560208201518160010155604082015181600201556060820151816003015560808201518160040160006101000a81548173ffffffffffffffffffffffffffffffffffffffff021916908373ffffffffffffffffffffffffffffffffffffffff16021790555060a08201518160040160146101000a81548160ff021916908360068111156105f9576105f8611a88565b5b021790555060c0820151816005015560e08201518160060160006101000a81548173ffffffffffffffffffffffffffffffffffffffff021916908373ffffffffffffffffffffffffffffffffffffffff1602179055509050507f1514ac551452196cfee486346bb313635c81b22c7cc00f5959aabc3d4b9c3a278560045433878760405161068b959493929190611e02565b60405180910390a18460045491509150935093915050565b6000806001600084815260200190815260200160002060020154600160008581526020019081526020016000206003015491509150915091565b6000806000600260008573ffffffffffffffffffffffffffffffffffffffff1673ffffffffffffffffffffffffffffffffffffffff168152602001908152602001600020541415801561077057506000600360008573ffffffffffffffffffffffffffffffffffffffff1673ffffffffffffffffffffffffffffffffffffffff1681526020019081526020016000205414155b156107815760018091509150610789565b600080915091505b915091565b6060813373ffffffffffffffffffffffffffffffffffffffff166001600083815260200190815260200160002060060160009054906101000a900473ffffffffffffffffffffffffffffffffffffffff1673ffffffffffffffffffffffffffffffffffffffff1614610835576040517f08c379a000000000000000000000000000000000000000000000000000000000815260040161082c90611ec7565b60405180910390fd5b826003600681111561084a57610849611a88565b5b6001600083815260200190815260200160002060040160149054906101000a900460ff1660068111156108805761087f611a88565b5b146108c0576040517f08c379a00000000000000000000000000000000000000000000000000000000081526004016108b790611f7f565b60405180910390fd5b60046001600086815260200190815260200160002060040160146101000a81548160ff021916908360068111156108fa576108f9611a88565b5b02179055507f8ab866b3478134948c30a0cddaeb95948ec8751c892b6c71b154e255cdd5cec0600160008681526020019081526020016000206000015460016000878152602001908152602001600020600101546001600088815260200190815260200160002060060160009054906101000a900473ffffffffffffffffffffffffffffffffffffffff166001600089815260200190815260200160002060040160009054906101000a900473ffffffffffffffffffffffffffffffffffffffff166040516109cc9493929190611ffe565b60405180910390a16040518060600160405280602681526020016125556026913992505050919050565b606060006006811115610a0c57610a0b611a88565b5b6001600084815260200190815260200160002060040160149054906101000a900460ff166006811115610a4257610a41611a88565b5b1415610a85576040518060400160405280600781526020017f496e76616c6964000000000000000000000000000000000000000000000000008152509050610e0b565b60016006811115610a9957610a98611a88565b5b6001600084815260200190815260200160002060040160149054906101000a900460ff166006811115610acf57610ace611a88565b5b1415610b12576040518060400160405280600981526020017f417661696c61626c6500000000000000000000000000000000000000000000008152509050610e0b565b60026006811115610b2657610b25611a88565b5b6001600084815260200190815260200160002060040160149054906101000a900460ff166006811115610b5c57610b5b611a88565b5b1415610b9f576040518060400160405280600881526020017f52657365727665640000000000000000000000000000000000000000000000008152509050610e0b565b60036006811115610bb357610bb2611a88565b5b6001600084815260200190815260200160002060040160149054906101000a900460ff166006811115610be957610be8611a88565b5b1415610c2c576040518060400160405280600f81526020017f53686970706564546f52656e74657200000000000000000000000000000000008152509050610e0b565b60046006811115610c4057610c3f611a88565b5b6001600084815260200190815260200160002060040160149054906101000a900460ff166006811115610c7657610c75611a88565b5b1415610cb9576040518060400160405280600681526020017f52656e74656400000000000000000000000000000000000000000000000000008152509050610e0b565b60056006811115610ccd57610ccc611a88565b5b6001600084815260200190815260200160002060040160149054906101000a900460ff166006811115610d0357610d02611a88565b5b1415610d46576040518060400160405280600e81526020017f53686970706564546f4f776e65720000000000000000000000000000000000008152509050610e0b565b600680811115610d5957610d58611a88565b5b6001600084815260200190815260200160002060040160149054906101000a900460ff166006811115610d8f57610d8e611a88565b5b1415610dd2576040518060400160405280600f81526020017f52656e74616c436f6d706c6574656400000000000000000000000000000000008152509050610e0b565b6040518060400160405280600781526020017f496e76616c69640000000000000000000000000000000000000000000000000081525090505b919050565b60036020528060005260406000206000915090505481565b6060813373ffffffffffffffffffffffffffffffffffffffff166001600083815260200190815260200160002060040160009054906101000a900473ffffffffffffffffffffffffffffffffffffffff1673ffffffffffffffffffffffffffffffffffffffff1614610ecf576040517f08c379a0000000000000000000000000000000000000000000000000000000008152600401610ec6906120b5565b60405180910390fd5b8260026006811115610ee457610ee3611a88565b5b6001600083815260200190815260200160002060040160149054906101000a900460ff166006811115610f1a57610f19611a88565b5b14610f5a576040517f08c379a0000000000000000000000000000000000000000000000000000000008152600401610f5190612147565b60405180910390fd5b60036001600086815260200190815260200160002060040160146101000a81548160ff02191690836006811115610f9457610f93611a88565b5b02179055507fb7335d34db340366ad91abf4d197c60a7d7bc92e71c0daaa7cd400a1254cad32600160008681526020019081526020016000206000015460016000878152602001908152602001600020600101546001600088815260200190815260200160002060060160009054906101000a900473ffffffffffffffffffffffffffffffffffffffff166001600089815260200190815260200160002060040160009054906101000a900473ffffffffffffffffffffffffffffffffffffffff166040516110669493929190611ffe565b60405180910390a160405180606001604052806023815260200161257b6023913992505050919050565b60008060008060008060008054906101000a900473ffffffffffffffffffffffffffffffffffffffff1673ffffffffffffffffffffffffffffffffffffffff1663feaf968c6040518163ffffffff1660e01b815260040160a060405180830381865afa158015611104573d6000803e3d6000fd5b505050506040513d601f19601f8201168201806040525081019061112891906121ea565b94509450945094509450839550505050505090565b6060813373ffffffffffffffffffffffffffffffffffffffff166001600083815260200190815260200160002060040160009054906101000a900473ffffffffffffffffffffffffffffffffffffffff1673ffffffffffffffffffffffffffffffffffffffff16146111e4576040517f08c379a00000000000000000000000000000000000000000000000000000000081526004016111db906120b5565b60405180910390fd5b82600560068111156111f9576111f8611a88565b5b6001600083815260200190815260200160002060040160149054906101000a900460ff16600681111561122f5761122e611a88565b5b1461126f576040517f08c379a0000000000000000000000000000000000000000000000000000000008152600401611266906122d7565b60405180910390fd5b60066001600086815260200190815260200160002060040160146101000a81548160ff021916908360068111156112a9576112a8611a88565b5b02179055507fcb58afe26b749825f76600180a359c75d8f4edffc4eaf319c0663ddc92707c2c600160008681526020019081526020016000206000015460016000878152602001908152602001600020600101546001600088815260200190815260200160002060060160009054906101000a900473ffffffffffffffffffffffffffffffffffffffff166001600089815260200190815260200160002060040160009054906101000a900473ffffffffffffffffffffffffffffffffffffffff1660405161137b9493929190611ffe565b60405180910390a16040518060600160405280603d8152602001612518603d913992505050919050565b60026020528060005260406000206000915090505481565b6060813373ffffffffffffffffffffffffffffffffffffffff166001600083815260200190815260200160002060060160009054906101000a900473ffffffffffffffffffffffffffffffffffffffff1673ffffffffffffffffffffffffffffffffffffffff1614611464576040517f08c379a000000000000000000000000000000000000000000000000000000000815260040161145b90611ec7565b60405180910390fd5b826004600681111561147957611478611a88565b5b6001600083815260200190815260200160002060040160149054906101000a900460ff1660068111156114af576114ae611a88565b5b146114ef576040517f08c379a00000000000000000000000000000000000000000000000000000000081526004016114e690612369565b60405180910390fd5b60056001600086815260200190815260200160002060040160146101000a81548160ff0219169083600681111561152957611528611a88565b5b02179055507f21077aa5509028db270d4a455a256c98b45637712e8bfd87367bae928139d6a8600160008681526020019081526020016000206000015460016000878152602001908152602001600020600101546001600088815260200190815260200160002060060160009054906101000a900473ffffffffffffffffffffffffffffffffffffffff166001600089815260200190815260200160002060040160009054906101000a900473ffffffffffffffffffffffffffffffffffffffff166040516115fb9493929190611ffe565b60405180910390a16040518060600160405280603381526020016124e56033913992505050919050565b6060813373ffffffffffffffffffffffffffffffffffffffff166001600083815260200190815260200160002060040160009054906101000a900473ffffffffffffffffffffffffffffffffffffffff1673ffffffffffffffffffffffffffffffffffffffff1614156116cd576040517f08c379a00000000000000000000000000000000000000000000000000000000081526004016116c4906123fb565b60405180910390fd5b82600160068111156116e2576116e1611a88565b5b6001600083815260200190815260200160002060040160149054906101000a900460ff16600681111561171857611717611a88565b5b14611758576040517f08c379a000000000000000000000000000000000000000000000000000000000815260040161174f9061248d565b60405180910390fd5b60026001600086815260200190815260200160002060040160146101000a81548160ff0219169083600681111561179257611791611a88565b5b0217905550336001600086815260200190815260200160002060060160006101000a81548173ffffffffffffffffffffffffffffffffffffffff021916908373ffffffffffffffffffffffffffffffffffffffff1602179055507f5f5e84ee3f1fe881bcade10467f28456711c7cd4c7aca7e5ebde1bb8d0f1ffca600160008681526020019081526020016000206000015460016000878152602001908152602001600020600101546001600088815260200190815260200160002060060160009054906101000a900473ffffffffffffffffffffffffffffffffffffffff166001600089815260200190815260200160002060040160009054906101000a900473ffffffffffffffffffffffffffffffffffffffff166040516118b99493929190611ffe565b60405180910390a134600260003373ffffffffffffffffffffffffffffffffffffffff1673ffffffffffffffffffffffffffffffffffffffff16815260200190815260200160002060008282546119109190611d9d565b925050819055507ffdc108b575d08570a36bf94bdbd25a35cacfb91b4d8dd560b17aaa99b4884f613334600260003373ffffffffffffffffffffffffffffffffffffffff1673ffffffffffffffffffffffffffffffffffffffff16815260200190815260200160002054604051611989939291906124ad565b60405180910390a16040518060400160405280601381526020017f7375636365737366756c6c792072656e7465640000000000000000000000000081525092505050919050565b600080fd5b6000819050919050565b6119e8816119d5565b81146119f357600080fd5b50565b600081359050611a05816119df565b92915050565b600060208284031215611a2157611a206119d0565b5b6000611a2f848285016119f6565b91505092915050565b611a41816119d5565b82525050565b600073ffffffffffffffffffffffffffffffffffffffff82169050919050565b6000611a7282611a47565b9050919050565b611a8281611a67565b82525050565b7f4e487b7100000000000000000000000000000000000000000000000000000000600052602160045260246000fd5b60078110611ac857611ac7611a88565b5b50565b6000819050611ad982611ab7565b919050565b6000611ae982611acb565b9050919050565b611af981611ade565b82525050565b600061010082019050611b15600083018b611a38565b611b22602083018a611a38565b611b2f6040830189611a38565b611b3c6060830188611a38565b611b496080830187611a79565b611b5660a0830186611af0565b611b6360c0830185611a38565b611b7060e0830184611a79565b9998505050505050505050565b6000602082019050611b926000830184611a38565b92915050565b600080600060608486031215611bb157611bb06119d0565b5b6000611bbf868287016119f6565b9350506020611bd0868287016119f6565b9250506040611be1868287016119f6565b9150509250925092565b6000604082019050611c006000830185611a38565b611c0d6020830184611a38565b9392505050565b6000611c1f82611a47565b9050919050565b611c2f81611c14565b8114611c3a57600080fd5b50565b600081359050611c4c81611c26565b92915050565b600060208284031215611c6857611c676119d0565b5b6000611c7684828501611c3d565b91505092915050565b600081519050919050565b600082825260208201905092915050565b60005b83811015611cb9578082015181840152602081019050611c9e565b83811115611cc8576000848401525b50505050565b6000601f19601f8301169050919050565b6000611cea82611c7f565b611cf48185611c8a565b9350611d04818560208601611c9b565b611d0d81611cce565b840191505092915050565b60006020820190508181036000830152611d328184611cdf565b905092915050565b6000819050919050565b611d4d81611d3a565b82525050565b6000602082019050611d686000830184611d44565b92915050565b7f4e487b7100000000000000000000000000000000000000000000000000000000600052601160045260246000fd5b6000611da8826119d5565b9150611db3836119d5565b9250827fffffffffffffffffffffffffffffffffffffffffffffffffffffffffffffffff03821115611de857611de7611d6e565b5b828201905092915050565b611dfc81611c14565b82525050565b600060a082019050611e176000830188611a38565b611e246020830187611a38565b611e316040830186611df3565b611e3e6060830185611a38565b611e4b6080830184611a38565b9695505050505050565b7f4f6e6c792067616d652072656e746572732063616e20706572666f726d20746860008201527f697320616374696f6e0000000000000000000000000000000000000000000000602082015250565b6000611eb1602983611c8a565b9150611ebc82611e55565b604082019050919050565b60006020820190508181036000830152611ee081611ea4565b9050919050565b7f5468697320616374696f6e2063616e206f6e6c7920626520646f6e6520746f2060008201527f612067616d6520696e202753686970706564546f52656e74657227207374617460208201527f7573000000000000000000000000000000000000000000000000000000000000604082015250565b6000611f69604283611c8a565b9150611f7482611ee7565b606082019050919050565b60006020820190508181036000830152611f9881611f5c565b9050919050565b6000819050919050565b6000611fc4611fbf611fba84611a47565b611f9f565b611a47565b9050919050565b6000611fd682611fa9565b9050919050565b6000611fe882611fcb565b9050919050565b611ff881611fdd565b82525050565b60006080820190506120136000830187611a38565b6120206020830186611a38565b61202d6040830185611fef565b61203a6060830184611fef565b95945050505050565b7f4f6e6c792067616d65206f776e6572732063616e20706572666f726d2074686960008201527f7320616374696f6e000000000000000000000000000000000000000000000000602082015250565b600061209f602883611c8a565b91506120aa82612043565b604082019050919050565b600060208201905081810360008301526120ce81612092565b9050919050565b7f5468697320616374696f6e2063616e206f6e6c7920626520646f6e6520746f2060008201527f612067616d6520696e2027526573657276656427207374617475730000000000602082015250565b6000612131603b83611c8a565b915061213c826120d5565b604082019050919050565b6000602082019050818103600083015261216081612124565b9050919050565b600069ffffffffffffffffffff82169050919050565b61218681612167565b811461219157600080fd5b50565b6000815190506121a38161217d565b92915050565b6121b281611d3a565b81146121bd57600080fd5b50565b6000815190506121cf816121a9565b92915050565b6000815190506121e4816119df565b92915050565b600080600080600060a08688031215612206576122056119d0565b5b600061221488828901612194565b9550506020612225888289016121c0565b9450506040612236888289016121d5565b9350506060612247888289016121d5565b925050608061225888828901612194565b9150509295509295909350565b7f5468697320616374696f6e2063616e206f6e6c7920626520646f6e6520746f2060008201527f67616d6520696e202753686970706564546f4f776e6572272073746174757300602082015250565b60006122c1603f83611c8a565b91506122cc82612265565b604082019050919050565b600060208201905081810360008301526122f0816122b4565b9050919050565b7f5468697320616374696f6e2063616e206f6e6c7920626520646f6e6520746f2060008201527f612067616d6520696e202752656e746564272073746174757300000000000000602082015250565b6000612353603983611c8a565b915061235e826122f7565b604082019050919050565b6000602082019050818103600083015261238281612346565b9050919050565b7f4f6e6c79206e6f6e2d6f776e6572732063616e20706572666f726d207468697360008201527f20616374696f6e00000000000000000000000000000000000000000000000000602082015250565b60006123e5602783611c8a565b91506123f082612389565b604082019050919050565b60006020820190508181036000830152612414816123d8565b9050919050565b7f5468697320616374696f6e2063616e206f6e6c7920626520646f6e6520746f2060008201527f612067616d6520776974682027417661696c61626c6527207374617475730000602082015250565b6000612477603e83611c8a565b91506124828261241b565b604082019050919050565b600060208201905081810360008301526124a68161246a565b9050919050565b60006060820190506124c26000830186611df3565b6124cf6020830185611a38565b6124dc6040830184611a38565b94935050505056fe7375636365737366756c6c792073686970706564207468652072656e7465642067616d65206261636b20746f206f776e657221546865206f776e6572207375636365737366756c6c79207265636569766564207468652067616d652e2052656e74616c20697320636f6d706c6574652e7375636365737366756c6c79207265636569766564207468652072656e7465642067616d65217375636365737366756c6c7920736869707065642072657365727665642067616d6521a2646970667358221220cea7051e29d5ce817365b7e3a1de52ec0d0f05071d14a97ab4e1534172aa961164736f6c634300080a0033",
  "immutableReferences": {},
  "source": "// SPDX-License-Identifier: MIT\npragma solidity 0.8.10; //Specific solidity pragma in use \npragma experimental ABIEncoderV2;\n\n\nimport \"@chainlink/contracts/src/v0.8/interfaces/AggregatorV3Interface.sol\";\n\n/// @title Decentralized Switch Game Rental Platform\n/// @author Dabin Lee\n/// @notice You can use this contract to register and rent Nintendo Switch games where deposit is held by the smart contract\ncontract DeSwitch {\n\n  AggregatorV3Interface internal priceFeed;\n\n  constructor() {\n    priceFeed = AggregatorV3Interface(0x9326BFA02ADD2366b30bacB125260Af641031331);\n}\n\n  \n  // constructor() public {\n  // }\n\n  event LogForGameRegistered(uint gameId, uint registerId, address gameOwnerAddress, uint rentalRate, uint depositRequired);\n  event LogForGameRentalRequested(uint gameId, uint registerId, address gameRenter, address gameOwnerAddress);\n  event LogForGameShippedToRenter(uint gameId, uint registerId, address gameRenter, address gameOwnerAddress);\n  event LogForGameReceivedByRenter(uint gameId, uint registerId, address gameRenter, address gameOwnerAddress);\n  event LogForGameShippedToOwner(uint gameId, uint registerId, address gameRenter, address gameOwnerAddress);\n  event LogForGameReceivedByOwner(uint gameId, uint registerId, address gameRenter, address gameOwnerAddress);\n  event LogForPendingBalanceIncrease(address ownerAddress, uint increaseValue, uint newBalance);\n  event LogForConfirmedBalanceIncrease(address ownerAddress, uint increaseValue, uint newBalance);\n  enum gameState {\n    Invalid,\n    Available,\n    Reserved,\n    ShippedToRenter,\n    Rented,\n    ShippedToOwner,\n    RentalCompleted\n  }\n\n  struct Game{\n    /// @param gameid is unique game ID assiged by Nintendo upon release of a game Title\n    /// @param gregisterId is a unique reference number assigned during game registration\n    /// @param rentalRate is rental rate in wei, charged per day\n    /// @param depositRequired is the deposit required in wei, to be used to offset rental charges upon successful completion of rental\n    /// @param gameOwner is the payable wallet address of the game owner where the rental charges will be transferred to\n    /// @param state is an enum gameState which describes the state of a unqiue game such as \"Available\" or \"Rented\"\n    /// @param timeRentalStart is a uint value which logs down when the rental was started to calculate the rental charges upon completion of rental\n    /// @param gameRenter is the payable wallet address of the game renter where the deposit minus rental charges will be transferred to\n    uint gameid;\n    uint gregisterId;\n    uint rentalRate;\n    uint depositRequired;\n    address payable gameOwner;\n    gameState state;\n    uint timeRentalStart;\n    address payable gameRenter;\n  }\n\n  \n  mapping (uint => Game) public games;\n  // mapping (uint => address) public registerIdList;\n  mapping (address => uint) public pendingBalances;\n  mapping (address => uint) public confirmedBalances;\n\n  // mapping (uint => Game) public games;\n\n  /// @notice registerId is a reference counter which starts at 0 and gets added everytime there is a successful registeration of game for rental\n  uint registerId = 0 ;\n\n\n  \n  \n  /// @notice notGameOwner modifier requires the function to be by a person other than the game owner. (Example - to prevent game owner from renting his/her own game by mistake)\n  modifier notGameOwner(uint _trackingId) {\n    require(games[_trackingId].gameOwner != msg.sender, \"Only non-owners can perform this action\");\n    _;\n  }\n\n  /// @notice isGameOwner modifier validates if the function is being called by the game owner. (Example - calling functions such as \"shipGame\")\n  modifier isGameOwner(uint _trackingId) {\n    require(games[_trackingId].gameOwner == msg.sender, \"Only game owners can perform this action\");\n    _;\n  }\n\n  /// @notice isGameRenter modifier validates if the function is being called by the game renter. (Example - calling functions such as \"gameReceived\")\n  modifier isGameRenter(uint _trackingId) {\n    require(games[_trackingId].gameRenter == msg.sender, \"Only game renters can perform this action\");\n    _;\n  }\n\n  /// @notice isAvailableGame modifier validates if the game with tracking ID of _trackingId has state set to \"Available\"\n  modifier isAvailableGame(uint _trackingId){\n    require(games[_trackingId].state == gameState.Available, \"This action can only be done to a game with 'Available' status\");\n    _;\n  }\n\n  /// @notice isShippedToRenterGame modifier validates if the game with tracking ID of _trackingId has state set to \"shippedToRenter\"\n  modifier isShippedToRenterGame(uint _trackingId){\n    require(games[_trackingId].state == gameState.ShippedToRenter, \"This action can only be done to a game in 'ShippedToRenter' status\");\n    _;\n  }\n  \n  /// @notice isReservedGame modifier validates if the game with the tracking ID of _trackingId has state set to \"Reserved\"\n  modifier isReservedGame(uint _trackingId){\n    require(games[_trackingId].state == gameState.Reserved, \"This action can only be done to a game in 'Reserved' status\");\n    _;\n  }\n\n  /// @notice isRentedGame modifer validates if the game with the tracking ID of _trackignId has state set to \"Rented\"\n  modifier isRentedGame(uint _trackingId){\n    require(games[_trackingId].state == gameState.Rented,\"This action can only be done to a game in 'Rented' status\");\n    _;\n  }\n\n  /// @notice isShippedToOwnerGame modifer validates if the game with the tracking ID of _trackingId has state set to \"ShippedToOwner\"\n  modifier isShippedToOwnerGame(uint _trackingId){\n    require(games[_trackingId].state == gameState.ShippedToOwner, \"This action can only be done to game in 'ShippedToOwner' status\");\n    _;\n  }\n\n  /// @notice queryGameCount is a publi view function which returns current value of registerId, which equals the # of registered games in the smart contract\n  function queryGameCount() public view returns(uint){\n    return (registerId);\n  }\n\n  function getLatestPrice() public view returns (int) {\n    (\n        uint80 roundID, \n        int price,\n        uint startedAt,\n        uint timeStamp,\n        uint80 answeredInRound\n    ) = priceFeed.latestRoundData();\n    return price;\n}\n  \n  /// @notice registerGame\n  /// @param _gameId takes in the game registration ID according to http://nswdb.com/\n  /// @param _rentalRate takes in the rental charges per day in wei\n  /// @param _depositRequired takes in the deposit charge for the whole game in wei\n  function registerGame(uint _gameId, uint _rentalRate, uint _depositRequired) public returns(uint, uint){\n    //should be a public function as anyone should be able to put their game for sale/rental\n    //Users register games they own (Ex. Switch Games) as \"Available\"\n    //GameID refers to gameId from http://nswdb.com/ to avoid confusion between different game titles\n    //Require checks for validity of values submitted for required arguments\n    //Set gameState as \"Available\"\n    //Set gameOwner as msg.sender\n    //Set gameBuyer and gameRenter will be empty and get updated once a buyer triggers the rentGame function\n    //returns true/false if registeration was successful and a trackingId tagged to the registered game\n    //Increase the registerId counter by 1 so that the next game gets registered with the next registerId.\n    //Consider hashing/randomizing instead of incremental values, can consider sha256(msg.sender+registerID)\n    registerId += 1;\n    //Create a Game struct with the provided values and add it to the address -> game mapping\n    games[registerId] = Game({\n      gameid : _gameId,\n      gregisterId : registerId,\n      rentalRate : _rentalRate,\n      depositRequired : _depositRequired,\n      gameOwner : payable(msg.sender),\n      state : gameState.Available,\n      timeRentalStart : 0,\n      gameRenter : payable(address(0))\n    });\n\n    //add to the mapping registerId -> Owner Address\n    // registerIdList[registerId] = msg.sender;\n\n    //Emits appropriate event to log the chagnes \n    emit LogForGameRegistered(_gameId, registerId, msg.sender, _rentalRate, _depositRequired);\n    return (_gameId, registerId);\n  }\n\n  function queryGameStatusbyTI(uint _trackingId) public view returns(string memory){\n    if (games[_trackingId].state == gameState.Invalid) return \"Invalid\";\n    if (games[_trackingId].state == gameState.Available) return \"Available\";\n    if (games[_trackingId].state == gameState.Reserved) return \"Reserved\";\n    if (games[_trackingId].state == gameState.ShippedToRenter) return \"ShippedToRenter\";\n    if (games[_trackingId].state == gameState.Rented) return \"Rented\";\n    if (games[_trackingId].state == gameState.ShippedToOwner) return \"ShippedToOwner\";\n    if (games[_trackingId].state == gameState.RentalCompleted) return \"RentalCompleted\";\n    return \"Invalid\";\n  }\n\n  function queryBalance(address _address) public view returns(uint, uint){\n    // require(msg.sender == _address);\n    if (pendingBalances[_address] != 0 && confirmedBalances[_address] != 0){\n      // return (pendingBalances[_address], confirmedBalances[_address]);\n      return (1,1);\n    }else{\n      return (0,0);\n    }\n  }\n\n  function queryGamePricebyTI(uint _trackingId) public view returns(uint, uint){\n    //check if the game ID is valid\n    return (games[_trackingId].rentalRate, games[_trackingId].depositRequired);\n  }\n\n  function rentGame(uint _trackingId) public payable notGameOwner(_trackingId) isAvailableGame(_trackingId) returns(string memory) {\n    //should be \"payable\" as this requires ether to be transffered to the contract\n    //should be \"public\" as anyone should be able to rent the game \n    //Verify the state of trackingId to be \"Available\" using a modifier\n    //return true or false if the rentGame attempt was successful\n    //check if msg.value == games[trackingId].rentalRate\n    //at the end of this function the state of the Game should be set to \"TransactionInProgress\"\n    \n    games[_trackingId].state = gameState.Reserved;\n    games[_trackingId].gameRenter = payable(msg.sender);\n    // games[registerIdList[_trackignId]]\n\n    //Emit event\n    // event LogForGameRentalRequested(uint gameId, uint registerId, address gameRenter, address gameOwnerAddress);\n    emit LogForGameRentalRequested(games[_trackingId].gameid, games[_trackingId].gregisterId, games[_trackingId].gameRenter, games[_trackingId].gameOwner);\n    \n    pendingBalances[msg.sender] += msg.value;\n    emit LogForPendingBalanceIncrease(msg.sender, msg.value, pendingBalances[msg.sender]);\n    return \"successfully rented\";\n  }\n\n\n\n  function shipGame(uint _trackingId) public isGameOwner(_trackingId) isReservedGame(_trackingId) returns(string memory){\n    //To be called by the gameOwner to account for state update to \"Shipped\"\n    //Only the gameOwner with same account address as games[trackingId].gameOnwer can execute this function\n    //Require the games[trackingId].state to be \"AvailableForRent\" or \"AvailableForBuy\"\n    games[_trackingId].state = gameState.ShippedToRenter;\n    emit LogForGameShippedToRenter(games[_trackingId].gameid, games[_trackingId].gregisterId, games[_trackingId].gameRenter, games[_trackingId].gameOwner);\n    return \"successfully shipped reserved game!\";\n\n  } \n\n  function receiveGameRenter(uint _trackingId) public isGameRenter(_trackingId) isShippedToRenterGame(_trackingId) returns(string memory){\n    //To be called by the gameBuyer or gameRenter to account for state change to \"Rented\" or \"Sold\"\n    //This function triggers payment to the gameOwner address if the transaction completed was \"buy\" instead of \"rent\"\n    //This function makes the time to be loggged as the start of rental as timeRentalStart\n    games[_trackingId].state = gameState.Rented;\n    emit LogForGameReceivedByRenter(games[_trackingId].gameid, games[_trackingId].gregisterId, games[_trackingId].gameRenter, games[_trackingId].gameOwner);\n    return \"successfully received the rented game!\";\n  }\n\n  function returnGame(uint _trackingId) public isGameRenter(_trackingId) isRentedGame(_trackingId) returns(string memory){\n    //To be called buy the owner once the game has returned in good condition.\n    //This function returns the deposit (Totaldeposit - rental fee) from the smart Contract to the renter\n    //To trigger payment function to the gameOwner for the rental fee\n    games[_trackingId].state = gameState.ShippedToOwner;\n    emit LogForGameShippedToOwner(games[_trackingId].gameid, games[_trackingId].gregisterId, games[_trackingId].gameRenter, games[_trackingId].gameOwner);\n    return \"successfully shipped the rented game back to owner!\";\n  }\n\n  function receiveGameOwner(uint _trackingId) public isGameOwner(_trackingId) isShippedToOwnerGame(_trackingId) returns(string memory){\n    //To be called by the gameOwner to account for state change when the game is returned by the renter.\n    //This function triggers payment to the gameOwner address if the transaction completed was \"buy\" instead of \"rent\"\n    //This function makes the time to be loggged as the start of rental as timeRentalStart\n    games[_trackingId].state = gameState.RentalCompleted;\n    emit LogForGameReceivedByOwner(games[_trackingId].gameid, games[_trackingId].gregisterId, games[_trackingId].gameRenter, games[_trackingId].gameOwner);\n    return \"The owner successfully received the game. Rental is complete.\";\n  }\n\n  \n\n}\n",
  "sourcePath": "/home/dabin/consensys/blockchain-developer-bootcamp-final-project/contracts/DeSwitch.sol",
  "compiler": {
    "name": "solc",
    "version": "0.8.10+commit.fc410830.Emscripten.clang"
  },
  "schemaVersion": "3.4.3",
  "updatedAt": "2021-11-27T16:47:24.578Z",
  "devdoc": {
    "author": "Dabin Lee",
    "kind": "dev",
    "methods": {
      "registerGame(uint256,uint256,uint256)": {
        "params": {
          "_depositRequired": "takes in the deposit charge for the whole game in wei",
          "_gameId": "takes in the game registration ID according to http://nswdb.com/",
          "_rentalRate": "takes in the rental charges per day in wei"
        }
      }
    },
    "title": "Decentralized Switch Game Rental Platform",
    "version": 1
  },
  "userdoc": {
    "kind": "user",
    "methods": {
      "queryGameCount()": {
        "notice": "queryGameCount is a publi view function which returns current value of registerId, which equals the # of registered games in the smart contract"
      },
      "registerGame(uint256,uint256,uint256)": {
        "notice": "registerGame"
      }
    },
    "notice": "You can use this contract to register and rent Nintendo Switch games where deposit is held by the smart contract",
    "version": 1
  }
}