{
  "contractName": "DeSwitch",
  "abi": [
    {
      "inputs": [],
      "payable": false,
      "stateMutability": "nonpayable",
      "type": "constructor"
    },
    {
      "anonymous": false,
      "inputs": [
        {
          "indexed": false,
          "internalType": "address",
          "name": "ownerAddress",
          "type": "address"
        },
        {
          "indexed": false,
          "internalType": "uint256",
          "name": "increaseValue",
          "type": "uint256"
        },
        {
          "indexed": false,
          "internalType": "uint256",
          "name": "newBalance",
          "type": "uint256"
        }
      ],
      "name": "LogForConfirmedBalanceIncrease",
      "type": "event"
    },
    {
      "anonymous": false,
      "inputs": [
        {
          "indexed": false,
          "internalType": "uint256",
          "name": "gameId",
          "type": "uint256"
        },
        {
          "indexed": false,
          "internalType": "uint256",
          "name": "registerId",
          "type": "uint256"
        },
        {
          "indexed": false,
          "internalType": "address",
          "name": "gameRenter",
          "type": "address"
        },
        {
          "indexed": false,
          "internalType": "address",
          "name": "gameOwnerAddress",
          "type": "address"
        }
      ],
      "name": "LogForGameReceivedByOwner",
      "type": "event"
    },
    {
      "anonymous": false,
      "inputs": [
        {
          "indexed": false,
          "internalType": "uint256",
          "name": "gameId",
          "type": "uint256"
        },
        {
          "indexed": false,
          "internalType": "uint256",
          "name": "registerId",
          "type": "uint256"
        },
        {
          "indexed": false,
          "internalType": "address",
          "name": "gameRenter",
          "type": "address"
        },
        {
          "indexed": false,
          "internalType": "address",
          "name": "gameOwnerAddress",
          "type": "address"
        }
      ],
      "name": "LogForGameReceivedByRenter",
      "type": "event"
    },
    {
      "anonymous": false,
      "inputs": [
        {
          "indexed": false,
          "internalType": "uint256",
          "name": "gameId",
          "type": "uint256"
        },
        {
          "indexed": false,
          "internalType": "uint256",
          "name": "registerId",
          "type": "uint256"
        },
        {
          "indexed": false,
          "internalType": "address",
          "name": "gameOwnerAddress",
          "type": "address"
        },
        {
          "indexed": false,
          "internalType": "uint256",
          "name": "rentalRate",
          "type": "uint256"
        },
        {
          "indexed": false,
          "internalType": "uint256",
          "name": "depositRequired",
          "type": "uint256"
        }
      ],
      "name": "LogForGameRegistered",
      "type": "event"
    },
    {
      "anonymous": false,
      "inputs": [
        {
          "indexed": false,
          "internalType": "uint256",
          "name": "gameId",
          "type": "uint256"
        },
        {
          "indexed": false,
          "internalType": "uint256",
          "name": "registerId",
          "type": "uint256"
        },
        {
          "indexed": false,
          "internalType": "address",
          "name": "gameRenter",
          "type": "address"
        },
        {
          "indexed": false,
          "internalType": "address",
          "name": "gameOwnerAddress",
          "type": "address"
        }
      ],
      "name": "LogForGameRentalRequested",
      "type": "event"
    },
    {
      "anonymous": false,
      "inputs": [
        {
          "indexed": false,
          "internalType": "uint256",
          "name": "gameId",
          "type": "uint256"
        },
        {
          "indexed": false,
          "internalType": "uint256",
          "name": "registerId",
          "type": "uint256"
        },
        {
          "indexed": false,
          "internalType": "address",
          "name": "gameRenter",
          "type": "address"
        },
        {
          "indexed": false,
          "internalType": "address",
          "name": "gameOwnerAddress",
          "type": "address"
        }
      ],
      "name": "LogForGameShippedToOwner",
      "type": "event"
    },
    {
      "anonymous": false,
      "inputs": [
        {
          "indexed": false,
          "internalType": "uint256",
          "name": "gameId",
          "type": "uint256"
        },
        {
          "indexed": false,
          "internalType": "uint256",
          "name": "registerId",
          "type": "uint256"
        },
        {
          "indexed": false,
          "internalType": "address",
          "name": "gameRenter",
          "type": "address"
        },
        {
          "indexed": false,
          "internalType": "address",
          "name": "gameOwnerAddress",
          "type": "address"
        }
      ],
      "name": "LogForGameShippedToRenter",
      "type": "event"
    },
    {
      "anonymous": false,
      "inputs": [
        {
          "indexed": false,
          "internalType": "address",
          "name": "ownerAddress",
          "type": "address"
        },
        {
          "indexed": false,
          "internalType": "uint256",
          "name": "increaseValue",
          "type": "uint256"
        },
        {
          "indexed": false,
          "internalType": "uint256",
          "name": "newBalance",
          "type": "uint256"
        }
      ],
      "name": "LogForPendingBalanceIncrease",
      "type": "event"
    },
    {
      "constant": true,
      "inputs": [
        {
          "internalType": "address",
          "name": "",
          "type": "address"
        }
      ],
      "name": "confirmedBalances",
      "outputs": [
        {
          "internalType": "uint256",
          "name": "",
          "type": "uint256"
        }
      ],
      "payable": false,
      "stateMutability": "view",
      "type": "function"
    },
    {
      "constant": true,
      "inputs": [
        {
          "internalType": "address",
          "name": "",
          "type": "address"
        }
      ],
      "name": "games",
      "outputs": [
        {
          "internalType": "uint256",
          "name": "gameid",
          "type": "uint256"
        },
        {
          "internalType": "uint256",
          "name": "gregisterId",
          "type": "uint256"
        },
        {
          "internalType": "uint256",
          "name": "rentalRate",
          "type": "uint256"
        },
        {
          "internalType": "uint256",
          "name": "depositRequired",
          "type": "uint256"
        },
        {
          "internalType": "address payable",
          "name": "gameOwner",
          "type": "address"
        },
        {
          "internalType": "enum DeSwitch.gameState",
          "name": "state",
          "type": "uint8"
        },
        {
          "internalType": "uint256",
          "name": "timeRentalStart",
          "type": "uint256"
        },
        {
          "internalType": "address payable",
          "name": "gameRenter",
          "type": "address"
        }
      ],
      "payable": false,
      "stateMutability": "view",
      "type": "function"
    },
    {
      "constant": true,
      "inputs": [
        {
          "internalType": "address",
          "name": "",
          "type": "address"
        }
      ],
      "name": "pendingBalances",
      "outputs": [
        {
          "internalType": "uint256",
          "name": "",
          "type": "uint256"
        }
      ],
      "payable": false,
      "stateMutability": "view",
      "type": "function"
    },
    {
      "constant": true,
      "inputs": [
        {
          "internalType": "uint256",
          "name": "",
          "type": "uint256"
        }
      ],
      "name": "registerIdList",
      "outputs": [
        {
          "internalType": "address",
          "name": "",
          "type": "address"
        }
      ],
      "payable": false,
      "stateMutability": "view",
      "type": "function"
    },
    {
      "constant": true,
      "inputs": [],
      "name": "queryGameCount",
      "outputs": [
        {
          "internalType": "uint256",
          "name": "",
          "type": "uint256"
        }
      ],
      "payable": false,
      "stateMutability": "view",
      "type": "function"
    },
    {
      "constant": false,
      "inputs": [
        {
          "internalType": "uint256",
          "name": "_gameId",
          "type": "uint256"
        },
        {
          "internalType": "uint256",
          "name": "_rentalRate",
          "type": "uint256"
        },
        {
          "internalType": "uint256",
          "name": "_depositRequired",
          "type": "uint256"
        }
      ],
      "name": "registerGame",
      "outputs": [
        {
          "internalType": "uint256",
          "name": "",
          "type": "uint256"
        },
        {
          "internalType": "uint256",
          "name": "",
          "type": "uint256"
        }
      ],
      "payable": false,
      "stateMutability": "nonpayable",
      "type": "function"
    },
    {
      "constant": true,
      "inputs": [
        {
          "internalType": "uint256",
          "name": "_trackingId",
          "type": "uint256"
        }
      ],
      "name": "queryGameStatusbyTI",
      "outputs": [
        {
          "internalType": "string",
          "name": "",
          "type": "string"
        }
      ],
      "payable": false,
      "stateMutability": "view",
      "type": "function"
    },
    {
      "constant": true,
      "inputs": [
        {
          "internalType": "address",
          "name": "_address",
          "type": "address"
        }
      ],
      "name": "queryBalance",
      "outputs": [
        {
          "internalType": "uint256",
          "name": "",
          "type": "uint256"
        },
        {
          "internalType": "uint256",
          "name": "",
          "type": "uint256"
        }
      ],
      "payable": false,
      "stateMutability": "view",
      "type": "function"
    },
    {
      "constant": true,
      "inputs": [
        {
          "internalType": "uint256",
          "name": "_trackingId",
          "type": "uint256"
        }
      ],
      "name": "queryGamePricebyTI",
      "outputs": [
        {
          "internalType": "uint256",
          "name": "",
          "type": "uint256"
        },
        {
          "internalType": "uint256",
          "name": "",
          "type": "uint256"
        }
      ],
      "payable": false,
      "stateMutability": "view",
      "type": "function"
    },
    {
      "constant": false,
      "inputs": [
        {
          "internalType": "uint256",
          "name": "_trackingId",
          "type": "uint256"
        }
      ],
      "name": "rentGame",
      "outputs": [
        {
          "internalType": "string",
          "name": "",
          "type": "string"
        }
      ],
      "payable": true,
      "stateMutability": "payable",
      "type": "function"
    },
    {
      "constant": false,
      "inputs": [
        {
          "internalType": "uint256",
          "name": "_trackingId",
          "type": "uint256"
        }
      ],
      "name": "shipGame",
      "outputs": [
        {
          "internalType": "string",
          "name": "",
          "type": "string"
        }
      ],
      "payable": false,
      "stateMutability": "nonpayable",
      "type": "function"
    },
    {
      "constant": false,
      "inputs": [
        {
          "internalType": "uint256",
          "name": "_trackingId",
          "type": "uint256"
        }
      ],
      "name": "receiveGameRenter",
      "outputs": [
        {
          "internalType": "string",
          "name": "",
          "type": "string"
        }
      ],
      "payable": false,
      "stateMutability": "nonpayable",
      "type": "function"
    },
    {
      "constant": false,
      "inputs": [
        {
          "internalType": "uint256",
          "name": "_trackingId",
          "type": "uint256"
        }
      ],
      "name": "returnGame",
      "outputs": [
        {
          "internalType": "string",
          "name": "",
          "type": "string"
        }
      ],
      "payable": false,
      "stateMutability": "nonpayable",
      "type": "function"
    },
    {
      "constant": false,
      "inputs": [
        {
          "internalType": "uint256",
          "name": "_trackingId",
          "type": "uint256"
        }
      ],
      "name": "receiveGameOwner",
      "outputs": [
        {
          "internalType": "string",
          "name": "",
          "type": "string"
        }
      ],
      "payable": false,
      "stateMutability": "nonpayable",
      "type": "function"
    }
  ],
  "bytecode": "0x6080604052600060045534801561001557600080fd5b50612edf806100256000396000f3fe6080604052600436106100dd5760003560e01c806369742aa81161007f578063b97b0f2611610059578063b97b0f261461033c578063ecdae41b14610379578063f0787858146103b6578063f3130972146103f3576100dd565b806369742aa81461027e5780636f0b97a7146102bb57806379131a19146102f8576100dd565b806337f42841116100bb57806337f42841146101895780633a91dff5146101c75780633d1b210114610204578063428f682214610241576100dd565b806314efee00146100e25780632146d8931461010d5780632d191d851461014b575b600080fd5b3480156100ee57600080fd5b506100f7610423565b6040516101049190612b45565b60405180910390f35b34801561011957600080fd5b50610134600480360361012f9190810190612892565b61042d565b604051610142929190612b60565b60405180910390f35b34801561015757600080fd5b50610172600480360361016d9190810190612869565b61068a565b604051610180929190612b60565b60405180910390f35b34801561019557600080fd5b506101b060048036036101ab9190810190612840565b610780565b6040516101be929190612b60565b60405180910390f35b3480156101d357600080fd5b506101ee60048036036101e99190810190612869565b61083d565b6040516101fb9190612ac3565b60405180910390f35b34801561021057600080fd5b5061022b60048036036102269190810190612869565b610cb6565b6040516102389190612a71565b60405180910390f35b34801561024d57600080fd5b5061026860048036036102639190810190612869565b610ce9565b6040516102759190612ac3565b60405180910390f35b34801561028a57600080fd5b506102a560048036036102a09190810190612840565b611333565b6040516102b29190612b45565b60405180910390f35b3480156102c757600080fd5b506102e260048036036102dd9190810190612869565b61134b565b6040516102ef9190612ac3565b60405180910390f35b34801561030457600080fd5b5061031f600480360361031a9190810190612840565b6117fa565b604051610333989796959493929190612c21565b60405180910390f35b34801561034857600080fd5b50610363600480360361035e9190810190612869565b61188f565b6040516103709190612ac3565b60405180910390f35b34801561038557600080fd5b506103a0600480360361039b9190810190612840565b611d08565b6040516103ad9190612b45565b60405180910390f35b3480156103c257600080fd5b506103dd60048036036103d89190810190612869565b611d20565b6040516103ea9190612ac3565b60405180910390f35b61040d60048036036104089190810190612869565b6121cf565b60405161041a9190612ac3565b60405180910390f35b6000600454905090565b600080600160046000828254019250508190555060405180610100016040528086815260200160045481526020018581526020018481526020013373ffffffffffffffffffffffffffffffffffffffff1681526020016001600681111561049057fe5b815260200160008152602001600073ffffffffffffffffffffffffffffffffffffffff168152506000803373ffffffffffffffffffffffffffffffffffffffff1673ffffffffffffffffffffffffffffffffffffffff1681526020019081526020016000206000820151816000015560208201518160010155604082015181600201556060820151816003015560808201518160040160006101000a81548173ffffffffffffffffffffffffffffffffffffffff021916908373ffffffffffffffffffffffffffffffffffffffff16021790555060a08201518160040160146101000a81548160ff0219169083600681111561058857fe5b021790555060c0820151816005015560e08201518160060160006101000a81548173ffffffffffffffffffffffffffffffffffffffff021916908373ffffffffffffffffffffffffffffffffffffffff1602179055509050503360016000600454815260200190815260200160002060006101000a81548173ffffffffffffffffffffffffffffffffffffffff021916908373ffffffffffffffffffffffffffffffffffffffff1602179055507f1514ac551452196cfee486346bb313635c81b22c7cc00f5959aabc3d4b9c3a278560045433878760405161066e959493929190612bce565b60405180910390a1600160045481915091509150935093915050565b6000806000806001600086815260200190815260200160002060009054906101000a900473ffffffffffffffffffffffffffffffffffffffff1673ffffffffffffffffffffffffffffffffffffffff1673ffffffffffffffffffffffffffffffffffffffff168152602001908152602001600020600201546000806001600087815260200190815260200160002060009054906101000a900473ffffffffffffffffffffffffffffffffffffffff1673ffffffffffffffffffffffffffffffffffffffff1673ffffffffffffffffffffffffffffffffffffffff1681526020019081526020016000206003015491509150915091565b6000806000600260008573ffffffffffffffffffffffffffffffffffffffff1673ffffffffffffffffffffffffffffffffffffffff168152602001908152602001600020541415801561081357506000600360008573ffffffffffffffffffffffffffffffffffffffff1673ffffffffffffffffffffffffffffffffffffffff1681526020019081526020016000205414155b1561082a5760018081915080905091509150610838565b600080819150809050915091505b915091565b6060813373ffffffffffffffffffffffffffffffffffffffff166000806001600085815260200190815260200160002060009054906101000a900473ffffffffffffffffffffffffffffffffffffffff1673ffffffffffffffffffffffffffffffffffffffff1673ffffffffffffffffffffffffffffffffffffffff16815260200190815260200160002060060160009054906101000a900473ffffffffffffffffffffffffffffffffffffffff1673ffffffffffffffffffffffffffffffffffffffff161461090c57600080fd5b826003600681111561091a57fe5b6000806001600085815260200190815260200160002060009054906101000a900473ffffffffffffffffffffffffffffffffffffffff1673ffffffffffffffffffffffffffffffffffffffff1673ffffffffffffffffffffffffffffffffffffffff16815260200190815260200160002060040160149054906101000a900460ff1660068111156109a757fe5b146109b157600080fd5b60046000806001600088815260200190815260200160002060009054906101000a900473ffffffffffffffffffffffffffffffffffffffff1673ffffffffffffffffffffffffffffffffffffffff1673ffffffffffffffffffffffffffffffffffffffff16815260200190815260200160002060040160146101000a81548160ff02191690836006811115610a4257fe5b02179055507f8ab866b3478134948c30a0cddaeb95948ec8751c892b6c71b154e255cdd5cec06000806001600088815260200190815260200160002060009054906101000a900473ffffffffffffffffffffffffffffffffffffffff1673ffffffffffffffffffffffffffffffffffffffff1673ffffffffffffffffffffffffffffffffffffffff168152602001908152602001600020600001546000806001600089815260200190815260200160002060009054906101000a900473ffffffffffffffffffffffffffffffffffffffff1673ffffffffffffffffffffffffffffffffffffffff1673ffffffffffffffffffffffffffffffffffffffff16815260200190815260200160002060010154600080600160008a815260200190815260200160002060009054906101000a900473ffffffffffffffffffffffffffffffffffffffff1673ffffffffffffffffffffffffffffffffffffffff1673ffffffffffffffffffffffffffffffffffffffff16815260200190815260200160002060060160009054906101000a900473ffffffffffffffffffffffffffffffffffffffff16600080600160008b815260200190815260200160002060009054906101000a900473ffffffffffffffffffffffffffffffffffffffff1673ffffffffffffffffffffffffffffffffffffffff1673ffffffffffffffffffffffffffffffffffffffff16815260200190815260200160002060040160009054906101000a900473ffffffffffffffffffffffffffffffffffffffff16604051610c8c9493929190612b89565b60405180910390a1604051806060016040528060268152602001612e546026913992505050919050565b60016020528060005260406000206000915054906101000a900473ffffffffffffffffffffffffffffffffffffffff1681565b606060006006811115610cf857fe5b6000806001600086815260200190815260200160002060009054906101000a900473ffffffffffffffffffffffffffffffffffffffff1673ffffffffffffffffffffffffffffffffffffffff1673ffffffffffffffffffffffffffffffffffffffff16815260200190815260200160002060040160149054906101000a900460ff166006811115610d8557fe5b1415610dc8576040518060400160405280600781526020017f496e76616c696400000000000000000000000000000000000000000000000000815250905061132e565b60016006811115610dd557fe5b6000806001600086815260200190815260200160002060009054906101000a900473ffffffffffffffffffffffffffffffffffffffff1673ffffffffffffffffffffffffffffffffffffffff1673ffffffffffffffffffffffffffffffffffffffff16815260200190815260200160002060040160149054906101000a900460ff166006811115610e6257fe5b1415610ea5576040518060400160405280600981526020017f417661696c61626c650000000000000000000000000000000000000000000000815250905061132e565b60026006811115610eb257fe5b6000806001600086815260200190815260200160002060009054906101000a900473ffffffffffffffffffffffffffffffffffffffff1673ffffffffffffffffffffffffffffffffffffffff1673ffffffffffffffffffffffffffffffffffffffff16815260200190815260200160002060040160149054906101000a900460ff166006811115610f3f57fe5b1415610f82576040518060400160405280600881526020017f5265736572766564000000000000000000000000000000000000000000000000815250905061132e565b60036006811115610f8f57fe5b6000806001600086815260200190815260200160002060009054906101000a900473ffffffffffffffffffffffffffffffffffffffff1673ffffffffffffffffffffffffffffffffffffffff1673ffffffffffffffffffffffffffffffffffffffff16815260200190815260200160002060040160149054906101000a900460ff16600681111561101c57fe5b141561105f576040518060400160405280600f81526020017f53686970706564546f52656e7465720000000000000000000000000000000000815250905061132e565b6004600681111561106c57fe5b6000806001600086815260200190815260200160002060009054906101000a900473ffffffffffffffffffffffffffffffffffffffff1673ffffffffffffffffffffffffffffffffffffffff1673ffffffffffffffffffffffffffffffffffffffff16815260200190815260200160002060040160149054906101000a900460ff1660068111156110f957fe5b141561113c576040518060400160405280600681526020017f52656e7465640000000000000000000000000000000000000000000000000000815250905061132e565b6005600681111561114957fe5b6000806001600086815260200190815260200160002060009054906101000a900473ffffffffffffffffffffffffffffffffffffffff1673ffffffffffffffffffffffffffffffffffffffff1673ffffffffffffffffffffffffffffffffffffffff16815260200190815260200160002060040160149054906101000a900460ff1660068111156111d657fe5b1415611219576040518060400160405280600e81526020017f53686970706564546f4f776e6572000000000000000000000000000000000000815250905061132e565b60068081111561122557fe5b6000806001600086815260200190815260200160002060009054906101000a900473ffffffffffffffffffffffffffffffffffffffff1673ffffffffffffffffffffffffffffffffffffffff1673ffffffffffffffffffffffffffffffffffffffff16815260200190815260200160002060040160149054906101000a900460ff1660068111156112b257fe5b14156112f5576040518060400160405280600f81526020017f52656e74616c436f6d706c657465640000000000000000000000000000000000815250905061132e565b6040518060400160405280600781526020017f496e76616c69640000000000000000000000000000000000000000000000000081525090505b919050565b60036020528060005260406000206000915090505481565b6060813373ffffffffffffffffffffffffffffffffffffffff166000806001600085815260200190815260200160002060009054906101000a900473ffffffffffffffffffffffffffffffffffffffff1673ffffffffffffffffffffffffffffffffffffffff1673ffffffffffffffffffffffffffffffffffffffff16815260200190815260200160002060040160009054906101000a900473ffffffffffffffffffffffffffffffffffffffff1673ffffffffffffffffffffffffffffffffffffffff161461141a57600080fd5b826002600681111561142857fe5b6000806001600085815260200190815260200160002060009054906101000a900473ffffffffffffffffffffffffffffffffffffffff1673ffffffffffffffffffffffffffffffffffffffff1673ffffffffffffffffffffffffffffffffffffffff16815260200190815260200160002060040160149054906101000a900460ff1660068111156114b557fe5b146114f5576040517f08c379a00000000000000000000000000000000000000000000000000000000081526004016114ec90612b05565b60405180910390fd5b60036000806001600088815260200190815260200160002060009054906101000a900473ffffffffffffffffffffffffffffffffffffffff1673ffffffffffffffffffffffffffffffffffffffff1673ffffffffffffffffffffffffffffffffffffffff16815260200190815260200160002060040160146101000a81548160ff0219169083600681111561158657fe5b02179055507fb7335d34db340366ad91abf4d197c60a7d7bc92e71c0daaa7cd400a1254cad326000806001600088815260200190815260200160002060009054906101000a900473ffffffffffffffffffffffffffffffffffffffff1673ffffffffffffffffffffffffffffffffffffffff1673ffffffffffffffffffffffffffffffffffffffff168152602001908152602001600020600001546000806001600089815260200190815260200160002060009054906101000a900473ffffffffffffffffffffffffffffffffffffffff1673ffffffffffffffffffffffffffffffffffffffff1673ffffffffffffffffffffffffffffffffffffffff16815260200190815260200160002060010154600080600160008a815260200190815260200160002060009054906101000a900473ffffffffffffffffffffffffffffffffffffffff1673ffffffffffffffffffffffffffffffffffffffff1673ffffffffffffffffffffffffffffffffffffffff16815260200190815260200160002060060160009054906101000a900473ffffffffffffffffffffffffffffffffffffffff16600080600160008b815260200190815260200160002060009054906101000a900473ffffffffffffffffffffffffffffffffffffffff1673ffffffffffffffffffffffffffffffffffffffff1673ffffffffffffffffffffffffffffffffffffffff16815260200190815260200160002060040160009054906101000a900473ffffffffffffffffffffffffffffffffffffffff166040516117d09493929190612b89565b60405180910390a1604051806060016040528060238152602001612e7a6023913992505050919050565b60006020528060005260406000206000915090508060000154908060010154908060020154908060030154908060040160009054906101000a900473ffffffffffffffffffffffffffffffffffffffff16908060040160149054906101000a900460ff16908060050154908060060160009054906101000a900473ffffffffffffffffffffffffffffffffffffffff16905088565b6060813373ffffffffffffffffffffffffffffffffffffffff166000806001600085815260200190815260200160002060009054906101000a900473ffffffffffffffffffffffffffffffffffffffff1673ffffffffffffffffffffffffffffffffffffffff1673ffffffffffffffffffffffffffffffffffffffff16815260200190815260200160002060040160009054906101000a900473ffffffffffffffffffffffffffffffffffffffff1673ffffffffffffffffffffffffffffffffffffffff161461195e57600080fd5b826005600681111561196c57fe5b6000806001600085815260200190815260200160002060009054906101000a900473ffffffffffffffffffffffffffffffffffffffff1673ffffffffffffffffffffffffffffffffffffffff1673ffffffffffffffffffffffffffffffffffffffff16815260200190815260200160002060040160149054906101000a900460ff1660068111156119f957fe5b14611a0357600080fd5b60066000806001600088815260200190815260200160002060009054906101000a900473ffffffffffffffffffffffffffffffffffffffff1673ffffffffffffffffffffffffffffffffffffffff1673ffffffffffffffffffffffffffffffffffffffff16815260200190815260200160002060040160146101000a81548160ff02191690836006811115611a9457fe5b02179055507fcb58afe26b749825f76600180a359c75d8f4edffc4eaf319c0663ddc92707c2c6000806001600088815260200190815260200160002060009054906101000a900473ffffffffffffffffffffffffffffffffffffffff1673ffffffffffffffffffffffffffffffffffffffff1673ffffffffffffffffffffffffffffffffffffffff168152602001908152602001600020600001546000806001600089815260200190815260200160002060009054906101000a900473ffffffffffffffffffffffffffffffffffffffff1673ffffffffffffffffffffffffffffffffffffffff1673ffffffffffffffffffffffffffffffffffffffff16815260200190815260200160002060010154600080600160008a815260200190815260200160002060009054906101000a900473ffffffffffffffffffffffffffffffffffffffff1673ffffffffffffffffffffffffffffffffffffffff1673ffffffffffffffffffffffffffffffffffffffff16815260200190815260200160002060060160009054906101000a900473ffffffffffffffffffffffffffffffffffffffff16600080600160008b815260200190815260200160002060009054906101000a900473ffffffffffffffffffffffffffffffffffffffff1673ffffffffffffffffffffffffffffffffffffffff1673ffffffffffffffffffffffffffffffffffffffff16815260200190815260200160002060040160009054906101000a900473ffffffffffffffffffffffffffffffffffffffff16604051611cde9493929190612b89565b60405180910390a16040518060600160405280603d8152602001612e17603d913992505050919050565b60026020528060005260406000206000915090505481565b6060813373ffffffffffffffffffffffffffffffffffffffff166000806001600085815260200190815260200160002060009054906101000a900473ffffffffffffffffffffffffffffffffffffffff1673ffffffffffffffffffffffffffffffffffffffff1673ffffffffffffffffffffffffffffffffffffffff16815260200190815260200160002060060160009054906101000a900473ffffffffffffffffffffffffffffffffffffffff1673ffffffffffffffffffffffffffffffffffffffff1614611def57600080fd5b8260046006811115611dfd57fe5b6000806001600085815260200190815260200160002060009054906101000a900473ffffffffffffffffffffffffffffffffffffffff1673ffffffffffffffffffffffffffffffffffffffff1673ffffffffffffffffffffffffffffffffffffffff16815260200190815260200160002060040160149054906101000a900460ff166006811115611e8a57fe5b14611eca576040517f08c379a0000000000000000000000000000000000000000000000000000000008152600401611ec190612ae5565b60405180910390fd5b60056000806001600088815260200190815260200160002060009054906101000a900473ffffffffffffffffffffffffffffffffffffffff1673ffffffffffffffffffffffffffffffffffffffff1673ffffffffffffffffffffffffffffffffffffffff16815260200190815260200160002060040160146101000a81548160ff02191690836006811115611f5b57fe5b02179055507f21077aa5509028db270d4a455a256c98b45637712e8bfd87367bae928139d6a86000806001600088815260200190815260200160002060009054906101000a900473ffffffffffffffffffffffffffffffffffffffff1673ffffffffffffffffffffffffffffffffffffffff1673ffffffffffffffffffffffffffffffffffffffff168152602001908152602001600020600001546000806001600089815260200190815260200160002060009054906101000a900473ffffffffffffffffffffffffffffffffffffffff1673ffffffffffffffffffffffffffffffffffffffff1673ffffffffffffffffffffffffffffffffffffffff16815260200190815260200160002060010154600080600160008a815260200190815260200160002060009054906101000a900473ffffffffffffffffffffffffffffffffffffffff1673ffffffffffffffffffffffffffffffffffffffff1673ffffffffffffffffffffffffffffffffffffffff16815260200190815260200160002060060160009054906101000a900473ffffffffffffffffffffffffffffffffffffffff16600080600160008b815260200190815260200160002060009054906101000a900473ffffffffffffffffffffffffffffffffffffffff1673ffffffffffffffffffffffffffffffffffffffff1673ffffffffffffffffffffffffffffffffffffffff16815260200190815260200160002060040160009054906101000a900473ffffffffffffffffffffffffffffffffffffffff166040516121a59493929190612b89565b60405180910390a1604051806060016040528060338152602001612de46033913992505050919050565b6060813373ffffffffffffffffffffffffffffffffffffffff166000806001600085815260200190815260200160002060009054906101000a900473ffffffffffffffffffffffffffffffffffffffff1673ffffffffffffffffffffffffffffffffffffffff1673ffffffffffffffffffffffffffffffffffffffff16815260200190815260200160002060040160009054906101000a900473ffffffffffffffffffffffffffffffffffffffff1673ffffffffffffffffffffffffffffffffffffffff1614156122d5576040517f08c379a00000000000000000000000000000000000000000000000000000000081526004016122cc90612b25565b60405180910390fd5b82600160068111156122e357fe5b6000806001600085815260200190815260200160002060009054906101000a900473ffffffffffffffffffffffffffffffffffffffff1673ffffffffffffffffffffffffffffffffffffffff1673ffffffffffffffffffffffffffffffffffffffff16815260200190815260200160002060040160149054906101000a900460ff16600681111561237057fe5b1461237a57600080fd5b60026000806001600088815260200190815260200160002060009054906101000a900473ffffffffffffffffffffffffffffffffffffffff1673ffffffffffffffffffffffffffffffffffffffff1673ffffffffffffffffffffffffffffffffffffffff16815260200190815260200160002060040160146101000a81548160ff0219169083600681111561240b57fe5b0217905550336000806001600088815260200190815260200160002060009054906101000a900473ffffffffffffffffffffffffffffffffffffffff1673ffffffffffffffffffffffffffffffffffffffff1673ffffffffffffffffffffffffffffffffffffffff16815260200190815260200160002060060160006101000a81548173ffffffffffffffffffffffffffffffffffffffff021916908373ffffffffffffffffffffffffffffffffffffffff1602179055507f5f5e84ee3f1fe881bcade10467f28456711c7cd4c7aca7e5ebde1bb8d0f1ffca6000806001600088815260200190815260200160002060009054906101000a900473ffffffffffffffffffffffffffffffffffffffff1673ffffffffffffffffffffffffffffffffffffffff1673ffffffffffffffffffffffffffffffffffffffff168152602001908152602001600020600001546000806001600089815260200190815260200160002060009054906101000a900473ffffffffffffffffffffffffffffffffffffffff1673ffffffffffffffffffffffffffffffffffffffff1673ffffffffffffffffffffffffffffffffffffffff16815260200190815260200160002060010154600080600160008a815260200190815260200160002060009054906101000a900473ffffffffffffffffffffffffffffffffffffffff1673ffffffffffffffffffffffffffffffffffffffff1673ffffffffffffffffffffffffffffffffffffffff16815260200190815260200160002060060160009054906101000a900473ffffffffffffffffffffffffffffffffffffffff16600080600160008b815260200190815260200160002060009054906101000a900473ffffffffffffffffffffffffffffffffffffffff1673ffffffffffffffffffffffffffffffffffffffff1673ffffffffffffffffffffffffffffffffffffffff16815260200190815260200160002060040160009054906101000a900473ffffffffffffffffffffffffffffffffffffffff166040516127089493929190612b89565b60405180910390a134600260003373ffffffffffffffffffffffffffffffffffffffff1673ffffffffffffffffffffffffffffffffffffffff168152602001908152602001600020600082825401925050819055507ffdc108b575d08570a36bf94bdbd25a35cacfb91b4d8dd560b17aaa99b4884f613334600260003373ffffffffffffffffffffffffffffffffffffffff1673ffffffffffffffffffffffffffffffffffffffff168152602001908152602001600020546040516127cf93929190612a8c565b60405180910390a16040518060400160405280601381526020017f7375636365737366756c6c792072656e7465640000000000000000000000000081525092505050919050565b60008135905061282581612db5565b92915050565b60008135905061283a81612dcc565b92915050565b60006020828403121561285257600080fd5b600061286084828501612816565b91505092915050565b60006020828403121561287b57600080fd5b60006128898482850161282b565b91505092915050565b6000806000606084860312156128a757600080fd5b60006128b58682870161282b565b93505060206128c68682870161282b565b92505060406128d78682870161282b565b9150509250925092565b6128ea81612d1c565b82525050565b6128f981612ccd565b82525050565b61290881612cbb565b82525050565b61291781612d2e565b82525050565b600061292882612c9f565b6129328185612caa565b9350612942818560208601612d64565b61294b81612d97565b840191505092915050565b6000612963602083612caa565b91507f5468652067616d65206973206e6f7420696e2072656e746564207374617475736000830152602082019050919050565b60006129a3602283612caa565b91507f5468652067616d65206973206e6f7420696e207265736572766564207374617460008301527f75730000000000000000000000000000000000000000000000000000000000006020830152604082019050919050565b6000612a09602783612caa565b91507f4f6e6c79206e6f6e2d6f776e6572732063616e20706572666f726d207468697360008301527f20616374696f6e000000000000000000000000000000000000000000000000006020830152604082019050919050565b612a6b81612d12565b82525050565b6000602082019050612a8660008301846128ff565b92915050565b6000606082019050612aa160008301866128e1565b612aae6020830185612a62565b612abb6040830184612a62565b949350505050565b60006020820190508181036000830152612add818461291d565b905092915050565b60006020820190508181036000830152612afe81612956565b9050919050565b60006020820190508181036000830152612b1e81612996565b9050919050565b60006020820190508181036000830152612b3e816129fc565b9050919050565b6000602082019050612b5a6000830184612a62565b92915050565b6000604082019050612b756000830185612a62565b612b826020830184612a62565b9392505050565b6000608082019050612b9e6000830187612a62565b612bab6020830186612a62565b612bb860408301856128e1565b612bc560608301846128e1565b95945050505050565b600060a082019050612be36000830188612a62565b612bf06020830187612a62565b612bfd60408301866128e1565b612c0a6060830185612a62565b612c176080830184612a62565b9695505050505050565b600061010082019050612c37600083018b612a62565b612c44602083018a612a62565b612c516040830189612a62565b612c5e6060830188612a62565b612c6b60808301876128f0565b612c7860a083018661290e565b612c8560c0830185612a62565b612c9260e08301846128f0565b9998505050505050505050565b600081519050919050565b600082825260208201905092915050565b6000612cc682612cf2565b9050919050565b6000612cd882612cf2565b9050919050565b6000819050612ced82612da8565b919050565b600073ffffffffffffffffffffffffffffffffffffffff82169050919050565b6000819050919050565b6000612d2782612d40565b9050919050565b6000612d3982612cdf565b9050919050565b6000612d4b82612d52565b9050919050565b6000612d5d82612cf2565b9050919050565b60005b83811015612d82578082015181840152602081019050612d67565b83811115612d91576000848401525b50505050565b6000601f19601f8301169050919050565b60078110612db257fe5b50565b612dbe81612cbb565b8114612dc957600080fd5b50565b612dd581612d12565b8114612de057600080fd5b5056fe7375636365737366756c6c792073686970706564207468652072656e7465642067616d65206261636b20746f206f776e657221546865206f776e6572207375636365737366756c6c79207265636569766564207468652067616d652e2052656e74616c20697320636f6d706c6574652e7375636365737366756c6c79207265636569766564207468652072656e7465642067616d65217375636365737366756c6c7920736869707065642072657365727665642067616d6521a365627a7a7231582003bd36035ded78dc2ea0dcc45feb892ad8b0b2cdbf8247ea9cb1dae17a3f743c6c6578706572696d656e74616cf564736f6c63430005100040",
  "source": "// SPDX-License-Identifier: MIT\npragma solidity >=0.4.22 <0.9.0;\npragma experimental ABIEncoderV2;\n\n\n// import \"@chainlink/contracts/src/v0.8/interfaces/AggregatorV3Interface.sol\";\n\n/// @title Decentralized Switch Game Rental Platform\n/// @author Dabin Lee\n/// @notice You can use this contract to register and rent Nintendo Switch games where deposit is held by the smart contract\ncontract DeSwitch {\n\n//   AggregatorV3Interface internal priceFeed;\n\n//   constructor() {\n//     priceFeed = AggregatorV3Interface(0x9326BFA02ADD2366b30bacB125260Af641031331);\n// }\n\n  event LogForGameRegistered(uint gameId, uint registerId, address gameOwnerAddress, uint rentalRate, uint depositRequired);\n  event LogForGameRentalRequested(uint gameId, uint registerId, address gameRenter, address gameOwnerAddress);\n  event LogForGameShippedToRenter(uint gameId, uint registerId, address gameRenter, address gameOwnerAddress);\n  event LogForGameReceivedByRenter(uint gameId, uint registerId, address gameRenter, address gameOwnerAddress);\n  event LogForGameShippedToOwner(uint gameId, uint registerId, address gameRenter, address gameOwnerAddress);\n  event LogForGameReceivedByOwner(uint gameId, uint registerId, address gameRenter, address gameOwnerAddress);\n  event LogForPendingBalanceIncrease(address ownerAddress, uint increaseValue, uint newBalance);\n  event LogForConfirmedBalanceIncrease(address ownerAddress, uint increaseValue, uint newBalance);\n  enum gameState {\n    Invalid,\n    Available,\n    Reserved,\n    ShippedToRenter,\n    Rented,\n    ShippedToOwner,\n    RentalCompleted\n  }\n\n  struct Game{\n    /// @param gameid is unique game ID assiged by Nintendo upon release of a game Title\n    /// @param gregisterId is a unique reference number assigned during game registration\n    /// @param rentalRate is rental rate in wei, charged per day\n    /// @param depositRequired is the deposit required in wei, to be used to offset rental charges upon successful completion of rental\n    /// @param gameOwner is the payable wallet address of the game owner where the rental charges will be transferred to\n    /// @param state is an enum gameState which describes the state of a unqiue game such as \"Available\" or \"Rented\"\n    /// @param timeRentalStart is a uint value which logs down when the rental was started to calculate the rental charges upon completion of rental\n    /// @param gameRenter is the payable wallet address of the game renter where the deposit minus rental charges will be transferred to\n    uint gameid;\n    uint gregisterId;\n    uint rentalRate;\n    uint depositRequired;\n    address payable gameOwner;\n    gameState state;\n    uint timeRentalStart;\n    address payable gameRenter;\n  }\n\n  \n  mapping (address => Game) public games;\n  mapping (uint => address) public registerIdList;\n  mapping (address => uint) public pendingBalances;\n  mapping (address => uint) public confirmedBalances;\n\n  // mapping (uint => Game) public games;\n\n  /// @param registerId is a reference counter which starts at 0 and gets added everytime there is a successful registeration of game for rental\n  uint registerId = 0 ;\n\n  \n  constructor() public {\n  }\n  \n  \n  /// @notice notGameOwner modifier requires the function to be by a person other than the game owner. (Example - to prevent game owner from renting his/her own game by mistake)\n  modifier notGameOwner(uint _trackingId) {\n    require(games[registerIdList[_trackingId]].gameOwner != msg.sender, \"Only non-owners can perform this action\");\n    _;\n  }\n\n  /// @notice isGameOwner modifier validates if the function is being called by the game owner. (Example - calling functions such as \"shipGame\")\n  modifier isGameOwner(uint _trackingId) {\n    require(games[registerIdList[_trackingId]].gameOwner == msg.sender);\n    _;\n  }\n\n  /// @notice isGameRenter modifier validates if the function is being called by the game renter. (Example - calling functions such as \"gameReceived\")\n  modifier isGameRenter(uint _trackingId) {\n    require(games[registerIdList[_trackingId]].gameRenter == msg.sender);\n    _;\n  }\n\n  /// @notice isAvailableGame modifier validates if the game with tracking ID of _trackingId has state set to \"Available\"\n  modifier isAvailableGame(uint _trackingId){\n    require(games[registerIdList[_trackingId]].state == gameState.Available);\n    _;\n  }\n\n  /// @notice isShippedToRenterGame modifier validates if the game with tracking ID of _trackingId has state set to \"shippedToRenter\"\n  modifier isShippedToRenterGame(uint _trackingId){\n    require(games[registerIdList[_trackingId]].state == gameState.ShippedToRenter);\n    _;\n  }\n  \n  /// @notice isReservedGame modifier validates if the game with the tracking ID of _trackingId has state set to \"Reserved\"\n  modifier isReservedGame(uint _trackingId){\n    require(games[registerIdList[_trackingId]].state == gameState.Reserved, \"The game is not in reserved status\");\n    _;\n  }\n\n  /// @notice isRentedGame modifer validates if the game with the tracking ID of _trackignId has state set to \"Rented\"\n  modifier isRentedGame(uint _trackingId){\n    require(games[registerIdList[_trackingId]].state == gameState.Rented,\"The game is not in rented status\");\n    _;\n  }\n\n  /// @notice isShippedToOwnerGame modifer validates if the game with the tracking ID of _trackingId has state set to \"ShippedToOwner\"\n  modifier isShippedToOwnerGame(uint _trackingId){\n    require(games[registerIdList[_trackingId]].state == gameState.ShippedToOwner);\n    _;\n  }\n\n  /// @notice queryGameCount is a publi view function which returns current value of registerId, which equals the # of registered games in the smart contract\n  function queryGameCount() public view returns(uint){\n    return (registerId);\n  }\n\n  /// @notice registerGame\n  /// @param _gameId takes in the game registration ID according to http://nswdb.com/\n  /// @param _rentalRate takes in the rental charges per day in wei\n  /// @param _depositRequired takes in the deposit charge for the whole game in wei\n  function registerGame(uint _gameId, uint _rentalRate, uint _depositRequired) public returns(uint, uint){\n    //should be a public function as anyone should be able to put their game for sale/rental\n    //Users register games they own (Ex. Switch Games) as \"Available\"\n    //GameID refers to gameId from http://nswdb.com/ to avoid confusion between different game titles\n    //Require checks for validity of values submitted for required arguments\n    //Set gameState as \"Available\"\n    //Set gameOwner as msg.sender\n    //Set gameBuyer and gameRenter will be empty and get updated once a buyer triggers the rentGame function\n    //returns true/false if registeration was successful and a trackingId tagged to the registered game\n    //Increase the registerId counter by 1 so that the next game gets registered with the next registerId.\n    //Consider hashing/randomizing instead of incremental values, can consider sha256(msg.sender+registerID)\n    registerId += 1;\n    //Create a Game struct with the provided values and add it to the address -> game mapping\n    games[msg.sender] = Game({\n      gameid : _gameId,\n      gregisterId : registerId,\n      rentalRate : _rentalRate,\n      depositRequired : _depositRequired,\n      gameOwner : msg.sender,\n      state : gameState.Available,\n      timeRentalStart : 0,\n      gameRenter : address(0)\n    });\n\n    //add to the mapping registerId -> Owner Address\n    registerIdList[registerId] = msg.sender;\n\n    //Emits appropriate event to log the chagnes \n    emit LogForGameRegistered(_gameId, registerId, msg.sender, _rentalRate, _depositRequired);\n    return (1, registerId);\n  }\n\n  function queryGameStatusbyTI(uint _trackingId) public view returns(string memory){\n    if (games[registerIdList[_trackingId]].state == gameState.Invalid) return \"Invalid\";\n    if (games[registerIdList[_trackingId]].state == gameState.Available) return \"Available\";\n    if (games[registerIdList[_trackingId]].state == gameState.Reserved) return \"Reserved\";\n    if (games[registerIdList[_trackingId]].state == gameState.ShippedToRenter) return \"ShippedToRenter\";\n    if (games[registerIdList[_trackingId]].state == gameState.Rented) return \"Rented\";\n    if (games[registerIdList[_trackingId]].state == gameState.ShippedToOwner) return \"ShippedToOwner\";\n    if (games[registerIdList[_trackingId]].state == gameState.RentalCompleted) return \"RentalCompleted\";\n    return \"Invalid\";\n  }\n\n  function queryBalance(address _address) public view returns(uint, uint){\n    // require(msg.sender == _address);\n    if (pendingBalances[_address] != 0 && confirmedBalances[_address] != 0){\n      // return (pendingBalances[_address], confirmedBalances[_address]);\n      return (1,1);\n    }else{\n      return (0,0);\n    }\n  }\n\n  function queryGamePricebyTI(uint _trackingId) public view returns(uint, uint){\n    //check if the game ID is valid\n    return (games[registerIdList[_trackingId]].rentalRate, games[registerIdList[_trackingId]].depositRequired);\n  }\n\n  function rentGame(uint _trackingId) public payable notGameOwner(_trackingId) isAvailableGame(_trackingId) returns(string memory) {\n    //should be \"payable\" as this requires ether to be transffered to the contract\n    //should be \"public\" as anyone should be able to rent the game \n    //Verify the state of trackingId to be \"Available\" using a modifier\n    //return true or false if the rentGame attempt was successful\n    //check if msg.value == games[trackingId].rentalRate\n    //at the end of this function the state of the Game should be set to \"TransactionInProgress\"\n    \n    games[registerIdList[_trackingId]].state = gameState.Reserved;\n    games[registerIdList[_trackingId]].gameRenter = msg.sender;\n    // games[registerIdList[_trackignId]]\n\n    //Emit event\n    // event LogForGameRentalRequested(uint gameId, uint registerId, address gameRenter, address gameOwnerAddress);\n    emit LogForGameRentalRequested(games[registerIdList[_trackingId]].gameid, games[registerIdList[_trackingId]].gregisterId, games[registerIdList[_trackingId]].gameRenter, games[registerIdList[_trackingId]].gameOwner);\n    \n    pendingBalances[msg.sender] += msg.value;\n    emit LogForPendingBalanceIncrease(msg.sender, msg.value, pendingBalances[msg.sender]);\n    return \"successfully rented\";\n  }\n\n\n\n  function shipGame(uint _trackingId) public isGameOwner(_trackingId) isReservedGame(_trackingId) returns(string memory){\n    //To be called by the gameOwner to account for state update to \"Shipped\"\n    //Only the gameOwner with same account address as games[trackingId].gameOnwer can execute this function\n    //Require the games[trackingId].state to be \"AvailableForRent\" or \"AvailableForBuy\"\n    games[registerIdList[_trackingId]].state = gameState.ShippedToRenter;\n    emit LogForGameShippedToRenter(games[registerIdList[_trackingId]].gameid, games[registerIdList[_trackingId]].gregisterId, games[registerIdList[_trackingId]].gameRenter, games[registerIdList[_trackingId]].gameOwner);\n    return \"successfully shipped reserved game!\";\n\n  } \n\n  function receiveGameRenter(uint _trackingId) public isGameRenter(_trackingId) isShippedToRenterGame(_trackingId) returns(string memory){\n    //To be called by the gameBuyer or gameRenter to account for state change to \"Rented\" or \"Sold\"\n    //This function triggers payment to the gameOwner address if the transaction completed was \"buy\" instead of \"rent\"\n    //This function makes the time to be loggged as the start of rental as timeRentalStart\n    games[registerIdList[_trackingId]].state = gameState.Rented;\n    emit LogForGameReceivedByRenter(games[registerIdList[_trackingId]].gameid, games[registerIdList[_trackingId]].gregisterId, games[registerIdList[_trackingId]].gameRenter, games[registerIdList[_trackingId]].gameOwner);\n    return \"successfully received the rented game!\";\n  }\n\n  function returnGame(uint _trackingId) public isGameRenter(_trackingId) isRentedGame(_trackingId) returns(string memory){\n    //To be called buy the owner once the game has returned in good condition.\n    //This function returns the deposit (Totaldeposit - rental fee) from the smart Contract to the renter\n    //To trigger payment function to the gameOwner for the rental fee\n    games[registerIdList[_trackingId]].state = gameState.ShippedToOwner;\n    emit LogForGameShippedToOwner(games[registerIdList[_trackingId]].gameid, games[registerIdList[_trackingId]].gregisterId, games[registerIdList[_trackingId]].gameRenter, games[registerIdList[_trackingId]].gameOwner);\n    return \"successfully shipped the rented game back to owner!\";\n  }\n\n  function receiveGameOwner(uint _trackingId) public isGameOwner(_trackingId) isShippedToOwnerGame(_trackingId) returns(string memory){\n    //To be called by the gameOwner to account for state change when the game is returned by the renter.\n    //This function triggers payment to the gameOwner address if the transaction completed was \"buy\" instead of \"rent\"\n    //This function makes the time to be loggged as the start of rental as timeRentalStart\n    games[registerIdList[_trackingId]].state = gameState.RentalCompleted;\n    emit LogForGameReceivedByOwner(games[registerIdList[_trackingId]].gameid, games[registerIdList[_trackingId]].gregisterId, games[registerIdList[_trackingId]].gameRenter, games[registerIdList[_trackingId]].gameOwner);\n    return \"The owner successfully received the game. Rental is complete.\";\n  }\n\n//   function getLatestPrice() public view returns (int) {\n//     (\n//         uint80 roundID, \n//         int price,\n//         uint startedAt,\n//         uint timeStamp,\n//         uint80 answeredInRound\n//     ) = priceFeed.latestRoundData();\n//     return price;\n// }\n\n\n}\n",
  "sourcePath": "/home/dabin/consensys/blockchain-developer-bootcamp-final-project/contracts/DeSwitch.sol",
  "compiler": {
    "name": "solc",
    "version": "0.5.16+commit.9c3226ce.Emscripten.clang"
  },
  "schemaVersion": "3.4.3",
  "updatedAt": "2021-11-21T15:51:06.516Z",
  "networkType": "ethereum",
  "devdoc": {
    "author": "Dabin Lee",
    "methods": {
      "registerGame(uint256,uint256,uint256)": {
        "params": {
          "_depositRequired": "takes in the deposit charge for the whole game in wei",
          "_gameId": "takes in the game registration ID according to http://nswdb.com/",
          "_rentalRate": "takes in the rental charges per day in wei"
        }
      }
    },
    "title": "Decentralized Switch Game Rental Platform"
  },
  "userdoc": {
    "methods": {
      "queryGameCount()": {
        "notice": "queryGameCount is a publi view function which returns current value of registerId, which equals the # of registered games in the smart contract"
      },
      "registerGame(uint256,uint256,uint256)": {
        "notice": "registerGame"
      }
    },
    "notice": "You can use this contract to register and rent Nintendo Switch games where deposit is held by the smart contract"
  }
}