{
  "contractName": "DeSwitch",
  "abi": [
    {
      "inputs": [],
      "payable": false,
      "stateMutability": "nonpayable",
      "type": "constructor"
    },
    {
      "anonymous": false,
      "inputs": [
        {
          "indexed": false,
          "internalType": "address",
          "name": "ownerAddress",
          "type": "address"
        },
        {
          "indexed": false,
          "internalType": "uint256",
          "name": "increaseValue",
          "type": "uint256"
        },
        {
          "indexed": false,
          "internalType": "uint256",
          "name": "newBalance",
          "type": "uint256"
        }
      ],
      "name": "LogForConfirmedBalanceIncrease",
      "type": "event"
    },
    {
      "anonymous": false,
      "inputs": [
        {
          "indexed": false,
          "internalType": "uint256",
          "name": "gameId",
          "type": "uint256"
        },
        {
          "indexed": false,
          "internalType": "uint256",
          "name": "registerId",
          "type": "uint256"
        },
        {
          "indexed": false,
          "internalType": "address",
          "name": "gameRenter",
          "type": "address"
        },
        {
          "indexed": false,
          "internalType": "address",
          "name": "gameOwnerAddress",
          "type": "address"
        }
      ],
      "name": "LogForGameReceivedByOwner",
      "type": "event"
    },
    {
      "anonymous": false,
      "inputs": [
        {
          "indexed": false,
          "internalType": "uint256",
          "name": "gameId",
          "type": "uint256"
        },
        {
          "indexed": false,
          "internalType": "uint256",
          "name": "registerId",
          "type": "uint256"
        },
        {
          "indexed": false,
          "internalType": "address",
          "name": "gameRenter",
          "type": "address"
        },
        {
          "indexed": false,
          "internalType": "address",
          "name": "gameOwnerAddress",
          "type": "address"
        }
      ],
      "name": "LogForGameReceivedByRenter",
      "type": "event"
    },
    {
      "anonymous": false,
      "inputs": [
        {
          "indexed": false,
          "internalType": "uint256",
          "name": "gameId",
          "type": "uint256"
        },
        {
          "indexed": false,
          "internalType": "uint256",
          "name": "registerId",
          "type": "uint256"
        },
        {
          "indexed": false,
          "internalType": "address",
          "name": "gameOwnerAddress",
          "type": "address"
        },
        {
          "indexed": false,
          "internalType": "uint256",
          "name": "rentalRate",
          "type": "uint256"
        },
        {
          "indexed": false,
          "internalType": "uint256",
          "name": "depositRequired",
          "type": "uint256"
        }
      ],
      "name": "LogForGameRegistered",
      "type": "event"
    },
    {
      "anonymous": false,
      "inputs": [
        {
          "indexed": false,
          "internalType": "uint256",
          "name": "gameId",
          "type": "uint256"
        },
        {
          "indexed": false,
          "internalType": "uint256",
          "name": "registerId",
          "type": "uint256"
        },
        {
          "indexed": false,
          "internalType": "address",
          "name": "gameRenter",
          "type": "address"
        },
        {
          "indexed": false,
          "internalType": "address",
          "name": "gameOwnerAddress",
          "type": "address"
        }
      ],
      "name": "LogForGameRentalRequested",
      "type": "event"
    },
    {
      "anonymous": false,
      "inputs": [
        {
          "indexed": false,
          "internalType": "uint256",
          "name": "gameId",
          "type": "uint256"
        },
        {
          "indexed": false,
          "internalType": "uint256",
          "name": "registerId",
          "type": "uint256"
        },
        {
          "indexed": false,
          "internalType": "address",
          "name": "gameRenter",
          "type": "address"
        },
        {
          "indexed": false,
          "internalType": "address",
          "name": "gameOwnerAddress",
          "type": "address"
        }
      ],
      "name": "LogForGameShippedToOwner",
      "type": "event"
    },
    {
      "anonymous": false,
      "inputs": [
        {
          "indexed": false,
          "internalType": "uint256",
          "name": "gameId",
          "type": "uint256"
        },
        {
          "indexed": false,
          "internalType": "uint256",
          "name": "registerId",
          "type": "uint256"
        },
        {
          "indexed": false,
          "internalType": "address",
          "name": "gameRenter",
          "type": "address"
        },
        {
          "indexed": false,
          "internalType": "address",
          "name": "gameOwnerAddress",
          "type": "address"
        }
      ],
      "name": "LogForGameShippedToRenter",
      "type": "event"
    },
    {
      "anonymous": false,
      "inputs": [
        {
          "indexed": false,
          "internalType": "address",
          "name": "ownerAddress",
          "type": "address"
        },
        {
          "indexed": false,
          "internalType": "uint256",
          "name": "increaseValue",
          "type": "uint256"
        },
        {
          "indexed": false,
          "internalType": "uint256",
          "name": "newBalance",
          "type": "uint256"
        }
      ],
      "name": "LogForPendingBalanceIncrease",
      "type": "event"
    },
    {
      "constant": true,
      "inputs": [
        {
          "internalType": "address",
          "name": "",
          "type": "address"
        }
      ],
      "name": "confirmedBalances",
      "outputs": [
        {
          "internalType": "uint256",
          "name": "",
          "type": "uint256"
        }
      ],
      "payable": false,
      "stateMutability": "view",
      "type": "function"
    },
    {
      "constant": true,
      "inputs": [
        {
          "internalType": "address",
          "name": "",
          "type": "address"
        }
      ],
      "name": "games",
      "outputs": [
        {
          "internalType": "uint256",
          "name": "gameid",
          "type": "uint256"
        },
        {
          "internalType": "uint256",
          "name": "gregisterId",
          "type": "uint256"
        },
        {
          "internalType": "uint256",
          "name": "rentalRate",
          "type": "uint256"
        },
        {
          "internalType": "uint256",
          "name": "depositRequired",
          "type": "uint256"
        },
        {
          "internalType": "address payable",
          "name": "gameOwner",
          "type": "address"
        },
        {
          "internalType": "enum DeSwitch.gameState",
          "name": "state",
          "type": "uint8"
        },
        {
          "internalType": "uint256",
          "name": "timeRentalStart",
          "type": "uint256"
        },
        {
          "internalType": "address payable",
          "name": "gameRenter",
          "type": "address"
        }
      ],
      "payable": false,
      "stateMutability": "view",
      "type": "function"
    },
    {
      "constant": true,
      "inputs": [
        {
          "internalType": "address",
          "name": "",
          "type": "address"
        }
      ],
      "name": "pendingBalances",
      "outputs": [
        {
          "internalType": "uint256",
          "name": "",
          "type": "uint256"
        }
      ],
      "payable": false,
      "stateMutability": "view",
      "type": "function"
    },
    {
      "constant": true,
      "inputs": [
        {
          "internalType": "uint256",
          "name": "",
          "type": "uint256"
        }
      ],
      "name": "registerIdList",
      "outputs": [
        {
          "internalType": "address",
          "name": "",
          "type": "address"
        }
      ],
      "payable": false,
      "stateMutability": "view",
      "type": "function"
    },
    {
      "constant": true,
      "inputs": [],
      "name": "queryGameCount",
      "outputs": [
        {
          "internalType": "uint256",
          "name": "",
          "type": "uint256"
        }
      ],
      "payable": false,
      "stateMutability": "view",
      "type": "function"
    },
    {
      "constant": false,
      "inputs": [
        {
          "internalType": "uint256",
          "name": "_gameId",
          "type": "uint256"
        },
        {
          "internalType": "uint256",
          "name": "_rentalRate",
          "type": "uint256"
        },
        {
          "internalType": "uint256",
          "name": "_depositRequired",
          "type": "uint256"
        }
      ],
      "name": "registerGame",
      "outputs": [
        {
          "internalType": "uint256",
          "name": "",
          "type": "uint256"
        },
        {
          "internalType": "uint256",
          "name": "",
          "type": "uint256"
        }
      ],
      "payable": false,
      "stateMutability": "nonpayable",
      "type": "function"
    },
    {
      "constant": true,
      "inputs": [
        {
          "internalType": "uint256",
          "name": "_trackingId",
          "type": "uint256"
        }
      ],
      "name": "queryGameStatusbyTI",
      "outputs": [
        {
          "internalType": "string",
          "name": "",
          "type": "string"
        }
      ],
      "payable": false,
      "stateMutability": "view",
      "type": "function"
    },
    {
      "constant": true,
      "inputs": [
        {
          "internalType": "address",
          "name": "_address",
          "type": "address"
        }
      ],
      "name": "queryBalance",
      "outputs": [
        {
          "internalType": "uint256",
          "name": "",
          "type": "uint256"
        },
        {
          "internalType": "uint256",
          "name": "",
          "type": "uint256"
        }
      ],
      "payable": false,
      "stateMutability": "view",
      "type": "function"
    },
    {
      "constant": true,
      "inputs": [
        {
          "internalType": "uint256",
          "name": "_trackingId",
          "type": "uint256"
        }
      ],
      "name": "queryGamePricebyTI",
      "outputs": [
        {
          "internalType": "uint256",
          "name": "",
          "type": "uint256"
        },
        {
          "internalType": "uint256",
          "name": "",
          "type": "uint256"
        }
      ],
      "payable": false,
      "stateMutability": "view",
      "type": "function"
    },
    {
      "constant": false,
      "inputs": [
        {
          "internalType": "uint256",
          "name": "_trackingId",
          "type": "uint256"
        }
      ],
      "name": "rentGame",
      "outputs": [
        {
          "internalType": "string",
          "name": "",
          "type": "string"
        }
      ],
      "payable": true,
      "stateMutability": "payable",
      "type": "function"
    },
    {
      "constant": false,
      "inputs": [
        {
          "internalType": "uint256",
          "name": "_trackingId",
          "type": "uint256"
        }
      ],
      "name": "shipGame",
      "outputs": [
        {
          "internalType": "string",
          "name": "",
          "type": "string"
        }
      ],
      "payable": false,
      "stateMutability": "nonpayable",
      "type": "function"
    },
    {
      "constant": false,
      "inputs": [
        {
          "internalType": "uint256",
          "name": "_trackingId",
          "type": "uint256"
        }
      ],
      "name": "receiveGameRenter",
      "outputs": [
        {
          "internalType": "string",
          "name": "",
          "type": "string"
        }
      ],
      "payable": false,
      "stateMutability": "nonpayable",
      "type": "function"
    },
    {
      "constant": false,
      "inputs": [
        {
          "internalType": "uint256",
          "name": "_trackingId",
          "type": "uint256"
        }
      ],
      "name": "returnGame",
      "outputs": [
        {
          "internalType": "string",
          "name": "",
          "type": "string"
        }
      ],
      "payable": false,
      "stateMutability": "nonpayable",
      "type": "function"
    },
    {
      "constant": false,
      "inputs": [
        {
          "internalType": "uint256",
          "name": "_trackingId",
          "type": "uint256"
        }
      ],
      "name": "receiveGameOwner",
      "outputs": [
        {
          "internalType": "string",
          "name": "",
          "type": "string"
        }
      ],
      "payable": false,
      "stateMutability": "nonpayable",
      "type": "function"
    }
  ],
  "bytecode": "0x6080604052600060045534801561001557600080fd5b50612f17806100256000396000f3fe6080604052600436106100dd5760003560e01c806369742aa81161007f578063b97b0f2611610059578063b97b0f261461033c578063ecdae41b14610379578063f0787858146103b6578063f3130972146103f3576100dd565b806369742aa81461027e5780636f0b97a7146102bb57806379131a19146102f8576100dd565b806337f42841116100bb57806337f42841146101895780633a91dff5146101c75780633d1b210114610204578063428f682214610241576100dd565b806314efee00146100e25780632146d8931461010d5780632d191d851461014b575b600080fd5b3480156100ee57600080fd5b506100f7610423565b6040516101049190612b7d565b60405180910390f35b34801561011957600080fd5b50610134600480360361012f91908101906128ca565b61042d565b604051610142929190612b98565b60405180910390f35b34801561015757600080fd5b50610172600480360361016d91908101906128a1565b61068a565b604051610180929190612b98565b60405180910390f35b34801561019557600080fd5b506101b060048036036101ab9190810190612878565b610780565b6040516101be929190612b98565b60405180910390f35b3480156101d357600080fd5b506101ee60048036036101e991908101906128a1565b610875565b6040516101fb9190612afb565b60405180910390f35b34801561021057600080fd5b5061022b600480360361022691908101906128a1565b610cee565b6040516102389190612aa9565b60405180910390f35b34801561024d57600080fd5b50610268600480360361026391908101906128a1565b610d21565b6040516102759190612afb565b60405180910390f35b34801561028a57600080fd5b506102a560048036036102a09190810190612878565b61136b565b6040516102b29190612b7d565b60405180910390f35b3480156102c757600080fd5b506102e260048036036102dd91908101906128a1565b611383565b6040516102ef9190612afb565b60405180910390f35b34801561030457600080fd5b5061031f600480360361031a9190810190612878565b611832565b604051610333989796959493929190612c59565b60405180910390f35b34801561034857600080fd5b50610363600480360361035e91908101906128a1565b6118c7565b6040516103709190612afb565b60405180910390f35b34801561038557600080fd5b506103a0600480360361039b9190810190612878565b611d40565b6040516103ad9190612b7d565b60405180910390f35b3480156103c257600080fd5b506103dd60048036036103d891908101906128a1565b611d58565b6040516103ea9190612afb565b60405180910390f35b61040d600480360361040891908101906128a1565b612207565b60405161041a9190612afb565b60405180910390f35b6000600454905090565b600080600160046000828254019250508190555060405180610100016040528086815260200160045481526020018581526020018481526020013373ffffffffffffffffffffffffffffffffffffffff1681526020016001600681111561049057fe5b815260200160008152602001600073ffffffffffffffffffffffffffffffffffffffff168152506000803373ffffffffffffffffffffffffffffffffffffffff1673ffffffffffffffffffffffffffffffffffffffff1681526020019081526020016000206000820151816000015560208201518160010155604082015181600201556060820151816003015560808201518160040160006101000a81548173ffffffffffffffffffffffffffffffffffffffff021916908373ffffffffffffffffffffffffffffffffffffffff16021790555060a08201518160040160146101000a81548160ff0219169083600681111561058857fe5b021790555060c0820151816005015560e08201518160060160006101000a81548173ffffffffffffffffffffffffffffffffffffffff021916908373ffffffffffffffffffffffffffffffffffffffff1602179055509050503360016000600454815260200190815260200160002060006101000a81548173ffffffffffffffffffffffffffffffffffffffff021916908373ffffffffffffffffffffffffffffffffffffffff1602179055507f1514ac551452196cfee486346bb313635c81b22c7cc00f5959aabc3d4b9c3a278560045433878760405161066e959493929190612c06565b60405180910390a1600160045481915091509150935093915050565b6000806000806001600086815260200190815260200160002060009054906101000a900473ffffffffffffffffffffffffffffffffffffffff1673ffffffffffffffffffffffffffffffffffffffff1673ffffffffffffffffffffffffffffffffffffffff168152602001908152602001600020600201546000806001600087815260200190815260200160002060009054906101000a900473ffffffffffffffffffffffffffffffffffffffff1673ffffffffffffffffffffffffffffffffffffffff1673ffffffffffffffffffffffffffffffffffffffff1681526020019081526020016000206003015491509150915091565b6000808273ffffffffffffffffffffffffffffffffffffffff163373ffffffffffffffffffffffffffffffffffffffff16146107bb57600080fd5b6000600260008573ffffffffffffffffffffffffffffffffffffffff1673ffffffffffffffffffffffffffffffffffffffff168152602001908152602001600020541415801561084b57506000600360008573ffffffffffffffffffffffffffffffffffffffff1673ffffffffffffffffffffffffffffffffffffffff1681526020019081526020016000205414155b156108625760018081915080905091509150610870565b600080819150809050915091505b915091565b6060813373ffffffffffffffffffffffffffffffffffffffff166000806001600085815260200190815260200160002060009054906101000a900473ffffffffffffffffffffffffffffffffffffffff1673ffffffffffffffffffffffffffffffffffffffff1673ffffffffffffffffffffffffffffffffffffffff16815260200190815260200160002060060160009054906101000a900473ffffffffffffffffffffffffffffffffffffffff1673ffffffffffffffffffffffffffffffffffffffff161461094457600080fd5b826003600681111561095257fe5b6000806001600085815260200190815260200160002060009054906101000a900473ffffffffffffffffffffffffffffffffffffffff1673ffffffffffffffffffffffffffffffffffffffff1673ffffffffffffffffffffffffffffffffffffffff16815260200190815260200160002060040160149054906101000a900460ff1660068111156109df57fe5b146109e957600080fd5b60046000806001600088815260200190815260200160002060009054906101000a900473ffffffffffffffffffffffffffffffffffffffff1673ffffffffffffffffffffffffffffffffffffffff1673ffffffffffffffffffffffffffffffffffffffff16815260200190815260200160002060040160146101000a81548160ff02191690836006811115610a7a57fe5b02179055507f8ab866b3478134948c30a0cddaeb95948ec8751c892b6c71b154e255cdd5cec06000806001600088815260200190815260200160002060009054906101000a900473ffffffffffffffffffffffffffffffffffffffff1673ffffffffffffffffffffffffffffffffffffffff1673ffffffffffffffffffffffffffffffffffffffff168152602001908152602001600020600001546000806001600089815260200190815260200160002060009054906101000a900473ffffffffffffffffffffffffffffffffffffffff1673ffffffffffffffffffffffffffffffffffffffff1673ffffffffffffffffffffffffffffffffffffffff16815260200190815260200160002060010154600080600160008a815260200190815260200160002060009054906101000a900473ffffffffffffffffffffffffffffffffffffffff1673ffffffffffffffffffffffffffffffffffffffff1673ffffffffffffffffffffffffffffffffffffffff16815260200190815260200160002060060160009054906101000a900473ffffffffffffffffffffffffffffffffffffffff16600080600160008b815260200190815260200160002060009054906101000a900473ffffffffffffffffffffffffffffffffffffffff1673ffffffffffffffffffffffffffffffffffffffff1673ffffffffffffffffffffffffffffffffffffffff16815260200190815260200160002060040160009054906101000a900473ffffffffffffffffffffffffffffffffffffffff16604051610cc49493929190612bc1565b60405180910390a1604051806060016040528060268152602001612e8c6026913992505050919050565b60016020528060005260406000206000915054906101000a900473ffffffffffffffffffffffffffffffffffffffff1681565b606060006006811115610d3057fe5b6000806001600086815260200190815260200160002060009054906101000a900473ffffffffffffffffffffffffffffffffffffffff1673ffffffffffffffffffffffffffffffffffffffff1673ffffffffffffffffffffffffffffffffffffffff16815260200190815260200160002060040160149054906101000a900460ff166006811115610dbd57fe5b1415610e00576040518060400160405280600781526020017f496e76616c6964000000000000000000000000000000000000000000000000008152509050611366565b60016006811115610e0d57fe5b6000806001600086815260200190815260200160002060009054906101000a900473ffffffffffffffffffffffffffffffffffffffff1673ffffffffffffffffffffffffffffffffffffffff1673ffffffffffffffffffffffffffffffffffffffff16815260200190815260200160002060040160149054906101000a900460ff166006811115610e9a57fe5b1415610edd576040518060400160405280600981526020017f417661696c61626c6500000000000000000000000000000000000000000000008152509050611366565b60026006811115610eea57fe5b6000806001600086815260200190815260200160002060009054906101000a900473ffffffffffffffffffffffffffffffffffffffff1673ffffffffffffffffffffffffffffffffffffffff1673ffffffffffffffffffffffffffffffffffffffff16815260200190815260200160002060040160149054906101000a900460ff166006811115610f7757fe5b1415610fba576040518060400160405280600881526020017f52657365727665640000000000000000000000000000000000000000000000008152509050611366565b60036006811115610fc757fe5b6000806001600086815260200190815260200160002060009054906101000a900473ffffffffffffffffffffffffffffffffffffffff1673ffffffffffffffffffffffffffffffffffffffff1673ffffffffffffffffffffffffffffffffffffffff16815260200190815260200160002060040160149054906101000a900460ff16600681111561105457fe5b1415611097576040518060400160405280600f81526020017f53686970706564546f52656e74657200000000000000000000000000000000008152509050611366565b600460068111156110a457fe5b6000806001600086815260200190815260200160002060009054906101000a900473ffffffffffffffffffffffffffffffffffffffff1673ffffffffffffffffffffffffffffffffffffffff1673ffffffffffffffffffffffffffffffffffffffff16815260200190815260200160002060040160149054906101000a900460ff16600681111561113157fe5b1415611174576040518060400160405280600681526020017f52656e74656400000000000000000000000000000000000000000000000000008152509050611366565b6005600681111561118157fe5b6000806001600086815260200190815260200160002060009054906101000a900473ffffffffffffffffffffffffffffffffffffffff1673ffffffffffffffffffffffffffffffffffffffff1673ffffffffffffffffffffffffffffffffffffffff16815260200190815260200160002060040160149054906101000a900460ff16600681111561120e57fe5b1415611251576040518060400160405280600e81526020017f53686970706564546f4f776e65720000000000000000000000000000000000008152509050611366565b60068081111561125d57fe5b6000806001600086815260200190815260200160002060009054906101000a900473ffffffffffffffffffffffffffffffffffffffff1673ffffffffffffffffffffffffffffffffffffffff1673ffffffffffffffffffffffffffffffffffffffff16815260200190815260200160002060040160149054906101000a900460ff1660068111156112ea57fe5b141561132d576040518060400160405280600f81526020017f52656e74616c436f6d706c6574656400000000000000000000000000000000008152509050611366565b6040518060400160405280600781526020017f496e76616c69640000000000000000000000000000000000000000000000000081525090505b919050565b60036020528060005260406000206000915090505481565b6060813373ffffffffffffffffffffffffffffffffffffffff166000806001600085815260200190815260200160002060009054906101000a900473ffffffffffffffffffffffffffffffffffffffff1673ffffffffffffffffffffffffffffffffffffffff1673ffffffffffffffffffffffffffffffffffffffff16815260200190815260200160002060040160009054906101000a900473ffffffffffffffffffffffffffffffffffffffff1673ffffffffffffffffffffffffffffffffffffffff161461145257600080fd5b826002600681111561146057fe5b6000806001600085815260200190815260200160002060009054906101000a900473ffffffffffffffffffffffffffffffffffffffff1673ffffffffffffffffffffffffffffffffffffffff1673ffffffffffffffffffffffffffffffffffffffff16815260200190815260200160002060040160149054906101000a900460ff1660068111156114ed57fe5b1461152d576040517f08c379a000000000000000000000000000000000000000000000000000000000815260040161152490612b3d565b60405180910390fd5b60036000806001600088815260200190815260200160002060009054906101000a900473ffffffffffffffffffffffffffffffffffffffff1673ffffffffffffffffffffffffffffffffffffffff1673ffffffffffffffffffffffffffffffffffffffff16815260200190815260200160002060040160146101000a81548160ff021916908360068111156115be57fe5b02179055507fb7335d34db340366ad91abf4d197c60a7d7bc92e71c0daaa7cd400a1254cad326000806001600088815260200190815260200160002060009054906101000a900473ffffffffffffffffffffffffffffffffffffffff1673ffffffffffffffffffffffffffffffffffffffff1673ffffffffffffffffffffffffffffffffffffffff168152602001908152602001600020600001546000806001600089815260200190815260200160002060009054906101000a900473ffffffffffffffffffffffffffffffffffffffff1673ffffffffffffffffffffffffffffffffffffffff1673ffffffffffffffffffffffffffffffffffffffff16815260200190815260200160002060010154600080600160008a815260200190815260200160002060009054906101000a900473ffffffffffffffffffffffffffffffffffffffff1673ffffffffffffffffffffffffffffffffffffffff1673ffffffffffffffffffffffffffffffffffffffff16815260200190815260200160002060060160009054906101000a900473ffffffffffffffffffffffffffffffffffffffff16600080600160008b815260200190815260200160002060009054906101000a900473ffffffffffffffffffffffffffffffffffffffff1673ffffffffffffffffffffffffffffffffffffffff1673ffffffffffffffffffffffffffffffffffffffff16815260200190815260200160002060040160009054906101000a900473ffffffffffffffffffffffffffffffffffffffff166040516118089493929190612bc1565b60405180910390a1604051806060016040528060238152602001612eb26023913992505050919050565b60006020528060005260406000206000915090508060000154908060010154908060020154908060030154908060040160009054906101000a900473ffffffffffffffffffffffffffffffffffffffff16908060040160149054906101000a900460ff16908060050154908060060160009054906101000a900473ffffffffffffffffffffffffffffffffffffffff16905088565b6060813373ffffffffffffffffffffffffffffffffffffffff166000806001600085815260200190815260200160002060009054906101000a900473ffffffffffffffffffffffffffffffffffffffff1673ffffffffffffffffffffffffffffffffffffffff1673ffffffffffffffffffffffffffffffffffffffff16815260200190815260200160002060040160009054906101000a900473ffffffffffffffffffffffffffffffffffffffff1673ffffffffffffffffffffffffffffffffffffffff161461199657600080fd5b82600560068111156119a457fe5b6000806001600085815260200190815260200160002060009054906101000a900473ffffffffffffffffffffffffffffffffffffffff1673ffffffffffffffffffffffffffffffffffffffff1673ffffffffffffffffffffffffffffffffffffffff16815260200190815260200160002060040160149054906101000a900460ff166006811115611a3157fe5b14611a3b57600080fd5b60066000806001600088815260200190815260200160002060009054906101000a900473ffffffffffffffffffffffffffffffffffffffff1673ffffffffffffffffffffffffffffffffffffffff1673ffffffffffffffffffffffffffffffffffffffff16815260200190815260200160002060040160146101000a81548160ff02191690836006811115611acc57fe5b02179055507fcb58afe26b749825f76600180a359c75d8f4edffc4eaf319c0663ddc92707c2c6000806001600088815260200190815260200160002060009054906101000a900473ffffffffffffffffffffffffffffffffffffffff1673ffffffffffffffffffffffffffffffffffffffff1673ffffffffffffffffffffffffffffffffffffffff168152602001908152602001600020600001546000806001600089815260200190815260200160002060009054906101000a900473ffffffffffffffffffffffffffffffffffffffff1673ffffffffffffffffffffffffffffffffffffffff1673ffffffffffffffffffffffffffffffffffffffff16815260200190815260200160002060010154600080600160008a815260200190815260200160002060009054906101000a900473ffffffffffffffffffffffffffffffffffffffff1673ffffffffffffffffffffffffffffffffffffffff1673ffffffffffffffffffffffffffffffffffffffff16815260200190815260200160002060060160009054906101000a900473ffffffffffffffffffffffffffffffffffffffff16600080600160008b815260200190815260200160002060009054906101000a900473ffffffffffffffffffffffffffffffffffffffff1673ffffffffffffffffffffffffffffffffffffffff1673ffffffffffffffffffffffffffffffffffffffff16815260200190815260200160002060040160009054906101000a900473ffffffffffffffffffffffffffffffffffffffff16604051611d169493929190612bc1565b60405180910390a16040518060600160405280603d8152602001612e4f603d913992505050919050565b60026020528060005260406000206000915090505481565b6060813373ffffffffffffffffffffffffffffffffffffffff166000806001600085815260200190815260200160002060009054906101000a900473ffffffffffffffffffffffffffffffffffffffff1673ffffffffffffffffffffffffffffffffffffffff1673ffffffffffffffffffffffffffffffffffffffff16815260200190815260200160002060060160009054906101000a900473ffffffffffffffffffffffffffffffffffffffff1673ffffffffffffffffffffffffffffffffffffffff1614611e2757600080fd5b8260046006811115611e3557fe5b6000806001600085815260200190815260200160002060009054906101000a900473ffffffffffffffffffffffffffffffffffffffff1673ffffffffffffffffffffffffffffffffffffffff1673ffffffffffffffffffffffffffffffffffffffff16815260200190815260200160002060040160149054906101000a900460ff166006811115611ec257fe5b14611f02576040517f08c379a0000000000000000000000000000000000000000000000000000000008152600401611ef990612b1d565b60405180910390fd5b60056000806001600088815260200190815260200160002060009054906101000a900473ffffffffffffffffffffffffffffffffffffffff1673ffffffffffffffffffffffffffffffffffffffff1673ffffffffffffffffffffffffffffffffffffffff16815260200190815260200160002060040160146101000a81548160ff02191690836006811115611f9357fe5b02179055507f21077aa5509028db270d4a455a256c98b45637712e8bfd87367bae928139d6a86000806001600088815260200190815260200160002060009054906101000a900473ffffffffffffffffffffffffffffffffffffffff1673ffffffffffffffffffffffffffffffffffffffff1673ffffffffffffffffffffffffffffffffffffffff168152602001908152602001600020600001546000806001600089815260200190815260200160002060009054906101000a900473ffffffffffffffffffffffffffffffffffffffff1673ffffffffffffffffffffffffffffffffffffffff1673ffffffffffffffffffffffffffffffffffffffff16815260200190815260200160002060010154600080600160008a815260200190815260200160002060009054906101000a900473ffffffffffffffffffffffffffffffffffffffff1673ffffffffffffffffffffffffffffffffffffffff1673ffffffffffffffffffffffffffffffffffffffff16815260200190815260200160002060060160009054906101000a900473ffffffffffffffffffffffffffffffffffffffff16600080600160008b815260200190815260200160002060009054906101000a900473ffffffffffffffffffffffffffffffffffffffff1673ffffffffffffffffffffffffffffffffffffffff1673ffffffffffffffffffffffffffffffffffffffff16815260200190815260200160002060040160009054906101000a900473ffffffffffffffffffffffffffffffffffffffff166040516121dd9493929190612bc1565b60405180910390a1604051806060016040528060338152602001612e1c6033913992505050919050565b6060813373ffffffffffffffffffffffffffffffffffffffff166000806001600085815260200190815260200160002060009054906101000a900473ffffffffffffffffffffffffffffffffffffffff1673ffffffffffffffffffffffffffffffffffffffff1673ffffffffffffffffffffffffffffffffffffffff16815260200190815260200160002060040160009054906101000a900473ffffffffffffffffffffffffffffffffffffffff1673ffffffffffffffffffffffffffffffffffffffff16141561230d576040517f08c379a000000000000000000000000000000000000000000000000000000000815260040161230490612b5d565b60405180910390fd5b826001600681111561231b57fe5b6000806001600085815260200190815260200160002060009054906101000a900473ffffffffffffffffffffffffffffffffffffffff1673ffffffffffffffffffffffffffffffffffffffff1673ffffffffffffffffffffffffffffffffffffffff16815260200190815260200160002060040160149054906101000a900460ff1660068111156123a857fe5b146123b257600080fd5b60026000806001600088815260200190815260200160002060009054906101000a900473ffffffffffffffffffffffffffffffffffffffff1673ffffffffffffffffffffffffffffffffffffffff1673ffffffffffffffffffffffffffffffffffffffff16815260200190815260200160002060040160146101000a81548160ff0219169083600681111561244357fe5b0217905550336000806001600088815260200190815260200160002060009054906101000a900473ffffffffffffffffffffffffffffffffffffffff1673ffffffffffffffffffffffffffffffffffffffff1673ffffffffffffffffffffffffffffffffffffffff16815260200190815260200160002060060160006101000a81548173ffffffffffffffffffffffffffffffffffffffff021916908373ffffffffffffffffffffffffffffffffffffffff1602179055507f5f5e84ee3f1fe881bcade10467f28456711c7cd4c7aca7e5ebde1bb8d0f1ffca6000806001600088815260200190815260200160002060009054906101000a900473ffffffffffffffffffffffffffffffffffffffff1673ffffffffffffffffffffffffffffffffffffffff1673ffffffffffffffffffffffffffffffffffffffff168152602001908152602001600020600001546000806001600089815260200190815260200160002060009054906101000a900473ffffffffffffffffffffffffffffffffffffffff1673ffffffffffffffffffffffffffffffffffffffff1673ffffffffffffffffffffffffffffffffffffffff16815260200190815260200160002060010154600080600160008a815260200190815260200160002060009054906101000a900473ffffffffffffffffffffffffffffffffffffffff1673ffffffffffffffffffffffffffffffffffffffff1673ffffffffffffffffffffffffffffffffffffffff16815260200190815260200160002060060160009054906101000a900473ffffffffffffffffffffffffffffffffffffffff16600080600160008b815260200190815260200160002060009054906101000a900473ffffffffffffffffffffffffffffffffffffffff1673ffffffffffffffffffffffffffffffffffffffff1673ffffffffffffffffffffffffffffffffffffffff16815260200190815260200160002060040160009054906101000a900473ffffffffffffffffffffffffffffffffffffffff166040516127409493929190612bc1565b60405180910390a134600260003373ffffffffffffffffffffffffffffffffffffffff1673ffffffffffffffffffffffffffffffffffffffff168152602001908152602001600020600082825401925050819055507ffdc108b575d08570a36bf94bdbd25a35cacfb91b4d8dd560b17aaa99b4884f613334600260003373ffffffffffffffffffffffffffffffffffffffff1673ffffffffffffffffffffffffffffffffffffffff1681526020019081526020016000205460405161280793929190612ac4565b60405180910390a16040518060400160405280601381526020017f7375636365737366756c6c792072656e7465640000000000000000000000000081525092505050919050565b60008135905061285d81612ded565b92915050565b60008135905061287281612e04565b92915050565b60006020828403121561288a57600080fd5b60006128988482850161284e565b91505092915050565b6000602082840312156128b357600080fd5b60006128c184828501612863565b91505092915050565b6000806000606084860312156128df57600080fd5b60006128ed86828701612863565b93505060206128fe86828701612863565b925050604061290f86828701612863565b9150509250925092565b61292281612d54565b82525050565b61293181612d05565b82525050565b61294081612cf3565b82525050565b61294f81612d66565b82525050565b600061296082612cd7565b61296a8185612ce2565b935061297a818560208601612d9c565b61298381612dcf565b840191505092915050565b600061299b602083612ce2565b91507f5468652067616d65206973206e6f7420696e2072656e746564207374617475736000830152602082019050919050565b60006129db602283612ce2565b91507f5468652067616d65206973206e6f7420696e207265736572766564207374617460008301527f75730000000000000000000000000000000000000000000000000000000000006020830152604082019050919050565b6000612a41602783612ce2565b91507f4f6e6c79206e6f6e2d6f776e6572732063616e20706572666f726d207468697360008301527f20616374696f6e000000000000000000000000000000000000000000000000006020830152604082019050919050565b612aa381612d4a565b82525050565b6000602082019050612abe6000830184612937565b92915050565b6000606082019050612ad96000830186612919565b612ae66020830185612a9a565b612af36040830184612a9a565b949350505050565b60006020820190508181036000830152612b158184612955565b905092915050565b60006020820190508181036000830152612b368161298e565b9050919050565b60006020820190508181036000830152612b56816129ce565b9050919050565b60006020820190508181036000830152612b7681612a34565b9050919050565b6000602082019050612b926000830184612a9a565b92915050565b6000604082019050612bad6000830185612a9a565b612bba6020830184612a9a565b9392505050565b6000608082019050612bd66000830187612a9a565b612be36020830186612a9a565b612bf06040830185612919565b612bfd6060830184612919565b95945050505050565b600060a082019050612c1b6000830188612a9a565b612c286020830187612a9a565b612c356040830186612919565b612c426060830185612a9a565b612c4f6080830184612a9a565b9695505050505050565b600061010082019050612c6f600083018b612a9a565b612c7c602083018a612a9a565b612c896040830189612a9a565b612c966060830188612a9a565b612ca36080830187612928565b612cb060a0830186612946565b612cbd60c0830185612a9a565b612cca60e0830184612928565b9998505050505050505050565b600081519050919050565b600082825260208201905092915050565b6000612cfe82612d2a565b9050919050565b6000612d1082612d2a565b9050919050565b6000819050612d2582612de0565b919050565b600073ffffffffffffffffffffffffffffffffffffffff82169050919050565b6000819050919050565b6000612d5f82612d78565b9050919050565b6000612d7182612d17565b9050919050565b6000612d8382612d8a565b9050919050565b6000612d9582612d2a565b9050919050565b60005b83811015612dba578082015181840152602081019050612d9f565b83811115612dc9576000848401525b50505050565b6000601f19601f8301169050919050565b60078110612dea57fe5b50565b612df681612cf3565b8114612e0157600080fd5b50565b612e0d81612d4a565b8114612e1857600080fd5b5056fe7375636365737366756c6c792073686970706564207468652072656e7465642067616d65206261636b20746f206f776e657221546865206f776e6572207375636365737366756c6c79207265636569766564207468652067616d652e2052656e74616c20697320636f6d706c6574652e7375636365737366756c6c79207265636569766564207468652072656e7465642067616d65217375636365737366756c6c7920736869707065642072657365727665642067616d6521a365627a7a7231582001ca625fc0a6d7d2d4c59f1f22393ccf7a1800ae69aea18c4794d9070fda01c86c6578706572696d656e74616cf564736f6c63430005100040",
  "source": "// SPDX-License-Identifier: MIT\npragma solidity >=0.4.22 <0.9.0;\npragma experimental ABIEncoderV2;\n\n\n\ncontract DeSwitch {\n  event LogForGameRegistered(uint gameId, uint registerId, address gameOwnerAddress, uint rentalRate, uint depositRequired);\n  event LogForGameRentalRequested(uint gameId, uint registerId, address gameRenter, address gameOwnerAddress);\n  event LogForGameShippedToRenter(uint gameId, uint registerId, address gameRenter, address gameOwnerAddress);\n  event LogForGameReceivedByRenter(uint gameId, uint registerId, address gameRenter, address gameOwnerAddress);\n  event LogForGameShippedToOwner(uint gameId, uint registerId, address gameRenter, address gameOwnerAddress);\n  event LogForGameReceivedByOwner(uint gameId, uint registerId, address gameRenter, address gameOwnerAddress);\n  event LogForPendingBalanceIncrease(address ownerAddress, uint increaseValue, uint newBalance);\n  event LogForConfirmedBalanceIncrease(address ownerAddress, uint increaseValue, uint newBalance);\n  enum gameState {\n    Invalid,\n    Available,\n    Reserved,\n    ShippedToRenter,\n    Rented,\n    ShippedToOwner,\n    RentalCompleted\n  }\n\n  struct Game{\n    uint gameid;\n    uint gregisterId;\n    uint rentalRate;\n    uint depositRequired;\n    address payable gameOwner;\n    gameState state;\n    uint timeRentalStart;\n    address payable gameRenter;\n  }\n\n  \n  mapping (address => Game) public games;\n  mapping (uint => address) public registerIdList;\n  mapping (address => uint) public pendingBalances;\n  mapping (address => uint) public confirmedBalances;\n\n  // mapping (uint => Game) public games;\n  uint registerId = 0 ;\n\n  \n    constructor() public {\n  }\n  \n  modifier notGameOwner(uint _trackingId) {\n    require(games[registerIdList[_trackingId]].gameOwner != msg.sender, \"Only non-owners can perform this action\");\n    // require(games[registerIdList[_trackingId]].gameOwner != msg.sender);\n    _;\n  }\n\n  modifier isGameOwner(uint _trackingId) {\n    require(games[registerIdList[_trackingId]].gameOwner == msg.sender);\n    _;\n  }\n\n  modifier isGameRenter(uint _trackingId) {\n    require(games[registerIdList[_trackingId]].gameRenter == msg.sender);\n    _;\n  }\n\n  modifier isAvailableGame(uint _trackingId){\n    require(games[registerIdList[_trackingId]].state == gameState.Available);\n    _;\n  }\n\n  modifier isShippedToRenterGame(uint _trackingId){\n    require(games[registerIdList[_trackingId]].state == gameState.ShippedToRenter);\n    _;\n  }\n  \n  modifier isReservedGame(uint _trackingId){\n    require(games[registerIdList[_trackingId]].state == gameState.Reserved, \"The game is not in reserved status\");\n    _;\n  }\n\n  modifier isRentedGame(uint _trackingId){\n    require(games[registerIdList[_trackingId]].state == gameState.Rented,\"The game is not in rented status\");\n    _;\n  }\n\n  modifier isShippedToOwnerGame(uint _trackingId){\n    require(games[registerIdList[_trackingId]].state == gameState.ShippedToOwner);\n    _;\n  }\n\n  function queryGameCount() public view returns(uint){\n    return (registerId);\n  }\n\n  function registerGame(uint _gameId, uint _rentalRate, uint _depositRequired) public returns(uint, uint){\n    //should be a public function as anyone should be able to put their game for sale/rental\n    //Users register games they own (Ex. Switch Games) as \"Available\"\n    //GameID refers to gameId from http://nswdb.com/ to avoid confusion between different game titles\n    //Require checks for validity of values submitted for required arguments\n    //Set gameState as \"Available\"\n    //Set gameOwner as msg.sender\n    //Set gameBuyer and gameRenter will be empty and get updated once a buyer triggers the rentGame function\n    //returns true/false if registeration was successful and a trackingId tagged to the registered game\n    //Increase the registerId counter by 1 so that the next game gets registered with the next registerId.\n    //Consider hashing/randomizing instead of incremental values, can consider sha256(msg.sender+registerID)\n    registerId += 1;\n    //Create a Game struct with the provided values and add it to the address -> game mapping\n    games[msg.sender] = Game({\n      gameid : _gameId,\n      gregisterId : registerId,\n      rentalRate : _rentalRate,\n      depositRequired : _depositRequired,\n      gameOwner : msg.sender,\n      state : gameState.Available,\n      timeRentalStart : 0,\n      gameRenter : address(0)\n    });\n\n    //add to the mapping registerId -> Owner Address\n    registerIdList[registerId] = msg.sender;\n\n    //Emits appropriate event to log the chagnes \n    emit LogForGameRegistered(_gameId, registerId, msg.sender, _rentalRate, _depositRequired);\n    return (1, registerId);\n  }\n\n  function queryGameStatusbyTI(uint _trackingId) public view returns(string memory){\n    if (games[registerIdList[_trackingId]].state == gameState.Invalid) return \"Invalid\";\n    if (games[registerIdList[_trackingId]].state == gameState.Available) return \"Available\";\n    if (games[registerIdList[_trackingId]].state == gameState.Reserved) return \"Reserved\";\n    if (games[registerIdList[_trackingId]].state == gameState.ShippedToRenter) return \"ShippedToRenter\";\n    if (games[registerIdList[_trackingId]].state == gameState.Rented) return \"Rented\";\n    if (games[registerIdList[_trackingId]].state == gameState.ShippedToOwner) return \"ShippedToOwner\";\n    if (games[registerIdList[_trackingId]].state == gameState.RentalCompleted) return \"RentalCompleted\";\n    return \"Invalid\";\n  }\n\n  function queryBalance(address _address) public view returns(uint, uint){\n    require(msg.sender == _address);\n    if (pendingBalances[_address] != 0 && confirmedBalances[_address] != 0){\n      // return (pendingBalances[_address], confirmedBalances[_address]);\n      return (1,1);\n    }else{\n      return (0,0);\n    }\n  }\n\n  function queryGamePricebyTI(uint _trackingId) public view returns(uint, uint){\n    //check if the game ID is valid\n    return (games[registerIdList[_trackingId]].rentalRate, games[registerIdList[_trackingId]].depositRequired);\n  }\n\n  function rentGame(uint _trackingId) public payable notGameOwner(_trackingId) isAvailableGame(_trackingId) returns(string memory) {\n    //should be \"payable\" as this requires ether to be transffered to the contract\n    //should be \"public\" as anyone should be able to rent the game \n    //Verify the state of trackingId to be \"Available\" using a modifier\n    //return true or false if the rentGame attempt was successful\n    //check if msg.value == games[trackingId].rentalRate\n    //at the end of this function the state of the Game should be set to \"TransactionInProgress\"\n    \n    games[registerIdList[_trackingId]].state = gameState.Reserved;\n    games[registerIdList[_trackingId]].gameRenter = msg.sender;\n    // games[registerIdList[_trackignId]]\n\n    //Emit event\n    // event LogForGameRentalRequested(uint gameId, uint registerId, address gameRenter, address gameOwnerAddress);\n    emit LogForGameRentalRequested(games[registerIdList[_trackingId]].gameid, games[registerIdList[_trackingId]].gregisterId, games[registerIdList[_trackingId]].gameRenter, games[registerIdList[_trackingId]].gameOwner);\n    \n    pendingBalances[msg.sender] += msg.value;\n    emit LogForPendingBalanceIncrease(msg.sender, msg.value, pendingBalances[msg.sender]);\n    return \"successfully rented\";\n  }\n\n\n\n  function shipGame(uint _trackingId) public isGameOwner(_trackingId) isReservedGame(_trackingId) returns(string memory){\n    //To be called by the gameOwner to account for state update to \"Shipped\"\n    //Only the gameOwner with same account address as games[trackingId].gameOnwer can execute this function\n    //Require the games[trackingId].state to be \"AvailableForRent\" or \"AvailableForBuy\"\n    games[registerIdList[_trackingId]].state = gameState.ShippedToRenter;\n    emit LogForGameShippedToRenter(games[registerIdList[_trackingId]].gameid, games[registerIdList[_trackingId]].gregisterId, games[registerIdList[_trackingId]].gameRenter, games[registerIdList[_trackingId]].gameOwner);\n    return \"successfully shipped reserved game!\";\n\n  } \n\n  function receiveGameRenter(uint _trackingId) public isGameRenter(_trackingId) isShippedToRenterGame(_trackingId) returns(string memory){\n    //To be called by the gameBuyer or gameRenter to account for state change to \"Rented\" or \"Sold\"\n    //This function triggers payment to the gameOwner address if the transaction completed was \"buy\" instead of \"rent\"\n    //This function makes the time to be loggged as the start of rental as timeRentalStart\n    games[registerIdList[_trackingId]].state = gameState.Rented;\n    emit LogForGameReceivedByRenter(games[registerIdList[_trackingId]].gameid, games[registerIdList[_trackingId]].gregisterId, games[registerIdList[_trackingId]].gameRenter, games[registerIdList[_trackingId]].gameOwner);\n    return \"successfully received the rented game!\";\n  }\n\n  function returnGame(uint _trackingId) public isGameRenter(_trackingId) isRentedGame(_trackingId) returns(string memory){\n    //To be called buy the owner once the game has returned in good condition.\n    //This function returns the deposit (Totaldeposit - rental fee) from the smart Contract to the renter\n    //To trigger payment function to the gameOwner for the rental fee\n    games[registerIdList[_trackingId]].state = gameState.ShippedToOwner;\n    emit LogForGameShippedToOwner(games[registerIdList[_trackingId]].gameid, games[registerIdList[_trackingId]].gregisterId, games[registerIdList[_trackingId]].gameRenter, games[registerIdList[_trackingId]].gameOwner);\n    return \"successfully shipped the rented game back to owner!\";\n  }\n\n  function receiveGameOwner(uint _trackingId) public isGameOwner(_trackingId) isShippedToOwnerGame(_trackingId) returns(string memory){\n    //To be called by the gameOwner to account for state change when the game is returned by the renter.\n    //This function triggers payment to the gameOwner address if the transaction completed was \"buy\" instead of \"rent\"\n    //This function makes the time to be loggged as the start of rental as timeRentalStart\n    games[registerIdList[_trackingId]].state = gameState.RentalCompleted;\n    emit LogForGameReceivedByOwner(games[registerIdList[_trackingId]].gameid, games[registerIdList[_trackingId]].gregisterId, games[registerIdList[_trackingId]].gameRenter, games[registerIdList[_trackingId]].gameOwner);\n    return \"The owner successfully received the game. Rental is complete.\";\n  }\n\n}\n",
  "sourcePath": "/home/dabin/consensys/blockchain-developer-bootcamp-final-project/contracts/DeSwitch.sol",
  "compiler": {
    "name": "solc",
    "version": "0.5.16+commit.9c3226ce.Emscripten.clang"
  },
  "schemaVersion": "3.4.3",
  "updatedAt": "2021-11-14T15:48:01.857Z",
  "networkType": "ethereum",
  "devdoc": {
    "methods": {}
  },
  "userdoc": {
    "methods": {}
  }
}