{
  "contractName": "DeSwitch",
  "abi": [
    {
      "inputs": [],
      "payable": false,
      "stateMutability": "nonpayable",
      "type": "constructor"
    },
    {
      "anonymous": false,
      "inputs": [
        {
          "indexed": false,
          "internalType": "uint256",
          "name": "gameId",
          "type": "uint256"
        },
        {
          "indexed": false,
          "internalType": "uint256",
          "name": "registerId",
          "type": "uint256"
        },
        {
          "indexed": false,
          "internalType": "address",
          "name": "gameRenter",
          "type": "address"
        },
        {
          "indexed": false,
          "internalType": "address",
          "name": "gameOwnerAddress",
          "type": "address"
        },
        {
          "indexed": false,
          "internalType": "uint256",
          "name": "rentalRate",
          "type": "uint256"
        },
        {
          "indexed": false,
          "internalType": "uint256",
          "name": "depositRequired",
          "type": "uint256"
        }
      ],
      "name": "LogFOrGameRentalTxnCompleted",
      "type": "event"
    },
    {
      "anonymous": false,
      "inputs": [
        {
          "indexed": false,
          "internalType": "uint256",
          "name": "gameId",
          "type": "uint256"
        },
        {
          "indexed": false,
          "internalType": "uint256",
          "name": "registerId",
          "type": "uint256"
        },
        {
          "indexed": false,
          "internalType": "address",
          "name": "gameOwnerAddress",
          "type": "address"
        },
        {
          "indexed": false,
          "internalType": "uint256",
          "name": "rentalRate",
          "type": "uint256"
        },
        {
          "indexed": false,
          "internalType": "uint256",
          "name": "depositRequired",
          "type": "uint256"
        }
      ],
      "name": "LogForGameRegistered",
      "type": "event"
    },
    {
      "anonymous": false,
      "inputs": [
        {
          "indexed": false,
          "internalType": "uint256",
          "name": "gameId",
          "type": "uint256"
        },
        {
          "indexed": false,
          "internalType": "uint256",
          "name": "registerId",
          "type": "uint256"
        },
        {
          "indexed": false,
          "internalType": "address",
          "name": "gameRenter",
          "type": "address"
        },
        {
          "indexed": false,
          "internalType": "address",
          "name": "gameOwnerAddress",
          "type": "address"
        }
      ],
      "name": "LogForGameRentalRequested",
      "type": "event"
    },
    {
      "constant": true,
      "inputs": [
        {
          "internalType": "address",
          "name": "",
          "type": "address"
        }
      ],
      "name": "games",
      "outputs": [
        {
          "internalType": "uint256",
          "name": "gameid",
          "type": "uint256"
        },
        {
          "internalType": "uint256",
          "name": "gregisterId",
          "type": "uint256"
        },
        {
          "internalType": "uint256",
          "name": "rentalRate",
          "type": "uint256"
        },
        {
          "internalType": "uint256",
          "name": "depositRequired",
          "type": "uint256"
        },
        {
          "internalType": "address payable",
          "name": "gameOwner",
          "type": "address"
        },
        {
          "internalType": "enum DeSwitch.gameState",
          "name": "state",
          "type": "uint8"
        },
        {
          "internalType": "uint256",
          "name": "timeRentalStart",
          "type": "uint256"
        },
        {
          "internalType": "address payable",
          "name": "gameRenter",
          "type": "address"
        }
      ],
      "payable": false,
      "stateMutability": "view",
      "type": "function"
    },
    {
      "constant": true,
      "inputs": [
        {
          "internalType": "uint256",
          "name": "",
          "type": "uint256"
        }
      ],
      "name": "registerIdList",
      "outputs": [
        {
          "internalType": "address",
          "name": "",
          "type": "address"
        }
      ],
      "payable": false,
      "stateMutability": "view",
      "type": "function"
    },
    {
      "constant": false,
      "inputs": [
        {
          "internalType": "uint256",
          "name": "_gameId",
          "type": "uint256"
        },
        {
          "internalType": "uint256",
          "name": "_rentalRate",
          "type": "uint256"
        },
        {
          "internalType": "uint256",
          "name": "_depositRequired",
          "type": "uint256"
        }
      ],
      "name": "registerGame",
      "outputs": [
        {
          "internalType": "uint256",
          "name": "",
          "type": "uint256"
        },
        {
          "internalType": "uint256",
          "name": "",
          "type": "uint256"
        }
      ],
      "payable": false,
      "stateMutability": "nonpayable",
      "type": "function"
    },
    {
      "constant": true,
      "inputs": [
        {
          "internalType": "uint256",
          "name": "_registerId",
          "type": "uint256"
        }
      ],
      "name": "queryGameStatus",
      "outputs": [
        {
          "internalType": "string",
          "name": "",
          "type": "string"
        }
      ],
      "payable": false,
      "stateMutability": "view",
      "type": "function"
    },
    {
      "constant": false,
      "inputs": [
        {
          "internalType": "uint256",
          "name": "_trackingId",
          "type": "uint256"
        }
      ],
      "name": "rentGame",
      "outputs": [
        {
          "internalType": "bool",
          "name": "",
          "type": "bool"
        }
      ],
      "payable": true,
      "stateMutability": "payable",
      "type": "function"
    },
    {
      "constant": false,
      "inputs": [
        {
          "internalType": "uint256",
          "name": "_trackingId",
          "type": "uint256"
        }
      ],
      "name": "shipGame",
      "outputs": [
        {
          "internalType": "bool",
          "name": "",
          "type": "bool"
        }
      ],
      "payable": false,
      "stateMutability": "nonpayable",
      "type": "function"
    },
    {
      "constant": false,
      "inputs": [
        {
          "internalType": "uint256",
          "name": "trackingId",
          "type": "uint256"
        }
      ],
      "name": "receiveGame",
      "outputs": [
        {
          "internalType": "bool",
          "name": "",
          "type": "bool"
        }
      ],
      "payable": false,
      "stateMutability": "nonpayable",
      "type": "function"
    },
    {
      "constant": false,
      "inputs": [
        {
          "internalType": "uint256",
          "name": "trackingId",
          "type": "uint256"
        }
      ],
      "name": "returnGame",
      "outputs": [
        {
          "internalType": "bool",
          "name": "",
          "type": "bool"
        }
      ],
      "payable": false,
      "stateMutability": "nonpayable",
      "type": "function"
    }
  ],
  "bytecode": "0x6080604052600060025534801561001557600080fd5b50610ee7806100256000396000f3fe60806040526004361061007b5760003560e01c80636f0b97a71161004e5780636f0b97a71461017557806379131a19146101b2578063f0787858146101f6578063f3130972146102335761007b565b80632146d893146100805780633d1b2101146100be5780633e531e0d146100fb578063513820ca14610138575b600080fd5b34801561008c57600080fd5b506100a760048036036100a29190810190610b20565b610263565b6040516100b5929190610c5a565b60405180910390f35b3480156100ca57600080fd5b506100e560048036036100e09190810190610af7565b6104c0565b6040516100f29190610c02565b60405180910390f35b34801561010757600080fd5b50610122600480360361011d9190810190610af7565b6104f3565b60405161012f9190610c38565b60405180910390f35b34801561014457600080fd5b5061015f600480360361015a9190810190610af7565b6108a6565b60405161016c9190610c1d565b60405180910390f35b34801561018157600080fd5b5061019c60048036036101979190810190610af7565b6108ad565b6040516101a99190610c1d565b60405180910390f35b3480156101be57600080fd5b506101d960048036036101d49190810190610ace565b6108b4565b6040516101ed989796959493929190610cd6565b60405180910390f35b34801561020257600080fd5b5061021d60048036036102189190810190610af7565b610949565b60405161022a9190610c1d565b60405180910390f35b61024d60048036036102489190810190610af7565b610950565b60405161025a9190610c1d565b60405180910390f35b600080600160026000828254019250508190555060405180610100016040528086815260200160025481526020018581526020018481526020013373ffffffffffffffffffffffffffffffffffffffff168152602001600160058111156102c657fe5b815260200160008152602001600073ffffffffffffffffffffffffffffffffffffffff168152506000803373ffffffffffffffffffffffffffffffffffffffff1673ffffffffffffffffffffffffffffffffffffffff1681526020019081526020016000206000820151816000015560208201518160010155604082015181600201556060820151816003015560808201518160040160006101000a81548173ffffffffffffffffffffffffffffffffffffffff021916908373ffffffffffffffffffffffffffffffffffffffff16021790555060a08201518160040160146101000a81548160ff021916908360058111156103be57fe5b021790555060c0820151816005015560e08201518160060160006101000a81548173ffffffffffffffffffffffffffffffffffffffff021916908373ffffffffffffffffffffffffffffffffffffffff1602179055509050503360016000600254815260200190815260200160002060006101000a81548173ffffffffffffffffffffffffffffffffffffffff021916908373ffffffffffffffffffffffffffffffffffffffff1602179055507f1514ac551452196cfee486346bb313635c81b22c7cc00f5959aabc3d4b9c3a27856002543387876040516104a4959493929190610c83565b60405180910390a1600160025481915091509150935093915050565b60016020528060005260406000206000915054906101000a900473ffffffffffffffffffffffffffffffffffffffff1681565b60606001600581111561050257fe5b6000806001600086815260200190815260200160002060009054906101000a900473ffffffffffffffffffffffffffffffffffffffff1673ffffffffffffffffffffffffffffffffffffffff1673ffffffffffffffffffffffffffffffffffffffff16815260200190815260200160002060040160149054906101000a900460ff16600581111561058f57fe5b14156105d2576040518060400160405280600981526020017f417661696c61626c65000000000000000000000000000000000000000000000081525090506108a1565b600360058111156105df57fe5b6000806001600086815260200190815260200160002060009054906101000a900473ffffffffffffffffffffffffffffffffffffffff1673ffffffffffffffffffffffffffffffffffffffff1673ffffffffffffffffffffffffffffffffffffffff16815260200190815260200160002060040160149054906101000a900460ff16600581111561066c57fe5b14156106af576040518060400160405280600781526020017f536869707065640000000000000000000000000000000000000000000000000081525090506108a1565b600460058111156106bc57fe5b6000806001600086815260200190815260200160002060009054906101000a900473ffffffffffffffffffffffffffffffffffffffff1673ffffffffffffffffffffffffffffffffffffffff1673ffffffffffffffffffffffffffffffffffffffff16815260200190815260200160002060040160149054906101000a900460ff16600581111561074957fe5b141561078c576040518060400160405280600681526020017f52656e746564000000000000000000000000000000000000000000000000000081525090506108a1565b60058081111561079857fe5b6000806001600086815260200190815260200160002060009054906101000a900473ffffffffffffffffffffffffffffffffffffffff1673ffffffffffffffffffffffffffffffffffffffff1673ffffffffffffffffffffffffffffffffffffffff16815260200190815260200160002060040160149054906101000a900460ff16600581111561082557fe5b1415610868576040518060400160405280600481526020017f536f6c640000000000000000000000000000000000000000000000000000000081525090506108a1565b6040518060400160405280600781526020017f496e76616c69640000000000000000000000000000000000000000000000000081525090505b919050565b6000919050565b6000919050565b60006020528060005260406000206000915090508060000154908060010154908060020154908060030154908060040160009054906101000a900473ffffffffffffffffffffffffffffffffffffffff16908060040160149054906101000a900460ff16908060050154908060060160009054906101000a900473ffffffffffffffffffffffffffffffffffffffff16905088565b6000919050565b6000336000806001600086815260200190815260200160002060009054906101000a900473ffffffffffffffffffffffffffffffffffffffff1673ffffffffffffffffffffffffffffffffffffffff1673ffffffffffffffffffffffffffffffffffffffff16815260200190815260200160002060060160006101000a81548173ffffffffffffffffffffffffffffffffffffffff021916908373ffffffffffffffffffffffffffffffffffffffff16021790555060026000806001600086815260200190815260200160002060009054906101000a900473ffffffffffffffffffffffffffffffffffffffff1673ffffffffffffffffffffffffffffffffffffffff1673ffffffffffffffffffffffffffffffffffffffff16815260200190815260200160002060040160146101000a81548160ff02191690836005811115610a9657fe5b021790555060019050919050565b600081359050610ab381610e76565b92915050565b600081359050610ac881610e8d565b92915050565b600060208284031215610ae057600080fd5b6000610aee84828501610aa4565b91505092915050565b600060208284031215610b0957600080fd5b6000610b1784828501610ab9565b91505092915050565b600080600060608486031215610b3557600080fd5b6000610b4386828701610ab9565b9350506020610b5486828701610ab9565b9250506040610b6586828701610ab9565b9150509250925092565b610b7881610ddd565b82525050565b610b8781610d82565b82525050565b610b9681610d70565b82525050565b610ba581610d94565b82525050565b610bb481610def565b82525050565b6000610bc582610d54565b610bcf8185610d5f565b9350610bdf818560208601610e25565b610be881610e58565b840191505092915050565b610bfc81610dd3565b82525050565b6000602082019050610c176000830184610b8d565b92915050565b6000602082019050610c326000830184610b9c565b92915050565b60006020820190508181036000830152610c528184610bba565b905092915050565b6000604082019050610c6f6000830185610bf3565b610c7c6020830184610bf3565b9392505050565b600060a082019050610c986000830188610bf3565b610ca56020830187610bf3565b610cb26040830186610b6f565b610cbf6060830185610bf3565b610ccc6080830184610bf3565b9695505050505050565b600061010082019050610cec600083018b610bf3565b610cf9602083018a610bf3565b610d066040830189610bf3565b610d136060830188610bf3565b610d206080830187610b7e565b610d2d60a0830186610bab565b610d3a60c0830185610bf3565b610d4760e0830184610b7e565b9998505050505050505050565b600081519050919050565b600082825260208201905092915050565b6000610d7b82610db3565b9050919050565b6000610d8d82610db3565b9050919050565b60008115159050919050565b6000819050610dae82610e69565b919050565b600073ffffffffffffffffffffffffffffffffffffffff82169050919050565b6000819050919050565b6000610de882610e01565b9050919050565b6000610dfa82610da0565b9050919050565b6000610e0c82610e13565b9050919050565b6000610e1e82610db3565b9050919050565b60005b83811015610e43578082015181840152602081019050610e28565b83811115610e52576000848401525b50505050565b6000601f19601f8301169050919050565b60068110610e7357fe5b50565b610e7f81610d70565b8114610e8a57600080fd5b50565b610e9681610dd3565b8114610ea157600080fd5b5056fea365627a7a72315820f5044aa7d9884567b87ac84694be7cd16bc5ede3d411461d707ce7c3b83d20e46c6578706572696d656e74616cf564736f6c63430005100040",
  "source": "// SPDX-License-Identifier: MIT\npragma solidity >=0.4.22 <0.9.0;\npragma experimental ABIEncoderV2;\n\n\n\ncontract DeSwitch {\n  event LogForGameRegistered(uint gameId, uint registerId, address gameOwnerAddress, uint rentalRate, uint depositRequired);\n  event LogForGameRentalRequested(uint gameId, uint registerId, address gameRenter, address gameOwnerAddress);\n  event LogFOrGameRentalTxnCompleted(uint gameId, uint registerId, address gameRenter, address gameOwnerAddress, uint rentalRate, uint depositRequired);\n  enum gameState {\n    Invalid,\n    Available,\n    Reserved,\n    Shipped,\n    Rented,\n    Sold\n  }\n\n  struct Game{\n    uint gameid;\n    uint gregisterId;\n    uint rentalRate;\n    uint depositRequired;\n    address payable gameOwner;\n    gameState state;\n    uint timeRentalStart;\n    address payable gameRenter;\n  }\n\n  \n  mapping (address => Game) public games;\n  mapping (uint => address) public registerIdList;\n  uint registerId = 0 ;\n\n  \n    constructor() public {\n  }\n\n  function registerGame(uint _gameId, uint _rentalRate, uint _depositRequired) public returns(uint, uint){\n    //should be a public function as anyone should be able to put their game for sale/rental\n    //Users register games they own (Ex. Switch Games) as \"Available\"\n    //GameID refers to gameId from http://nswdb.com/ to avoid confusion between different game titles\n    //Require checks for validity of values submitted for required arguments\n    //Set gameState as \"Available\"\n    //Set gameOwner as msg.sender\n    //Set gameBuyer and gameRenter will be empty and get updated once a buyer triggers the rentGame function\n    //returns true/false if registeration was successful and a trackingId tagged to the registered game\n    //Increase the registerId counter by 1 so that the next game gets registered with the next registerId.\n    //Consider hashing/randomizing instead of incremental values, can consider sha256(msg.sender+registerID)\n    registerId += 1;\n    //Create a Game struct with the provided values and add it to the address -> game mapping\n    games[msg.sender] = Game({\n      gameid : _gameId,\n      gregisterId : registerId,\n      rentalRate : _rentalRate,\n      depositRequired : _depositRequired,\n      gameOwner : msg.sender,\n      state : gameState.Available,\n      timeRentalStart : 0,\n      gameRenter : address(0)\n    });\n\n    //add to the mapping registerId -> Owner Address\n    registerIdList[registerId] = msg.sender;\n\n    //Emits appropriate event to log the chagnes \n    emit LogForGameRegistered(_gameId, registerId, msg.sender, _rentalRate, _depositRequired);\n    return (1, registerId);\n  }\n\n  function queryGameStatus(uint _registerId) public view returns(string memory){\n    // function queryGameStatus(uint _registerId) public view returns(gameState){\n    // Game[] memory gameList = new Game[](registerId);\n    // for (uint i = 0; i < registerId; i++){\n    //   gameList[i] = games[registerIdList[0]];\n    // }\n    // return gameList;\n\n\n    // Available,\n    // Shipped,\n    // Rented,\n    // Sold\n     // Loop through possible options\n    if (games[registerIdList[_registerId]].state == gameState.Available) return \"Available\";\n    if (games[registerIdList[_registerId]].state == gameState.Shipped) return \"Shipped\";\n    if (games[registerIdList[_registerId]].state == gameState.Rented) return \"Rented\";\n    if (games[registerIdList[_registerId]].state == gameState.Sold) return \"Sold\";\n    // else return \"Invalid\";\n    return \"Invalid\";\n  }\n\n  function rentGame(uint _trackingId) public payable returns(bool) {\n    //should be \"payable\" as this requires ether to be transffered to the contract\n    //should be \"public\" as anyone should be able to rent the game \n    //Verify the state of trackingId to be \"Available\" using a modifier\n    //return true or false if the rentGame attempt was successful\n    //check if msg.value == games[trackingId].rentalRate\n    //at the end of this function the state of the Game should be set to \"TransactionInProgress\"\n    games[registerIdList[_trackingId]].gameRenter = msg.sender;\n    games[registerIdList[_trackingId]].state = gameState.Reserved;\n    // games[registerIdList[_trackignId]]\n    return true;\n  }\n\n  // function buyGame(uint trackingId) public payable returns(bool){\n  //   //should be \"payable\" as this requires ether to be transffered to the contract\n  //   //should be \"public\" as anyone should be able to buy the game \n  //   //Verify the state of trackingId to be either \"Available\" using a modifier\n  //   //return true or false if the rentGame attempt was successful\n  //   //check if msg.value == games[trackingId].sellRate\n  //   //at the end of this function the state of the Game should be set to \"TransactionInProgress\"\n  // }\n\n  function shipGame(uint _trackingId) public returns(bool){\n    //To be called by the gameOwner to account for state update to \"Shipped\"\n    //Only the gameOwner with same account address as games[trackingId].gameOnwer can execute this function\n    //Require the games[trackingId].state to be \"AvailableForRent\" or \"AvailableForBuy\"\n  } \n\n  function receiveGame(uint trackingId) public returns(bool){\n    //To be called by the gameBuyer or gameRenter to account for state change to \"Rented\" or \"Sold\"\n    //This function triggers payment to the gameOwner address if the transaction completed was \"buy\" instead of \"rent\"\n    //This function makes the time to be loggged as the start of rental as timeRentalStart\n\n  }\n\n  function returnGame(uint trackingId) public returns(bool){\n    //To be called buy the owner once the game has returned in good condition.\n    //This function returns the deposit (Totaldeposit - rental fee) from the smart Contract to the renter\n    //To trigger payment function to the gameOwner for the rental fee\n  }\n\n}\n",
  "sourcePath": "/home/dabin/consensys/blockchain-developer-bootcamp-final-project/contracts/DeSwitch.sol",
  "compiler": {
    "name": "solc",
    "version": "0.5.16+commit.9c3226ce.Emscripten.clang"
  },
  "schemaVersion": "3.4.3",
  "updatedAt": "2021-11-04T16:05:26.772Z",
  "networkType": "ethereum",
  "devdoc": {
    "methods": {}
  },
  "userdoc": {
    "methods": {}
  }
}